:020000040800F2
:10000000FF3F0020DD5600080D28000811280008D9
:1000100000000000000000000000000000000000E0
:10002000000000000000000000000000152800088B
:100030000000000000000000192800081D2800082A
:100040002D5700082D5700082D5700082D57000880
:100050002D5700082D5700082D5700082D57000870
:100060002D5700082D5700082D5700082D57000860
:100070002D5700082D5700082D5700082D57000850
:100080002D5700082D5700082D5700082D57000840
:100090002D5700082D570008292800082D57000863
:1000A0002D5700082D5700082D5700082D57000820
:1000B0002D5700082D5700082D5700083928000833
:1000C00010B5064C2378002B07D1054B002B02D02E
:1000D000044800E000BF0123237010BD6801002028
:1000E00000000000B86C000808B5084B002B03D0D6
:1000F0000748084900E000BF07480368002B03D009
:10010000064B002B00D0984708BDC04600000000F9
:10011000B86C00086C01002068010020000000009D
:10012000002934D00123002210B488422CD30124AA
:100130002407A14204D2814202D209011B01F8E73F
:10014000E400A14204D2814202D249005B00F8E7F8
:10015000884201D3401A1A434C08A04202D3001B24
:100160005C0822438C08A04202D3001B9C08224357
:10017000CC08A04202D3001BDC082243002803D095
:100180001B0901D00909E3E7101C10BC70470028C7
:1001900001D00020C04307B4024802A140180290D9
:1001A00003BDC046190000000029F0D003B5FFF7D9
:1001B000B9FF0EBC4243891A1847C0467047C04673
:1001C0008446101C62468C46191C634600E0C046FB
:1001D0001FB500F063FF002801D40021C8421FBDF5
:1001E00010B500F093FE4042013010BD10B500F094
:1001F00055FF002801DB002010BD012010BDC046C6
:1002000010B500F04BFF002801DD002010BD0120DB
:1002100010BDC04610B500F0C3FE002801DC002070
:1002200010BD012010BDC04610B500F0B9FE002879
:1002300001DA002010BD012010BDC0460000000002
:1002400038B50E4B0C4A041C0D1CFFF7EDFF0028BF
:1002500004D1201C291C01F063FD38BD074B064A60
:10026000201C291C01F028FA01F05AFD80231B06EE
:10027000C018F2E7C046C046000000000000E041A0
:10028000F8B55F46564644464D46F0B40C034D0063
:10029000CE0F610A440F2143C40018038046580062
:1002A000400D8246D80F84464046400A530F034310
:1002B000D0006D0D371C83465246664500D1A4E040
:1002C000AF1A002F00DC09E1002A3BD1184300D00F
:1002D000EAE0630700D187E00F232340042B00D11D
:1002E00082E0221DA242A4416442802309191B041A
:1002F0000B40371C141C002B00D17CE0CE4B013589
:100300009D4200D105E1CD4BE40819404807490260
:1003100004430B0B002000211B031A0B0B0D6D0572
:100320001B0513436A08C64DFF071D4015436D00AA
:100330006D08291C3943201C3CBC90469946A246B6
:10034000AB46F8BDBC488542C3D0802000040343BF
:10035000382F00DDF0E01F2F00DD24E12020C01B3E
:100360001A1C814682405846F8400243944658463B
:100370004A469040421E9041FB40624602431F1C89
:10038000A21A9442A4416442C91B091B141C0B020B
:100390009FD549024F0A002F00D1C8E0381C01F058
:1003A00031FD021C083A1F2A00DDB5E02821091A98
:1003B000201C9740C84007439440954200DDB2E0BE
:1003C000551B691C1F2900DDDCE01F22551B3B1C4F
:1003D000221CAB40CA40AC40651EAC411343CF4029
:1003E0001C43391C002574E780231B040B40371C79
:1003F000002B00D082E7904B4807E4080443C9086B
:100400009D4248D009030B0B84E7AA1A9446002AA0
:1004100000DC98E05046002852D08748854200D141
:1004200057E78020000403436246382A00DDFCE0E1
:100430001F2A00DD4AE120226046101A1A1C824061
:100440008246914658466246D0404A46024390460C
:10045000584652469040421E9041424602436046F2
:10046000C3401219A242A441644259180919141C2C
:10047000080200D42DE7704B01359D4200D122E1E6
:100480006E4B60081940012323401C1C0443CB071A
:100490001C4349081DE7231C0B433AD080231B0350
:1004A0000B431B031B0B35E7013F002F65D158465B
:1004B000221A9442A4416442C91A091B141C66E71B
:1004C0005846184300D104E7012252429444604642
:1004D000002800D0C5E058460219C3E7002F73D1A9
:1004E000681C4005400D012800DCDEE05A46A21AD7
:1004F0009442BF41C81A7F42C71B380200D489E02A
:100500005A46141BA3459241591A52428F1A664605
:1005100041E700230024FDE6271C283887400024FB
:10052000954200DC4CE74549AD1A3940D1E6201C24
:1005300001F068FC203034E75A461A43531E9A41B2
:10054000D2B200271CE7002A00D0DCE0681C42057C
:10055000520D012A00DC8DE0374DA84200D1F3E0B6
:100560005D462A19A242A441644259180919CC07D0
:10057000520814434908051CABE62F48854200D0B9
:10058000E6E6A6E62B1C1F3B3A1CDA40131C20298A
:100590006CD03F22551BAF403C43601E84411C433E
:1005A0000021002595E6381C20381A1CC240101C7A
:1005B000202F5DD04022D71BBB405A461A43531E02
:1005C0009A4102430027DBE6002D3BD01A4DAA4595
:1005D00000D193E080252D047F422943382F00DD90
:1005E000ACE01F2F00DD29E12025ED1B081C261C97
:1005F000A840FE40AC400643651EAC413443F94080
:100600005D462C1BA34592415B1A5242991A5546EE
:100610006646BCE6131C3B43141C002B00D0BAE614
:100620000027002100250024E5E65A461A43531E00
:100630009A41D2B2002314E7FF070000FFFF7FFFBB
:10064000FFFF0F800D1C254358D0FF43002F51D1D1
:10065000041BA3459241591A5242891A55466646CF
:1006600095E69648854200D0DEE632E6002793E71D
:100670000023A2E7081C2043002D00D0C4E000287E
:1006800000D1F7E05846184300D122E65846021937
:10069000A242A441644259180919141C0A0200D448
:1006A00017E6874B0125194013E6081C2043002D4F
:1006B00039D1002871D15946194303D0191C5C4621
:1006C000664606E600270021002494E660462038AE
:1006D0001A1CC24060469146202800D1ACE040225E
:1006E000121A93405A461A43531E9A414B461A43D4
:1006F0000023B6E6714DAA4500D06FE7191C5C4691
:1007000055466646E5E5002D22D10D1C254377D0E0
:10071000D543002D71D15C445C4592415918524239
:1007200089185546A4E600284DD15946194300D1F1
:1007300094E0191C5C466646604DCAE50C43611E98
:100740008C41E4B200215BE7051C0021002452E645
:100750005A4DAA4554D05542802210040143382DE9
:1007600000DD81E01F2D00DD92E02022501B0A1CDD
:1007700084468240201CE8400243904662469440F2
:10078000601E844142461443E9405C445C4592410A
:10079000CB185242991855466AE65846184300D17C
:1007A00097E55846271ABC429241C81A5242801A0D
:1007B000020266D55846041BA3459241591A52427B
:1007C000891A664685E55846184333D04807E40839
:1007D00004438020C9080003014208D0DD08054217
:1007E00005D15946CA085C071443291C6646630FA5
:1007F000C9001943E400314D6BE5304A9245AED152
:10080000191C5C46554664E5002836D05846184306
:1008100010D080254807E408C9082D030443294265
:10082000E5D0D8082842E2D15D46EA085C071443C7
:10083000011CDCE7214D4CE5002353E73D1C203D26
:100840000A1CEA40151C202F34D04026F71BB94063
:100850000C43611E8C412C430021D1E680210027EE
:10086000C903164D0024C6E50C43611E8C41E4B259
:1008700000218AE7191C5C462BE5191C5C460F4DCC
:1008800027E5031C3B4300D11CE7011C3C1C20E571
:100890002020404240190A1CC2409046202D0BD017
:1008A0004020451BA9400C43611E8C4145462C430A
:1008B00000216AE70021CBE70021F4E7FF070000F1
:1008C000FFFF7FFFF0B5564644465F464D46F0B405
:1008D0001F1C0B031B0B98464B0087B0041C814662
:1008E0005B0DC80F161C9A460090002B51D06A4B26
:1008F0009A4531D08022414652030A43630FD20009
:100900001A43664B90460025E20091469A44002423
:1009100002953B031B0B9B46FD0F7B00311C5B0DBF
:10092000019560D05C4A934254D0802158464903D7
:100930000143720FC9001143584A8B469B18F100BE
:100940000020009A04436A4003920F2C00D9ADE0C6
:10095000534EA4003459A746404604436ED10021AB
:1009600002250824884689460295D2E7009C029811
:10097000C34649460194022864D0032800D1ABE263
:10098000012800D038E2019A002402400025A14647
:1009900060E0434623434AD04046002800D1C0E1EE
:1009A00001F030FA031E272B00DDB3E128210D1AD8
:1009B000211C083B4246E9409A400D1C1543221C6D
:1009C0009A40A8469146374B00251B1A9A460024A8
:1009D00002959EE75A4616430320002EB1D1B34636
:1009E00000210220ADE75A4632431BD05B46002B64
:1009F00000D18AE1584601F005FA272800DD7DE1A3
:100A00002822171A011C321C08395B46FA408B4019
:100A1000171C1F43331C8B40BB46191C214B1B1A50
:100A200000208EE70027BB460021012089E7002037
:100A3000012504248046814602956AE703250C249B
:100A4000029566E7019C0394039D01222A4000243D
:100A5000114DA146002000212403260B0C0D240576
:100A6000114B34432D0523402B435B005B08D20719
:100A7000191C4846114307B03CBC90469946A24613
:100A8000AB46F0BD0022802424039146024DE1E7ED
:100A900000240025A146DDE7FF07000001FCFFFF61
:100AA000F06C00080DFCFFFFFFFF0F805546ED1AAC
:100AB0000495D84500D953E100D14EE1049C0025AE
:100AC000013C4E4604944746A946584603020C0E84
:100AD0001C430902250C23041B0C0091381C291C03
:100AE0000193FFF71DFB019983464143381C8A4659
:100AF000291CFFF759FB330C090419438A450CD90B
:100B00005B460919013B8C4200D947E18A4500D870
:100B100044E102225242934409195346CB1A181C4D
:100B2000291C9846FFF7FCFA071C0198291C7843FA
:100B300082464046FFF738FB36040B04360C33433D
:100B40009A4509D91B197A1E9C4200D924E19A457D
:100B500000D821E1023F1B195E4632041743380CCE
:100B6000BB46009E009F51463F0C32045B1A59461B
:100B7000BA46120C0F043F0C904651467A434F433D
:100B80004146414356467043CF19160CBE19B14237
:100B900002D980277F02C019310C12043604120CCE
:100BA0004018B618834200D2C4E000D1BEE0191A42
:100BB0004846861BB145BF417F42CF1BA74200D1AB
:100BC00013E1291C381CFFF7ABFA0199029041434D
:100BD000381C8946291CFFF7E7FA330C090419432E
:100BE00089450CD9029B0919013B8C4200D9FFE0D1
:100BF000894500D8FCE0029F0919023F02974F4641
:100C0000CF1B381C291C0597FFF78AFA071C01988F
:100C1000291C784381460598FFF7C6FA3604090473
:100C2000360C0E43B14509D936197B1EB44200D9A2
:100C3000E0E0B14500D8DDE0023F3619029D4946AB
:100C4000761A290439430B0457460A0C1B0C4046FC
:100C50004546584355437B437A43EB18070CDB1951
:100C60009D4202D980256D0252191D0C00041B04FF
:100C7000000C52191B18964235D300D1FCE0012319
:100C80001943049E994FF519002D00DCA1E0480797
:100C900009D00F230B40042B05D00B1D8B4289413B
:100CA00049428B44191C5A46D20107D5904B5C46E9
:100CB000049E80271C40FF00A346F5198D4B9D42E2
:100CC0007ADD039C0122224000248B4DA146C1E61F
:100CD00080242403474627424CD13C432403240B61
:100CE000009A854DB6E63619481EB4425ED9011CFD
:100CF0009642C4D1009E9E42C1D1C2E7031C283B4C
:100D0000311C99408B46002188E6301C01F07AF8AE
:100D1000203072E6283B211C9940002288469146EB
:100D200051E6201C01F06EF820303BE60021B14571
:100D300000D33DE7009F5A46B944B945BF417F42C1
:100D40003F19FB18013A9C421ED2984200D97EE01E
:100D500000D1B5E0191A93462AE7894500D8ADE6D7
:100D60004846464642467708D3074608C0071E4312
:100D70008146AAE65846204212D1044324032A1C85
:100D8000240B89465C4D65E6A342E3D1009F4F45A5
:100D9000DBD9211A93460BE7171CDDE69B46BCE620
:100DA0003C432403240B009A534D53E6B24259D8D6
:100DB00000D18AE0011C62E75F46C9087B07039EF9
:100DC0000B437C026D0501229946240B6D0D3240C8
:100DD00040E64A4B049FDB1B382B10DD039C0122AD
:100DE000224000240025A14634E60121494248E77B
:100DF000029304E71F1C21E7019C039441E71F2B8A
:100E000040DC3F48049F0C1C3A1858469140DC4097
:100E1000904020430A1C511E8A41011C11435A462E
:100E2000DA40131C480709D00F220A40042A05D0D3
:100E30000A1D8A42894149425B18111C1A0234D5A5
:100E4000039C0122224000240125A14602E6009FC6
:100E500002214942B9448B44B945894149420919A3
:100E6000CB18A4E6009D881E6900A942AD416D42E1
:100E70002C19361900913AE7002B00D033E70024F3
:100E8000009437E71F4A049C5D46121BD5402A1C7C
:100E9000202B1FD01C4E5F46A3199F403B1C1943BB
:100EA0004B1E994111430023BCE75A07C9080A4366
:100EB000039F91465B0201221C0B3A400025C9E5C5
:100EC0004E45C4D89346002172E6009F9F42C9D385
:100ED000011C0FE70023E2E7802424035F463C4324
:100EE0002403240B019A8946034DB3E5FF03000058
:100EF000FFFFFFFEFE070000FF07000002FCFFFFF0
:100F00001E040000E2FBFFFF3E040000F0B55F4658
:100F100056464D464446F0B40D1C041C8046E80F6E
:100F2000814618030F03000B3F0B83B084461B4818
:100F3000009749005E00DF0F490D9246760DBB46D3
:100F400081420CD01548864210D00120B14215D004
:100F500003B03CBC90469946A246AB46F0BD009F0C
:100F600001202743F4D10D488642EED1604602436A
:100F70000120002AECD10120B142E9D1009B634558
:100F8000E6D1D045E4D1D94506D00029E0D11C43B3
:100F9000201C441EA041DBE70020D9E7FF0700002A
:100FA000F0B55F4656464D464446F0B4CD0FDE0FD1
:100FB000AC461D032D0BB146374E0F034C00AB461C
:100FC0005D0080463F0B640D92466D0DB44232D0F9
:100FD000314EB54235D0002C0ED13843414241410B
:100FE000081C002D0BD0002919D1CC452DD0654609
:100FF00068420123184318E0002DF6D1281C5946F9
:101000000A4353425341002806D1002BEDD06346DA
:1010100058420123184308E00020002B05D14A461E
:10102000504250414042012318433CBC90469946EF
:10103000A246AB46F0BD3E1C0643C9D0022040424A
:10104000F3E75E461643C6D0F8E7AC4207DC0BDA9E
:10105000614648424841404201231843E5E766465D
:10106000704201231843E0E75F450AD80ED0002004
:101070005F45DAD265466842684140420123184321
:10108000D3E76246504201231843CEE7D045F8D853
:101090000020D045EED3C8E7FF070000F0B5564664
:1010A0004D4644465F46F0B40D1C83B0041C0190CD
:1010B000E80F814618030F03000B3F0B84463548A9
:1010C000009749005E00DF0F490D9246760DB84645
:1010D000814234D02F48864236D0002918D0002EC5
:1010E0001FD1341C67463A4353425341002C1FD052
:1010F0000020002B05D1424650425041404201237E
:10110000184303B03CBC90469946A246AB46F0BD9E
:101110000098044360426041041C002EE2D0002885
:10112000E9D1C14515D04F46784201231843E8E77D
:10113000002BF6D04B46584201231843E1E7009FAD
:1011400002202743DDD1C5E7674602201743D8D1E7
:10115000C3E7B14204DD4A46504201231843D0E7B9
:10116000B14207DB00986045E4D80AD0009F002018
:101170006745C6D24F467842784140420123184322
:10118000BFE7019A5245D5D8019A00205245F1D3C4
:10119000B7E7C046FF070000F0B5564644465F4635
:1011A0004D46F0B41F1C0B031B0B9A464B0087B037
:1011B000041C80465B0DC80F161C02938146002B51
:1011C00068D0694B0299994232D08022534652032B
:1011D0001A43D200630F1A439246644AE00089180A
:1011E00080460291002400253B031B0B9B467800A0
:1011F000FB0F321C400D039300D175E05A4B98420F
:1012000069D08022594652030A43730FD2001A4311
:10121000564B9346C018F200002303994E46714086
:101220001C430F2C00D9A9E0514EA4003459A74605
:1012300053461C4300D087E00025AA46A846082450
:101240000225D1E74946022D6CD0032D00D117E2CB
:10125000012D00D058E10D40EDB20024A946002335
:10126000A0460020002125030A0D1C052D0B1205A8
:10127000404B2A43134023435B004C465B08E20784
:10128000191C4046114307B03CBC90469946A24603
:10129000AB46F0BD5346234350D05346002B00D1FC
:1012A00084E1504600F0AEFD031E272B00DD76E101
:1012B00028210D1A211C083B5246E9409A400D1C7A
:1012C0001543221C9A40AA4690462B4B00241B1A19
:1012D0000293002588E75B461E430323002E9CD122
:1012E000B3460022022398E75B46334321D0584699
:1012F000002800D14EE100F085FD272800DD42E105
:1013000028210F1A021C311C083A5B46F940934011
:101310000F1C1F43331C9340BB461A1C164B181A54
:1013200000237AE701230B4000249946A0460E4B88
:1013300097E70027BB46002201236EE70021042423
:101340008A46884601254FE70C2403254CE70025F3
:101350008024A9462403A846034B82E7DA46904638
:1013600003991D1C6FE7C046FF07000001FCFFFF4B
:10137000306D0008FFFF0F800DFCFFFF029F160C71
:10138000381804904046070C0004000C1204120C9C
:10139000031C5343041C3D1C7443554398463B1C9B
:1013A00073436419A44644460293230C63449D424C
:1013B00004D9029D802464022D1902951D0C039509
:1013C00045462C041B04240C1C1905945C46230C74
:1013D000051C58432404240C8446381C6043654390
:1013E0005F438146CC44280C6044BB46814502D90A
:1013F00080277F02BB442D04070C2D0C00044019EC
:101400005546BC462F04E3448446280C3D0C2F1C53
:101410005743B8462F1C77434243B94647463F0CD3
:101420009144BA46D14446434A4502D980225202E9
:10143000B6184F463A0CB6183A0447463F043F0CDC
:10144000B8462F1C67435D434443584365190190D8
:10145000380C2D184244B846AC4204D90198802378
:101460005B02C0180190039C029F201C6044C019BD
:101470006045A44147466442A4462B043C04994677
:10148000240C4C44A046D8448018C246E244904202
:101490009241574652429146F219E245BF417F427E
:1014A0004B46BC46D845BF41D4187F4263461F43D4
:1014B0002D0C7F19B24292414C45AD4152426D42D2
:1014C0001543019E7D19AB19E20D5B02059F134385
:1014D00042023A439A46531E9A41C30D101C1843C8
:1014E0006402204380465046C0010DD54546012286
:1014F0005646049C6B082A401A43F30701341A43EA
:10150000760804949046B246049E634FF319002B6C
:1015100061DD404640070BD00F2244462240042A9A
:1015200006D04246043242458041404282449046C1
:101530005546ED0107D5594B5646049F80201E4065
:10154000C000B2463B18564A934200DDEAE64446E4
:101550005546E2086807104301226C025B050A4009
:101560008046240B5B0D91467BE6DA4690461D1CB7
:1015700069E680242403574627421CD13C432403B8
:10158000240B484B6DE6031C283B311C99408B46CD
:101590000022C3E6301C00F035FC2030ADE6283BCD
:1015A000211C994000228A4690468EE6201C00F0BD
:1015B00029FC203078E65846204207D1044303999D
:1015C0002403240B89469046364B4AE63C432403C9
:1015D000240B344B45E6344B049E9B1B382B06DD15
:1015E00001230B4000249946A046002339E61F2B17
:1015F00025DC049C2D4D46466019524644468640E3
:10160000DC4082405746301C2243DF40441EA0414C
:1016100002433B1C540709D00F201040042805D07A
:10162000101D9042924152429B18021C1D021AD575
:1016300001230B4000249946A046012311E61C48D3
:10164000049C5546001BC540281C202B16D0194E63
:101650005746A21997403A1C43461A43531E9A41D3
:1016600002430023D6E758075B02D2081C0B012374
:101670000B401043994680460023F2E50022EBE739
:101680008024240350460123044319402403240BDF
:101690008946044BE5E5C046FF030000FFFFFFFE5F
:1016A000FE070000FF07000002FCFFFF1E04000011
:1016B000E2FBFFFF3E040000F8B55F465646444695
:1016C0004D46F0B40C034D00CF0F610A440F214387
:1016D000C4001803DE0F8046B44646465800760A1A
:1016E000530F3343D600D14A6D0DBA46400DB34671
:1016F000904200D1F5E0624601267240944667456B
:1017000000D1ABE02F1A002F00DC11E100283ED100
:101710005846184300D0F1E0600700D197E00F234E
:101720002340042B00D122E1221DA242A4416442A5
:10173000802309191B04012750460B400740141C45
:10174000002B00D179E0B94B01359D4200D10BE16E
:10175000B74BE40819404807490204430B0B00202B
:1017600000211B031A0B0B0D6D051B0513436A08A3
:10177000B04DFF071D4015436D006D08291C39430E
:10178000201C3CBC90469946A246AB46F8BDA748F3
:101790008542C1D0802000040343382F00DDFDE0E6
:1017A0001F2F00DD31E12020C01B1A1C5E46824045
:1017B000FE40324394465A468240101C421E9041DD
:1017C000FB40624602431F1CA21A9442A441644299
:1017D000C91B091B141C0A029ED549024F0A002F7F
:1017E00000D1D6E0381C00F00DFB021C083A1F2A7D
:1017F00000DDC3E02821231C091A9740CB401F437A
:101800009440954200DDC0E0551B691C1F2900DD96
:10181000EAE01F22551B3B1C221CAB40CA40AC40D7
:10182000651EAC411343CF401C43391C002573E7B0
:1018300080217E4D0027C90300247C4B4807E40823
:101840000443C9089D4250D009030B0B87E780234E
:101850001B04012752460B40174071E72A1A944691
:10186000002A00DCA1E0002854D07048854200D155
:1018700052E78020000403436046382800DD0EE173
:101880001F2800DD57E162462020801A1E1C86407A
:10189000B1465E46D6404A4632435E468640904652
:1018A000301C421E9041424602436046C34012191A
:1018B000A242A441644259180919141C080200D418
:1018C0002AE75A4B01359D4200D131E1584B60085F
:1018D0001940012323401C1C0443CB071C43490827
:1018E0001AE71E4300D00AE705E7231C0B433BD051
:1018F00080231B030B431B031B0B30E7013F002F0F
:101900006DD15E46A21B9442A4416442C91A091BD0
:10191000141C60E75846184300D1FDE601267642C4
:10192000B4446046002800D0D0E05E463219BFE7DC
:10193000002F00D080E0681C4005400D012800DC2D
:10194000E8E05A46A21A9442BF41C81A7F42C71B18
:101950003E0200D498E05846041BA3459241591A10
:1019600052428F1AE2463AE700230024F7E680232A
:101970001B04012756460B403740E1E6271C283858
:1019800087400024954200DC3EE72949AD1A3940E2
:10199000C2E6201C00F036FA203026E75A461A43E9
:1019A000531E9A41D2B200270EE7002A00D0DEE093
:1019B000681C4605760D012E00DC90E01B4DA84208
:1019C00000D1F5E05E463219A242A44164425918A2
:1019D0000919CC07520814434908051C9CE6134812
:1019E000854200D0D9E697E62B1C1F3B3E1CDE400B
:1019F000331C20296FD03F22551BAF403C43601E53
:101A000084411C430021002586E6381C20381E1C1A
:101A1000C640301C202F60D04022D71BBB405A4606
:101A20001A43531E9A4102430027CDE6FF070000E8
:101A3000FFFF7FFFFFFF0F80002D37D0B64DA8427C
:101A400000D18FE080252D047F422943382F00DD0F
:101A5000A8E01F2F00DD24E12025ED1B0E1CAE4069
:101A6000B046261CFE404246AC401643651EAC41C3
:101A70003443F9405A46141BA34592415B1A524223
:101A8000991A051CE246A6E6131C3B43141C002BC6
:101A900000D0A4E60027002100250024CDE65A4608
:101AA0001A43531E9A41D2B2002300E70D1C25436E
:101AB00058D0FF43002F51D15A46141BA3459241E1
:101AC000591A5242891A051CE24684E69248854218
:101AD00000D0D1E620E6002790E700239FE7081C0E
:101AE0002043002D00D0C2E0002800D1EFE058468E
:101AF000184300D110E658460219A242A44164429C
:101B000059180919141C0A0200D405E6834B012553
:101B1000194001E6081C2043002D38D100286FD160
:101B20005946194303D0191C5C46E246F4E50027E8
:101B30000021002481E6604620381A1CC240664617
:101B4000101C202E00D1AAE04022921B93405A463E
:101B50001A43531E9A4102430023A8E66E4DA84241
:101B600000D073E7191C5C46051CE246D4E5002D45
:101B700022D10D1C254376D0D543002D70D15C4475
:101B80005C459241591852428918051C96E6002876
:101B90004CD15946194300D14AE6191C5C46E2462D
:101BA0005D4DB9E50C43611E8C41E4B2002161E753
:101BB000051C0021002440E6574DA84253D0554251
:101BC000802216043143382D7BDC1F2D00DD8CE094
:101BD0002022561B0A1CB446B240261CEE4032435B
:101BE000904662469440661EB44142461443E94022
:101BF0005C445C459241CB1852429918051C5DE645
:101C00005846184300D187E55E46A71BBC42924167
:101C1000C81A5242801A060260D55846041BA345D2
:101C20009241591A5242891AE24675E558461843BC
:101C300033D04807E40804438020C9080003014268
:101C400008D0DD08054205D15946CA085C0714438F
:101C5000291CE246630FC9001943E4002E4D5BE5E1
:101C60002D4A9042AFD1191C5C46051C54E5002852
:101C700030D05846184310D080254807E408C908DA
:101C80002D0304432942E5D0D8082842E2D15D461D
:101C9000EA085C071443011CDCE71F4D3CE5002308
:101CA00055E73D1C203D0E1CEE40351C202F2ED04C
:101CB0004026F71BB9400C43611E8C412C43002188
:101CC000D8E60C43611E8C41E4B2002190E7191C58
:101CD0005C4621E5191C5C460F4D1DE5031C3B438A
:101CE00000D124E7011C3C1C16E52026764276191B
:101CF0000A1CF2409046202D0BD04026751BA940AF
:101D00000C43611E8C4145462C43002170E70021A5
:101D1000D1E70021F4E7C046FF070000FFFF7FFF87
:101D200070B50B1C124C09030E0B5900021C490D17
:101D3000DD0F0020A14211DD0E4881420FDC802022
:101D4000400306430C48401A1F280BDD0B4A521A69
:101D5000D640321C5042002D00D1101C70BD084BE3
:101D6000E818FBE7074BC240C9188E403243F1E741
:101D7000FE0300001D0400003304000013040000F3
:101D8000FFFFFF7FEDFBFFFFF8B5041E31D0C70F4B
:101D900000D04442201C00F035F8184D2D1A0A28B6
:101DA00019DD0B38844024036D05240B6D0D3A1C9E
:101DB0000026002000210B0D2403240B1B052343C8
:101DC0000F4C2D051C402C4364006408D307211CD4
:101DD000301C1943F8BD061C1536231CB3401E1CCD
:101DE0000B23181AC44024036D05240B6D0D3A1CF7
:101DF000DFE70022002500240026DAE71E040000A9
:101E0000FFFF0F801C2101231B04984201D3000C0B
:101E100010391B0A984201D3000A08391B0998425D
:101E200001D30009043902A2105C40187047C04673
:101E30000403020201010101000000000000000093
:101E4000F0B55F4656464D464446F0B485B0002393
:101E5000012294466C4CA3466C4EC7E065469D40FB
:101E600001952A4000D1C0E04C68022C01D0122C10
:101E700013D1DC080834A40000942758B94607277A
:101E80001F40BD000F24AC404F46A743B9460F6921
:101E9000AF404C462743009D2F500768B9465C0071
:101EA0000327A740FF4300974D463D40A94603271F
:101EB0004D682F40A7404D462F4307604F68B946F5
:101EC00001256D42AA46CA445746012F04D94D4602
:101ED000112D01D0122D16D187683D1C009F3D4069
:101EE000A946CD68A5404F463D43856045682F1CF7
:101EF000019DAF43BA464F68FF06FF0F4546AF400E
:101F000055463D434560C568009F2F408D68A540FC
:101F10002F43C7604F6880246405274265D05D4623
:101F2000AC6967463C43AC61AC693C400394039C9C
:101F30009C08A246251C0235AC00354D6759032587
:101F40001D40AD000F24AC40A743B9469024E405E2
:101F5000A04219D02F4FB84214D02F4CA0420ED01F
:101F60002E4FB84208D02E4CA04202D10427B846CA
:101F70000CE00524A04609E00327B84606E0022449
:101F8000A04603E0E04601E00027B8464446AC40E6
:101F9000251C4F463D4354460234A4001C4FE551D6
:101FA0003468A046D443454625404F68FF0301D519
:101FB0004546154335607568A84625404F68BF0300
:101FC00001D5454615437560B568A84625404F685C
:101FD000FF0201D545461543B560F5682C404F68B2
:101FE000BF0201D5141C2C43F46001330A689846E3
:101FF000141CDC4000D031E705B03CBC904699464B
:10200000A246AB46F0BDC0460010024000040140AD
:10201000000001400004004800080048000C00488F
:1020200000100048002A01D0816100E08162704701
:10203000F0B54F464646C0B483B0041C0068C007E4
:102040006CD5B74B5B680C221340042B0DD0B44BFE
:102050005B681340082B10D1B14B5B68C022520261
:102060001A4080235B029A4207D1AD4B1B6899034B
:1020700054D56268002A51D162E26368012B06D10F
:10208000A74B1968802252020A431A6022E0002BF3
:1020900009D1A34B1968A34A0A401A601968A24AD9
:1020A0000A401A6016E0052B0BD19D4B196880225F
:1020B000D2020A431A601968802252020A431A6047
:1020C00008E0974B1968974A0A401A601968964ABF
:1020D0000A401A606368002B10D002F019F8071C40
:1020E0008F4E8025AD0205E002F012F8C31B642B71
:1020F00000D927E233682B42F6D00FE002F008F84F
:10210000071C874E8025AD0205E002F001F8C31BD5
:10211000642B00D918E233682B42F6D1206880077F
:1021200057D57F4B5B680C221A420DD07C4B5B6805
:102130001340082B19D17A4B5A68C0235B021A400E
:1021400080231B029A4210D1754B1B68990703D557
:10215000E268012A00D0F9E1714B1A68F8218A433C
:102160002069C1000A431A6033E0E16800291CD0ED
:102170006B4B196801220A431A6001F0C9FF071C62
:10218000674E022505E001F0C3FFC31B022B00D9F7
:10219000DEE133681D42F6D0614B1A68F8218A43AC
:1021A0002069C1000A431A6013E05D4B1A680121DF
:1021B0008A431A6001F0ACFF071C594E022505E066
:1021C00001F0A6FFC31B022B00D9C3E133681D42F7
:1021D000F6D1216809072BD5E269002A14D0504BAB
:1021E000596A01220A435A6201F092FF071C4C4EC1
:1021F000022505E001F08CFFC31B022B00D9ABE1E7
:10220000736A1D42F6D013E0454B5A6A01218A4396
:102210005A6201F07DFF071C414E022505E001F0E6
:1022200077FFC31B022B00D998E1736A1D42F6D1D8
:1022300023685B0700D48FE0394BDB69D8000CD4EE
:10224000374BD969802252051143D961DB691A40A5
:102250000192019B0121884601E000229046334B08
:102260001B68D80515D4314B1968802252000A43E7
:102270001A6001F04DFF071C2C4E80256D0005E013
:1022800001F046FFC31B642B00D969E133682B4280
:10229000F6D0A368012B05D1214B196A01220A430C
:1022A0001A6220E0002B09D11D4B1A6A01218A43D2
:1022B0001A621A6A04218A431A6214E0052B09D1B2
:1022C000174B196A04220A431A62196A01220A4347
:1022D0001A6208E0124B1A6A01218A431A621A6ACA
:1022E00004218A431A62A168002911D001F010FF6D
:1022F00081460B4E02250E4F06E001F009FF4A46CB
:10230000831ABB4200D92DE1336A1D42F5D01BE090
:1023100001F0FEFE8146024E0225054F11E0C04647
:1023200000100240FFFFFEFFFFFFFBFF00700040B8
:102330008813000001F0ECFE4946431ABB4200D965
:1023400012E1336A1D42F5D14246012A04D1934B72
:10235000D969934A0A40DA612368DB064AD5636982
:10236000012B20D18D4B596B04220A435A63596BC0
:1023700001220A435A6301F0CBFE071C874E022557
:1023800005E001F0C5FEC31B022B00D9EEE0736B24
:102390001D42F6D0814B5A6BF8218A43A069C100D7
:1023A0000A435A6326E005330CD17C4B5A6B042157
:1023B0008A435A635A6BF8218A43A069C1000A43D1
:1023C0005A6317E0754B596B04220A435A635A6BE0
:1023D00001218A435A6301F09BFE071C6F4E0225C0
:1023E00005E001F095FEC31B022B00D9C0E0736B22
:1023F0001D42F6D12168890648D5684B5B680C22DE
:1024000013400C2B0BD0654B5B681340082B0FD18E
:10241000624B5A68C0235B021A409A4208D15F4B54
:102420005B6BDA0332D5236A012B00D0A2E02DE0EA
:10243000206A002816D0594B596B802252020A4359
:102440005A6301F065FE071C544E80256D0205E0BD
:1024500001F05EFEC31B022B00D98DE0736B2B4293
:10246000F6D013E04D4B596B4E4A0A405A6301F0C7
:102470004FFE071C494E80256D0204E001F048FE26
:10248000C31B022B7AD8736B2B42F7D1636A002BE4
:1024900076D0424A52680C210A40082A72D0022B98
:1024A00038D13E4B1968404A0A401A6001F030FEAC
:1024B000071C3A4E8025AD0404E001F029FEC31B41
:1024C000022B61D833682B42F7D1344BDA6A0F21E3
:1024D0008A43216B0A43DA625968344A1140E06A40
:1024E000A26A02430A435A601968802252040A43CE
:1024F0001A6001F00DFE061C284D8024A40404E09F
:1025000001F006FE831B022B40D82B682342F7D034
:1025100000203EE0214B1968234A0A401A6001F06E
:10252000F7FD061C1D4D8024A40404E001F0F0FD1D
:10253000831B022B2CD82B682342F7D1002028E0E4
:10254000012026E0032024E0032022E0012020E0F7
:1025500003201EE003201CE003201AE0032018E003
:10256000032016E0032014E0032012E0032010E013
:1025700003200EE001200CE003200AE0032008E025
:10258000002006E0012004E0032002E0032000E038
:10259000032003B00CBC90469946F0BD00100240E9
:1025A000FFFFFFEFFFFFFEFFFFFFFFFEFF7FC2FF0A
:1025B00010B588B01E4C04A8211C102203F0F2F8BC
:1025C000211C10316846102203F0ECF8194B5B68AF
:1025D0000C221A40082A03D00C2A25D0164824E0E1
:1025E0009A02120F04A98C5C124AD26A0F210A4087
:1025F0006846815CC02252021340802252029342FC
:1026000004D10D48FDF78CFD60430EE0C02252025C
:10261000934204D10948FDF783FD604305E0064875
:10262000FDF77EFD604300E0044808B010BDC046E1
:10263000D06C00080010024000127A00006CDC022E
:10264000F8B54F464646C0B4051C0C1C664B1B68CB
:10265000012213408B4209D2634B196891432143F5
:1026600019601B681A40A24200D0A5E029688907BA
:1026700006D55E4B5A68F0218A43A9680A435A601E
:102680002A68D2076FD56B68012B04D1574A1268AC
:10269000910313D492E0022B04D1544A12689101A1
:1026A0000CD48DE0032B04D1504A526BD10305D4D6
:1026B00088E04E4A1268910700D485E04B4A516881
:1026C000032081430B43536001F022FD061C6B681D
:1026D000012B11D105E001F01BFD801B484505D9F8
:1026E00074E0424A90460C27414B994641464B685C
:1026F0003B40042BEFD136E0022B11D105E001F075
:1027000007FD801B484505D962E0384A90460C27F2
:10271000374B994641464B683B40082BEFD122E0AE
:10272000032B17D105E001F0F3FC801B484505D9C8
:1027300050E02E4A90460C272D4B994641464B6857
:102740003B400C2BEFD10EE001F0E2FC801B484532
:1027500005D941E0254A90460C27254B994641462C
:102760004B681F42F0D1204B1B6801221340A3424B
:1027700008D91D4B19689143214319601B681A4001
:10278000A2422BD12A68520706D5184B5968194A1C
:102790000A40E9680A435A60FFF70AFF134B5B6877
:1027A0001B061B0F144AD35CD840144B1860002042
:1027B00001F084FC002012E0012010E001200EE076
:1027C00001200CE001200AE0012008E0032006E0DF
:1027D000032004E0032002E0032000E001200CBC01
:1027E00090469946F8BDC0460020024000100240C5
:1027F00088130000FFF8FFFF706D00080000002044
:10280000014B18687047C046000000207047C04662
:10281000FEE7C0467047C0467047C04608B501F0A5
:102820006FFC01F047FC08BD08B5024801F0B0F9A3
:1028300008BDC046D801002008B5024801F042F8A2
:1028400008BDC0469C040020114B196801221143A9
:10285000196058680F490140596018680E490140D5
:10286000196018680D490140196058680C49014009
:102870005960D96A0F208143D962186B0949014018
:102880001963596B9143596300229A607047C0469F
:10289000001002400CB8FF08FFFFF6FEFFFFFBFF31
:1028A000FFFFC0FF2CFEFCFF00B583B0124B9969FF
:1028B00001221143996199690A400092009AD969ED
:1028C000802252051143D961DB691A400192019BB4
:1028D000052040420021002201F082FB02204042FC
:1028E0000021002201F07CFB012040420021002257
:1028F00001F076FB03B000BD0010024010B582B0BD
:10290000041C134B02689A4211D1124B9969802220
:10291000D202114399619B691A400092009B1620D4
:102920000221002201F05CFB162001F08BFB2268E3
:102930008023DB059A4208D1064BD9690122114355
:10294000D961DB691A400192019B02B010BDC046FB
:10295000004801400010024000B587B002688023A3
:10296000DB059A420CD180231B02019302230293C0
:102970000322049205939020C00501A9FFF760FA95
:1029800007B000BDF0B53C23C35C012B1ED03C2337
:102990000124C4543D220225855405686E687027C1
:1029A000BE436E6005686E680F683E436E600568E2
:1029B000AE688027BE43AE600568AE6849683143A3
:1029C000A96084540022C254002000E00220F0BD1F
:1029D0007047C0467047C04610B50C0607D57F2427
:1029E0002140CC00611A89002831401805E0CC0054
:1029F000611A89000931FF314018002A02D1827220
:102A0000838004E001228272C3801B0C03810020BA
:102A100010BDC04670B5041E53D0EA23FF33C35C1B
:102A2000002B05D10022F4235B00C25401F0E4FD29
:102A30000322EA23FF33E2540023012600210CE0A5
:102A4000DA00D21A9200A218101C283046700370C7
:102A5000C17051639163D163013365689D42EFD8C2
:102A60000023002212E0D900C91A890061188426C7
:102A70007600881942700370C27088267600881923
:102A800042601931FF310A604A600133AB42EAD338
:102A9000402301222068C25200222168CA524421E8
:102AA00026687252502120684252074A2168CA5251
:102AB00024230022E254EA23FF330122E2540020BF
:102AC00000E0012070BDC04600BFFFFF0268582330
:102AD000D05A802109020143D15200207047C046DC
:102AE000F4235B00C35C012B12D00122F4235B00B2
:102AF000C254002904D180224C230168CA5201E04B
:102B00002423C1540022F4235B00C254002000E0BF
:102B10000220704770B5CDB26CB2002C07DA7F246A
:102B20000C40E600341BA4002834041907E07F247D
:102B30000C40E600341BA4000934FF3404197F263E
:102B400031402170ED096570E260E370F4235B00B1
:102B5000C35C012B00D151E10122F4235B00C2547C
:102B6000E378012B27D0002B04D0022B0ED0032BAF
:102B700015D02BE023789B000168CB181988A04A58
:102B80000A40802189000A431A801FE023789B00B5
:102B90000268D31819889A4A0A401A8016E02378E6
:102BA0009B000568EB181988954A0A40C021C900A6
:102BB0000A431A800AE023789B000168CB18198821
:102BC0008F4A0A408021C9000A431A802278930064
:102BD0000568EB181D888B4929400A438A490A4336
:102BE0001A80A37A002B6FD16378002B26D003685C
:102BF0005022995A2278D2008A18D3188021C9000D
:102C00005B18A28801218A431A8023789B000268FE
:102C1000D3181A88550604D57A490A407B490A43D5
:102C20001A8023789B000168CB181988784A0A40DB
:102C300020214A4074490A431A80D9E0036850228F
:102C40009D5A2178C9006918CB18724D5B19A1886B
:102C50000125A94319800368995A2278D2008A185D
:102C6000D3186D495A18E3683E2B0BD9590989B21C
:102C7000DD0601D1013989B2890280231B02194383
:102C8000118007E0590889B2DD0701D5013189B209
:102C90008902118023789B000168CB181A8855049B
:102CA00004D558490A405D490A431A8023789B009D
:102CB0000168CB1819885A4A0A40C02189014A4044
:102CC00051490A431A8093E023789B000268D31885
:102CD0001988544A0A4054490A431A80036850210B
:102CE0005D5A2278D200AA18D3188025ED005B190E
:102CF000E588012295431D8003685D5A2178C9004B
:102D00006918CB1843495B1821899143198063786E
:102D1000002B38D123789B000268D3181A885504F9
:102D200004D538490A403D490A431A8023789B005C
:102D30000168CB181A88550604D532490A40334930
:102D40000A431A8023789B000168CB1819882D4A02
:102D50000A402E490A431A8023789B000268D31840
:102D600019882F4A1140C022920151402F4A114325
:102D7000198023789B000568EB181C8824492140A2
:102D80000A431A8034E023789B000168CB181A8824
:102D9000550404D51B490A4020490A431A80237868
:102DA0009B000168CB181A88550604D515490A40BE
:102DB00016490A431A8023789B000168CB181988AA
:102DC000104A0A4015490A431A8023789B0002687A
:102DD000D31819880E4A1140144A114319802378D8
:102DE0009B000568EB181C880D4921400A431A8096
:102DF0000022F4235B00C254002000E0022070BDDA
:102E00008F89FFFF0F0F000080800000C08000004E
:102E1000BF8FFFFF040400000604000080C0000014
:102E20008FBFFFFF0F0E0000808100008080FFFF3A
:102E300010B5CAB253B2002B07DA7F230B40DC0077
:102E4000E31A9B002833C31807E07F230B40DC0004
:102E5000E31A9B000933FF33C3187F242140197004
:102E6000D2095A70F4225200825C012A00D1ABE0F0
:102E70000121F422520081549A7A002A30D15A78E2
:102E8000002A16D01A78920001688A1811884C0618
:102E900004D54E4C21404E4C214311801B789B00A1
:102EA0000168CB1819884B4A0A404B490A431A80DB
:102EB00084E01A7892000468A21811884C0404D5A2
:102EC000424C2140454C214311801B789B000168F6
:102ED000CB181988424A0A403F490A431A806DE0DC
:102EE0005A78002A35D11A7892000468A2181188FD
:102EF0004C0404D5354C2140384C214311801A78BC
:102F0000920001688A1811884C0604D52F4C214084
:102F10002F4C214311801A78920001688A18148876
:102F20002A4921402A4C21431180197889000268DE
:102F300051180C882A4A14402A4A14430C801B78E2
:102F40009B000468E3181C88224921400A431A8028
:102F500034E01A78920001688A1811884C0404D56C
:102F60001A4C21401D4C214311801A7892000168AF
:102F70008A1811884C0604D5144C2140144C214366
:102F800011801A78920001688A1814880F4921402C
:102F9000124C2143118019788900026851180C885D
:102FA0000C4A14400F4A14430C801B789B000468A1
:102FB000E3181C880A4921400A431A800022F4239E
:102FC0005B00C254002000E0022010BD0F0F000083
:102FD000C0800000BF8FFFFF8080000080C0000025
:102FE0008FBFFFFF8080FFFF30B57F242140CC00E2
:102FF000641AA4000934FF340419226163610023B8
:10300000A36163702170F4235B00C35C012B00D1CA
:10301000A1E00122F4235B00C2546369E268934299
:1030200003D99B1A6361131C01E000226261A27A3A
:10303000002A1FD102685021555A2178C900691809
:103040008A18464952183E2B0BD9590989B2DD0618
:1030500001D1013989B2890280231B0219431180F1
:1030600066E0590889B2DD0701D5013189B28902CC
:1030700011805DE06278002A1FD102685021555A04
:103080002178C90069188A18354952183E2B0BD986
:10309000590989B2DD0601D1013989B28902802539
:1030A0002D022943118014E0590889B2DD0701D5AA
:1030B000013189B2890211800BE0012A09D102682D
:1030C0005021555A2178C90069188A182449521884
:1030D00013806278002A1FD102685021555A217846
:1030E000C90069188A181D4D52193E2B0BD9590970
:1030F00089B2DD0601D1013989B2890280231B0220
:103100001943118014E0590889B2DD0701D5013156
:1031100089B2890211800BE0012A09D1026850218D
:10312000555A2178C90069188A180C495218138019
:1031300023789B000268D31819880A4A0A40C021E4
:1031400089014A4008490A431A800022F4235B009F
:10315000C254002000E0022030BDC046060400003A
:10316000020400008FBFFFFF8080000010B5F42331
:103170005B00C35C012B4AD00122F4235B00C254E4
:10318000CAB253B2002B07DA7F230B40DC00E31AEC
:103190009B002833C31805E0CB005B1A9B00093362
:1031A000FF33C31801249C707F2421401970D20979
:1031B0005A7000290BD18900036859180A88154BE9
:1031C0001340154A5340154A13430B8019E0002A57
:1031D0000BD08900036859180A88114B134010223C
:1031E00053400E4A13430B800BE0890003685918C3
:1031F0000A880C4B1340802252015340074A134364
:103200000B800022F4235B00C254002000E0022067
:1032100010BDC046BFBFFFFF10100000808000003F
:10322000BF8FFFFF8FBFFFFF10B5CAB253B2002B95
:1032300007DA7F230B40DC00E31A9B002833C31816
:1032400005E0CB005B1A9B000933FF33C318002451
:103250009C707F2421401970D2095A70F4225200C8
:10326000825C012A3ED00121F422520081545A7816
:10327000002A18D01A78920001688A1811884C0622
:1032800004D5194C2140194C214311801B789B0017
:103290000168CB181988164A0A4030214A4015495E
:1032A0000A431A8018E01A7892000468A21811885C
:1032B0004C0404D50C4C21400F4C214311801B7849
:1032C0009B000168CB1819880C4A0A40C02189016B
:1032D0004A4008490A431A800022F4235B00C25482
:1032E000002000E0022010BD0F0F0000C080000091
:1032F000BF8FFFFF8080000080C000008FBFFFFFF6
:1033000010B501335B0812188020C000121807E0C6
:103310000C7848780002204310800231013B0232D1
:10332000002BF5D110BDC04670B5051C7F200140B3
:10333000CC00641AA40028342C1922616361002394
:10334000A361012363702170F4235B00EB5C012B0C
:1033500000D1B2E00122F4235B00EA546369E26821
:10336000934203D99B1A6361131C01E0002262613E
:10337000A27A002A11D19EB2A28828682169331C42
:10338000FFF7BEFF2B685022995A2278D2008A1884
:10339000D3184B481B181E807DE02A6821788800CE
:1033A000105A46062CD5607800281DD15020105A9E
:1033B000C90041188A18434812183E2B0BD95909E5
:1033C00089B2DE0601D1013989B28902802000026A
:1033D0000143118012E0590889B2D80701D50131A3
:1033E00089B28902118009E0012807D15020105AC2
:1033F000C90041188A1833495218138022892BE0DA
:10340000607800281DD15020105AC90041188A1830
:103410002B4E92193E2B0BD9590989B2D80601D1EE
:10342000013989B28902802000020143118012E033
:10343000590889B2DE0701D5013189B289021180AC
:1034400009E0012807D15020105AC90041188A18F4
:103450001B4812181380E2889BB228682169FFF785
:103460004FFF6378002B0AD123789B002968CB1883
:103470001988154A0A4015490A431A800BE0012BA6
:1034800009D123789B002A68D31819880E4A0A406C
:103490000F490A431A8023789B002E68F318198875
:1034A0000C4A0A4030214A400B490A431A80002244
:1034B000F4235B00EA54002000E0022070BDC04607
:1034C00002040000060400000F0F0000C08000008E
:1034D00080C00000BF8FFFFF8080000010B55C0837
:1034E00012188020C000121806E010880870000A28
:1034F0004870013C02320231002CF6D1D80701D5C8
:1035000013880B7010BDC046F0B55F4656464D4659
:103510004446F0B483B0041C002201AB1A80442757
:103520006D4606350F208046B3E12E8841460E4099
:1035300000D0AAE02B88DA062BD40288B24B1340C5
:10354000038023685022995A2822A25CD2008A184C
:10355000D318AE4E9B191B889B059B0D2364A06B53
:10356000C318A363201C002101F07EF82423E35C30
:10357000002B00D18DE1E16B002900D089E12423EB
:10358000E15C802211434C222668B1520022E254B1
:103590007FE1028801AB1A801B8819051FD55023D3
:1035A000C25A84235B00E35CDB00D3181B18984AE3
:1035B0009B181B889B059B0D84267600A21993619E
:1035C000F6267600A1199288FFF788FF23681988EC
:1035D000904A0A401A80201C01F02CF859E101ABF6
:1035E0001B881BB2002B00DB53E10288894B134080
:1035F000038020685023C25A84235B00E35CDB0015
:10360000D3181B1882495B181B889B059B0D8426C9
:103610007600A2199361002B08D0161C928831699C
:10362000FFF75CFF3069B16943183361201C00214A
:1036300001F00AF8236850229A5A9B18744E9A197E
:10364000842040002318DB683E2B0BD9590989B22E
:10365000DE0601D1013989B2890280231B02194398
:10366000118007E0590889B2D80701D5013189B224
:103670008902118023681988674A0A40C02189019C
:103680004A4066490A431A8003E1B100894623682B
:103690005A5A01AB1A801B881BB2002B00DB73E067
:1036A000484402885B4B13400380F3009B1B9B0044
:1036B0000933FF331B199A469B7A002B13D12068DC
:1036C0005023C25A51460B78DB00D3181B18504ABE
:1036D0009B181B889B059B0D9B463BD08A880969DC
:1036E000FFF7FCFE36E0206851460B789A00825ABC
:1036F000510412D55022825ADB00D3181B18434ABA
:103700009B181B889B059B0D9B4618D05346DA8857
:1037100019695B46FFF7E2FE11E05022825ADB0096
:10372000D3181B183A495B181B889B059B0D9B46B9
:1037300005D053461A8919695B46FFF7CFFE5046FC
:1037400003789B002168CB181988354A0A4035490F
:103750000A431A8050468269131C5B4483610169E5
:103760000A1C5A4402614369002B02D0C068834599
:1037700005D252461178201C00F066FF04E0504646
:103780000178201CFFF730FC01AB1B88190600D420
:103790007FE0F3009E1BB6002836A6192268131C92
:1037A0004B441988184A0A401A80B37A002B13D167
:1037B00023685022995A3278D2008A18D3181348B5
:1037C0001B181B889B059B0DB36148D0B2882068ED
:1037D0003169FFF795FD42E0236832789100595A2C
:1037E000480621D55021595AD2008A18D3180749C2
:1037F0005B181B889B059B0DB36126D0F28820685F
:103800003169FFF77DFD20E00F8FFFFF020400000C
:10381000060400008F0F00008FBFFFFF80800000B4
:103820000F0F0000C08000005021595AD2008A18A2
:10383000D318204A9B181B889B059B0DB36104D0AD
:10384000328920683169FFF75BFD33789B0020687F
:10385000C3181988184A0A4018490A431A8023686D
:103860005022985A3178CA008218D318144A9B18EB
:103870001A889205920DB26133699A1832617369A0
:10388000002B03D1201C00F0EFFE02E0201CFFF70C
:103890004BFD2068C35B9BB22B801BB2002B00DA70
:1038A00043E6002003B03CBC90469946A246AB4696
:1038B000F0BDC046060400000F0F000080C00000ED
:1038C0000204000038B5041C44230168CB5A1BB223
:1038D000002B01DAFFF718FE236844229A5A51059B
:1038E0000BD54422985A344901409952201C00F0CB
:1038F000D1FE201C0021FFF7F3F8236844229A5AD6
:10390000510404D54422985A2C4901409952236805
:1039100044229A5A910404D54422985A28490140D5
:103920009952236844229A5AD10410D54022995AB8
:10393000042081439952234B21688B52201C00F0B4
:10394000C7FE23684422985A1F49014099522368B0
:1039500044229A5A110516D54422985A1B4901400F
:10396000995221684023CD5A08202843C852216823
:10397000CD5A04202843C85221688B5ADA0402D455
:10398000201C00F093FE236844229A5A910507D523
:103990004422985A0E4901409952201C00F072FEB0
:1039A000236844229A5AD10504D54422985A0949D9
:1039B0000140995238BDC046FFFBFFFFFFBFFFFF2C
:1039C000FFDFFFFF00BDFFFFFFEFFFFFFFF7FFFF80
:1039D000FFFDFFFFFFFEFFFF30B5036A01229343A7
:1039E0000362026A436884697325AC430D682C4303
:1039F0000225AA438D682A43144DA84208D0144DCD
:103A0000A84205D0134DA84202D0134DA84205D1BB
:103A10000825AA43CD682A430425AA430B4DA84292
:103A200008D00B4DA84205D00A4DA84202D00A4D3D
:103A3000A84205D1094D2B404D692B438D692B437D
:103A4000436084614B684363026230BD002C0140D7
:103A5000004001400044014000480140FFFCFFFFDE
:103A600070B5026A194B13400362056A4368C46962
:103A7000732294430A681443154A2A408E6835021B
:103A80002A43144DA84206D1134D2A40CE68350270
:103A90002A43124D2A400F4DA84208D0104DA8428B
:103AA00005D0104DA84202D00F4DA84207D10F4DAE
:103AB0002B404E6935012B438E6935012B43436002
:103AC000C4614B68C363026270BDC046FFFEFFFF66
:103AD000FFFDFFFF002C0140FFF7FFFFFFFBFFFF93
:103AE000004001400044014000480140FFCFFFFF7B
:103AF00070B5026A134B13400362056A4368C469D8
:103B0000114A14400E6832021443104A2A408E684B
:103B100035032A430E4DA84208D00E4DA84205D0C9
:103B20000D4DA84202D00D4DA84204D10C4D2B40A2
:103B30004E69B5012B434360C4614B680364026264
:103B400070BDC046FFEFFFFFFF8CFFFFFFDFFFFFF1
:103B5000002C014000400140004401400048014069
:103B6000FFBFFFFF0368D96801221143D9600368D2
:103B700019680A431A6000207047C0467047C04663
:103B80007047C0467047C0467047C0467047C04641
:103B900010B5041C03681A69910715D5DA689107F6
:103BA00012D5032252421A610123037703689B69ED
:103BB0009A0702D0FFF7E6FF04E0FFF7E1FF201CC1
:103BC000FFF7E2FF0023237723681A69510719D50D
:103BD000DA68510716D5052252421A61022323776B
:103BE00023689A69C0239B001A4203D0201CFFF768
:103BF000C9FF05E0201CFFF7C3FF201CFFF7C4FF2F
:103C00000023237723681A69110717D5DA6811078B
:103C100014D5092252421A61042323772368DB69F1
:103C20009A0703D0201CFFF7ADFF05E0201CFFF72B
:103C3000A7FF201CFFF7A8FF0023237723681A693A
:103C4000D10619D5DA68D10616D5112252421A6169
:103C5000082323772368DA69C0239B001A4203D024
:103C6000201CFFF78FFF05E0201CFFF789FF201CB9
:103C7000FFF78AFF0023237723681A69D10708D545
:103C8000DA68D10705D5022252421A61201C00F0E1
:103C9000D3FA23681A69110608D5DA68110605D522
:103CA000812252421A61201CFEF794FE23681A6991
:103CB000510608D5DA68510605D5412252421A61EB
:103CC000201CFFF763FF23681A69910608D5DA689C
:103CD000910605D5212252421A61201CFEF778FE7A
:103CE00010BDC0460368214A904206D08022D2050A
:103CF000904202D01E4A904203D1702293434A68F8
:103D000013431A4A904212D08022D20590420ED01C
:103D1000174A90420BD0174A904208D0164A904258
:103D200005D0164A904202D0154A904203D1154A56
:103D30001340CA681343802293434A6913430360C4
:103D40008B68C3620A688262084B984208D00A4BAB
:103D5000984205D0094B984202D0094B984201D1B4
:103D60000B690363012343617047C046002C014087
:103D70000004004000200040004001400044014099
:103D800000480140FFFCFFFF38B5041E13D03D235F
:103D9000C35C002B04D100223C23C254FEF7AEFDCD
:103DA0003D2502236355211C01C9FFF79BFF012319
:103DB0006355002000E0012038BDC04638B5041E20
:103DC00013D03D23C35C002B04D100223C23C254FA
:103DD000FFF7D4FE3D2502236355211C01C9FFF7DF
:103DE00081FF01236355002000E0012038BDC0465B
:103DF00070B5036A102293430362026A43688569BF
:103E0000164C2C400E6835022C432025AA438E68A0
:103E100035012A43124DA84206D18025AA43CE6817
:103E200035012A434025AA430D4DA84208D00D4D27
:103E3000A84205D00C4DA84202D00C4DA84207D193
:103E40000B4D2B404E69B5002B438E69B5002B43BB
:103E5000436084614B688363026270BDFF8CFFFF27
:103E6000002C014000400140004401400048014056
:103E7000FFF3FFFF38B5041C0D1C3C23C35C012B72
:103E80006BD001213C23C15402213D23C154042A9B
:103E90001CD002D8002A05D057E0082A2CD00C2AC2
:103EA0003ED052E00068291CFFF796FD236899690F
:103EB00008220A439A6123689A6904218A439A6115
:103EC000236899692A690A439A613EE00068291CBF
:103ED000FFF78EFF23689969802212010A439A61D5
:103EE000236899691E4A0A409A61236899692A6978
:103EF00012020A439A6128E00068291CFFF7B0FD0E
:103F00002368D96908220A43DA612368DA6904213F
:103F10008A43DA612368D9692A690A43DA6114E0BD
:103F20000068291CFFF7E4FD2368D969802212018B
:103F30000A43DA612368D969094A0A40DA612368C9
:103F4000D9692A6912020A43DA6101223D23E25447
:103F500000223C23E254002000E0022038BDC0468D
:103F6000FFFBFFFF10B501248C40036AA3430362EB
:103F7000036A8A40111C1943016210BD10B5041C6C
:103F800000680122FFF7EEFF2368114A93420AD02E
:103F9000104A934209D0104A934208D00F4A9342E4
:103FA00007D1012206E0012204E0012202E0012201
:103FB00000E00022002A04D0596C802212020A4339
:103FC0005A642368196801220A431A60002010BD50
:103FD000002C0140004001400044014000480140E5
:103FE00070B5002816DAC0B20F230340083B9B08C7
:103FF0009B00124A9B185D6803221040C000FF22FC
:10400000141C8440A54389010A408240281C1043A7
:10401000586011E082080A4BC0329200D558032440
:104020002040C000FF24261C8640B54389010C4077
:104030008440281C2043D05070BDC04618ED00E0DD
:1040400000E100E01F23184001238340181C014BAE
:104050001860704700E100E001380A4B98420FD821
:10406000094B5860094A106A0002000AC02109067B
:104070000143116200229A6007221A60002000E0CA
:1040800001207047FFFFFF0010E000E000ED00E0BE
:10409000042805D1054B196804220A431A6004E07C
:1040A000024B1A6804218A431A60704710E000E04E
:1040B0007047C04608B5FFF7FBFF08BD10B5041CEC
:1040C000FEF79EFBFA218900FCF72AF8FFF7C4FFF0
:1040D00001204042211C0022FFF782FF002010BD7A
:1040E00008B5064B196810220A431A600020FFF732
:1040F000E5FFFEF7D9FB002008BDC04600200240C6
:10410000024B1A6801321A607047C046D001002085
:10411000014B18687047C046D001002030B583B00D
:104120000190FFF7F5FF051C019C631C00D00134D2
:10413000FFF7EEFF431BA342FAD303B030BDC046E6
:10414000F0B589B01E4B59698022D20311435961E1
:1041500059690A400092009A5969802292021143DB
:10416000596159690A400192019A59698022D20223
:10417000114359615B691A400292029B9027FF0527
:10418000381CF0210022FDF74DFF0E4E301C01219E
:104190000022FDF747FFF023039301250495002437
:1041A00005940694381C03A9FDF74AFE039504956F
:1041B00005940694301C03A9FDF742FE09B0F0BD3A
:1041C000001002400004004830B58BB0164BD9698E
:1041D00001221143D961DB691A400092009B134C04
:1041E0008023DB05236000256560A560104BE3603C
:1041F00080239B002361201CFFF7E0FD08950995B3
:10420000201C08A9FEF7BEFB70230193094B029303
:1042100003950595201C01A90022FFF72BFE201C09
:10422000FEF79AFB0BB030BD001002401C020020CC
:1042300060EA0000B80B000008B50268024B9A4221
:1042400001D100F0A9F908BD00480140FEE7C046D1
:1042500008B50B480B4B03600B4B43600023836096
:104260002F22C260036143618361FFF78DFD002847
:1042700004D006489221FF31FFF7E8FF08BDC04691
:10428000D801002000480140E7030000806D0008CD
:1042900000B599B030230B9301231393109310238F
:1042A0001193002314930BA8FDF7C2FE002804D03D
:1042B0001C48B0214900FFF7C9FF072307930323D8
:1042C0000893002309930A9307A80121FEF7B8F980
:1042D000002804D013486E21FF31FFF7B7FF802379
:1042E0009B02009300230693684600F06FFC0028B1
:1042F00004D00C487621FF31FFF7A8FFFEF780FAC3
:10430000FA218900FBF70CFFFFF7A6FE0420FFF758
:10431000BFFE0120404200210022FFF761FE19B0DC
:1043200000BDC046806D0008F8B5FFF7D9FEFFF765
:10433000AFFFFFF705FFFFF78BFFFFF745FF88484B
:104340000021FFF71BFE8023DB051A6801218A4349
:104350001A6000F035F900F08BFB002813D1814D75
:10436000FA246400281C08210122FDF75BFE201CB2
:10437000FFF7D4FE281C08210022FDF753FE201C65
:10438000FFF7CCFEEEE7784EFE256D00754C735DB1
:10439000032B09D1734808210122FDF743FE73481E
:1043A000FFF7E0FB724E05E0201C08210022FDF71C
:1043B00039FEECE7FE235B006B4AD35C032B11D084
:1043C000684C201C08210122FDF72CFEC820FFF7B5
:1043D000A5FE201C08210022FDF724FEC820FFF7BF
:1043E0009DFEE7E70022634B1A800023624C614880
:1043F000071C06E05A00125B01888A4200D93A8005
:1044000001330F2BF6DD5B4B198814291BD95B4B4D
:104410001B88994217D0301CFBF782FE584A106067
:104420008023DB05186801210143196000215962CE
:104430001268DA624F4B1A88504B1A80FFF768FEF9
:10444000504B186019E0132903D84C4B1B88994234
:1044500008D1FFF75DFE4B4B1B68C01AFA23DB0047
:1044600098420AD98023DB0500225A62444A126826
:10447000DA621A6801218A431A600020424900F07A
:1044800045FB012896D1404B1B78DA09012A08D157
:104490003E4A137000235370937001223C4B1A70F4
:1044A00088E73B4A1278012A05D1384A5370022224
:1044B000374B1A707EE7022A00D07BE7334A9370AD
:1044C0000321334B197013780F229343902B1CD187
:1044D0002E4F78784538FDF757FC1C4B1A4AFCF7ED
:1044E000F1F9021C0B1C1A481A4901F015FA1A4A74
:1044F0001A4BFCF751FEFBF7A3FE3B780F2213404B
:10450000244A13805B001C4AD052204B1B780F2298
:104510009343802B00D04DE71C4F78784538FDF74A
:1045200033FC0A4B084AFCF7CDF9021C0B1C084867
:10453000084901F0F1F93B780F221A40520000219E
:104540000D4BD15236E7C046000000000000284065
:1045500000000000000000400000000000807B40E0
:104560001C0200200004004878020020D80100202E
:10457000001BB700840100208C010020B001002046
:10458000AC01002088010020D40100201802002086
:10459000B4010020B201002010B5002306490748ED
:1045A00007E0CA5C002A03D09A0014580134145062
:1045B0000133042BF5D910BD700200205C020020ED
:1045C00010B5094C201C0949002200F0BBFB201C3F
:1045D000074900F0D3FB201C064901F075F8201CA8
:1045E00000F0D6FB10BDC046780200200400002079
:1045F000C80000203800002000B583B002680B4BD3
:104600009A4211D10A4BD969802212041143D9610F
:10461000DB691A400192019B1F2001210022FFF754
:10462000DFFC1F20FFF70EFD03B000BD005C004063
:104630000010024008B5011C87239B00C058ED31D3
:10464000FF3100F0C3FB08BD10B587239B00C458A1
:10465000CB005B1A9B00C3181933FF331A68201C68
:1046600000F0EAFB10BDC04610B587239B00C4587C
:10467000CB005B1A9B00C3189A6B201C00F018FC3F
:1046800010BDC04608B587239B00C05800F0AAFCA7
:1046900008BDC04638B5051C8724A4000059012177
:1046A00000F08AFC285900F063FC38BD10B5041CEA
:1046B00087239B00C05800F083FCA369002B04D023
:1046C000024B196906220A431A6110BD00ED00E091
:1046D00008B587239B00C05800F07CFC08BDC0468D
:1046E00038B5041C1F48872292008450882292000B
:1046F000A0501D4A0260082242600221816000220F
:10470000C26001618261C2610262FEF783F9002822
:1047100004D0164897214900FFF798FD8825AD0081
:104720006059002100221823FEF756F960598021B4
:1047300000225823FEF750F9605981210022C0233E
:10474000FEF74AF960590121002288235B00FEF739
:1047500043F960598221002280235B00FEF73CF977
:10476000002038BD9C040020005C00408C6D0008D7
:1047700008B588239B00C058FEF7A8F9002802D08E
:10478000022802D003E0002002E0012000E0022025
:1047900008BDC04610B5141C8822920080581A1C0F
:1047A000231CFEF7B7F9002802D0022802D003E04C
:1047B000002002E0012000E0022010BD08B588239F
:1047C0009B00C058FEF734FB002802D0022802D01C
:1047D00003E0002002E0012000E0022008BDC04606
:1047E00008B588239B00C058FEF7C0FC002802D003
:1047F000022802D003E0002002E0012000E00220B5
:1048000008BDC04608B588239B00C058FEF70CFDC4
:10481000002802D0022802D003E0002002E001209C
:1048200000E0022008BDC04688239B00C2584BB25E
:10483000002B08DA7F231940CB00591A8900511840
:104840002831887808E07F231940CB00591A890065
:1048500051180931FF3188787047C04608B5882360
:104860009B00C058FEF73CF9002802D0022802D075
:1048700003E0002002E0012000E0022008BDC04665
:1048800010B58824A4000059FEF74EFD002802D080
:10489000022802D003E0002002E0012000E0022014
:1048A00010BDC04610B58824A4000059FEF79CFB3B
:1048B000002802D0022802D003E0002002E00120FC
:1048C00000E0022010BDC04612230B800048704754
:1048D0002400002004230B800048704720000020A3
:1048E00008B50A1C002804D10548064900F036FE28
:1048F00003E00348034900F031FE024808BDC0460A
:104900009C6D0008BC06002010B50A1C034C04482E
:10491000211C00F023FE201C10BDC046BC06002058
:10492000B06D000808B50A1C002804D105480649E6
:1049300000F014FE03E00348034900F00FFE0248B4
:1049400008BDC046C06D0008BC06002008B50A1CA2
:10495000002804D10548064900F000FE03E00348A2
:10496000034900F0FBFD024808BDC046D06D0008B9
:10497000BC06002008B50A1C002804D105480649D9
:1049800000F0ECFD03E00348034900F0E7FD0248B6
:1049900008BDC046DC6D0008BC060020F0B54746E7
:1049A00080B400230B4C0C4F80267600A0469C461A
:1049B0000AE02268C55CBD54013222600133B24274
:1049C00002D1624645462A609942F2D8002004BCD2
:1049D0009046F0BDB801002060090020F0B55F46A8
:1049E00056464D464446F0B483B080468A08934606
:1049F0008B0731D100218A462CE05246960043466F
:104A00009A5D13090F210A400F2A03D89200164914
:104A10008A589746002704E0022702E0032700E0B7
:104A2000012700246D4607355A00D3189B000F4A12
:104A3000D21891460AE0331901334146CB5C2B7002
:104A40004846291C00F09AF80134A4B2A742F2D8D3
:104A500001229244D345D0D8002003B03CBC9046FC
:104A60009946A246AB46F0BDEC6D00081009002047
:104A700070B5002480218D000AE0600000198000DC
:104A80001D4A8018291C00F05FF8012830D101343C
:104A9000002CF2D00024194E8025AD0009E0600002
:104AA000001980008019291C00F04EF8012821D13E
:104AB0000134002CF3D000250021114814E0114BE3
:104AC0005955AB00104AD318D970AB015B190C4A89
:104AD00099540B1CAC01641903E0E2188218517060
:104AE00001333F2BF9D90135002DE8D0012002E038
:104AF000002000E0002070BD10090020BC0800204C
:104B0000CC080020C80800201C09002008B543007C
:104B100018188000044BC01800F046F8012801D096
:104B2000002000E0012008BD1009002010B5041C81
:104B30008068002801D000F02BFE002363802380D2
:104B4000A380012010BDC046F8B5041C0F1CFFF760
:104B5000EDFF3D1C381C00F011FEA06000280BD0BA
:104B60000023002603E0A168CA1816700133AB4287
:104B7000F9D3A780012000E00020F8BD10B503881C
:104B80005A1C8488013C1440428894420AD00A7816
:104B90008168CA54028801328388013B1340038034
:104BA000012000E0002010BD028843889A420AD00C
:104BB0008268D35C0B70428801328388013B1340CA
:104BC0004380012000E000207047C046F0B54F460A
:104BD0004646C0B483B0041C0168C90365D5524B76
:104BE000DB69DA000CD4504BD9698022520511439D
:104BF000D961DB691A400192019B0123984601E0CB
:104C000000218846494B1B68DA0514D4474B1968C4
:104C1000802252000A431A60FFF77AFA071C434EBB
:104C200080256D0004E0FFF773FAC31B642B70D876
:104C300033682B42F7D03C4B1A6AC0239B001340C9
:104C400025D0C022920061680A409A421FD0364B9C
:104C50001A6A374911401D6A8020400228431862B1
:104C60001D6A3448284018621962D3070FD5FFF730
:104C70004FFA81462C4E02252F4F05E0FFF748FAE8
:104C80004946431ABB4246D8336A1D42F6D0264BEA
:104C9000196A274A0A4061680A431A624246012A91
:104CA00003D1D969254A0A40DA612368DB0706D5B2
:104CB0001D4B1A6B03218A43A1680A431A632268B9
:104CC000920706D5184B196B1D4A0A40E1680A4342
:104CD0001A632268920606D5134B1A6B10218A4379
:104CE00021690A431A632268920306D50E4B1A6B98
:104CF00080218A43A1690A431A63226852050CD5B0
:104D0000094B1A6B40218A4361690A431A630020E8
:104D100004E0032002E0032000E0002003B00CBC0C
:104D200090469946F0BDC046001002400070004019
:104D3000FFFCFFFFFFFFFEFF88130000FFFFFFEFF8
:104D4000FFFFFCFF10B5002816D085239B00C35839
:104D5000002B03D0002485239B00C450002902D0DF
:104D600084239B00C1500121FE235B00C1540270CB
:104D7000FFF7B6FC002000E0022010BD002904D09F
:104D800085239B00C150002000E002207047C046F0
:104D900008B5FFF7EDFC002008BDC04608B5852327
:104DA0009B00C358002B05D01B689847002803D0F0
:104DB000022002E0022000E0002008BD08B58523A3
:104DC0009B00C3585B689847002008BD38B5041C99
:104DD00082239B00C518281C00F030F90122FA2319
:104DE0005B00E250134BE25AFC235B00E25082234B
:104DF0009B00E15C1F230B40012B09D0002B02D04C
:104E0000022B0AD00EE0201C291C00F0C5FA0EE08F
:104E1000201C291C00F0E4FA09E0201C291C00F0E9
:104E2000FDFA04E07F239943201CFFF7D9FC002002
:104E300038BDC0460E02000010B5041C002928D160
:104E4000FA235B00C358032B2FD1431DFF3399680E
:104E5000DB6899420DD9C91A0530FF3081608B4259
:104E600000D90B1C9BB2201C111C1A1C00F0AEFBBD
:104E70001BE085239B00C3581B69002B05D0FE2235
:104E80005200825C032A00D19847201C00F0A8FB46
:104E90000BE085239B00C3589B69002B05D0FE22A5
:104EA0005200825C032A00D19847002010BDC04602
:104EB00070B5041C00294CD1FA235B00C358022BA7
:104EC0003DD1C369056AAB420DD95D1BC561ADB269
:104ED000111C2A1C00F070FB201C00210022002362
:104EE000FFF7E0FC2BE08669301C291CFBF75CF91E
:104EF000002914D1B54212D8FC235B00E3589E422E
:104F00000DD2201C002200F057FB0022FC235B0086
:104F1000E250201C00210023FFF7C4FC0FE0852392
:104F20009B00E358DB68002B06D0FE225200A25CF7
:104F3000032A01D1201C9847201C00F05DFB802330
:104F40009B00E35C012B10D1002280239B00E254E4
:104F50000BE085239B00C3585B69002B05D0FE2224
:104F60005200825C032A00D19847002070BDC046E1
:104F700038B5041C002100224023FFF70BFC40251C
:104F800088235B00E550201C802100224023FFF78E
:104F900001FC25620122FE235B00E25486239B0074
:104FA000E358002B06D085239B00E3585B682179EA
:104FB000201C9847002038BD017400207047C0466F
:104FC000FE235B00C15CFE22FF3281540422C254E6
:104FD00000207047FE23FF33C25CFE235B00C254F7
:104FE0000020704708B5FE235B00C35C032B06D18D
:104FF00085239B00C358DB69002B00D09847002015
:1050000008BDC046031C002002E00130C0B20133DD
:105010001A78002AF9D1704710B5041C4B88012B6F
:105020000BD1012281239B00C25085239B00C358D2
:105030009B689847201C00F0D3FA10BD0B780370D2
:105040004B7843708A78CB781B02D31843800A7957
:105050004B791B02D31883808A79CB791B02D31832
:10506000C380704710B5041C8021FFF7B9FB201CDA
:105070000021FFF7B5FB10BD30B583B0041C0D1C3B
:105080004A88130A072B00D98FE09B005349CB585D
:105090009F4684239B00C3581B68007C69460631E9
:1050A0009847011C86E0037C002B0AD185239B00D6
:1050B000C3589B6A684606309847011C0223437018
:1050C00078E085239B00C358DB6A68460630984722
:1050D000011C022343706DE0D2B2052A3FD8920032
:1050E0003F4B9B589F4684239B00C3585B68007CC2
:1050F000694606319847011C5CE084239B00C35835
:105100009B68007C694606319847011C52E0842365
:105110009B00C358DB68007C694606319847011C38
:1051200048E084239B00C3581B69007C6946063114
:105130009847011C3EE084239B00C3585B69007CB8
:10514000694606319847011C34E084239B00C3580C
:105150009B69007C694606319847011C2AE0291C9E
:10516000FFF780FF38E0037C002B08D185239B00EC
:10517000C3585B6B684606309847011C1AE0291C2F
:10518000FFF770FF28E0037C002B0AD185239B00EA
:10519000C3581B6B684606309847011C07234370B1
:1051A00008E0291CFFF75EFF16E0201C291CFFF712
:1051B00059FF11E06B4606331B88002B0CD0EA88A0
:1051C000002A09D0181C934200D9101C82B26B46E9
:1051D000D880201C00F0E0F903B030BD2C6E000830
:1051E0004C6E000838B5041C8B88002B22D1CB886C
:1051F000002B1FD18B787F251D40FE235B00C35CF5
:10520000032B02D1FFF72EFF17E0FF235B00C554ED
:10521000291CFFF723FB201C00F0E2F9002D04D02D
:105220000222FE235B00E25407E00122FE235B0022
:10523000E25402E0201CFFF715FF38BD38B5041C0E
:105240000D1C8B78284A1370012B02D9FFF70AFF37
:1052500049E0FE225200825C022A02D0032A18D0C2
:105260003FE0002B12D043600321FE225200815404
:10527000191CFFF793FD022804D1201C291CFFF7FD
:10528000F1FE30E0201C00F0ABF92CE000F0A8F9B2
:1052900029E0002B0BD10221FE22520081544360F1
:1052A000191CFFF78BFD201C00F09AF91BE04168E8
:1052B0008B4213D0C9B2FFF781FD0B4B19786160A7
:1052C000201CFFF76BFD022804D1201C291CFFF7CE
:1052D000C9FE08E0201C00F083F904E000F080F92A
:1052E00001E0FFF7BFFE38BDB501002008B5CB884F
:1052F000012B02D0FFF7B6FE16E0FE235B00C35C75
:10530000022B02D0032B08D00CE000238360011C89
:105310000831012200F040F906E0011D012200F0F1
:105320003BF901E0FFF79EFE08BDC04608B5FE232D
:105330005B00C35C023B012B0ED80123C3608123B9
:105340009B00C358002B01D00323C360011C0C3108
:10535000022200F021F901E0FFF784FE08BDC046FB
:1053600010B5041CFE235B00C35C023B012B0FD86D
:105370004B88012B0ED1002281239B00C250852334
:105380009B00C3589B689847201C00F029F901E056
:10539000FFF768FE10BDC04608B54B78092B18D83A
:1053A0009B000E4AD3589F46FFF766FE13E0FFF7B7
:1053B00019FF10E0FFF742FF0DE0FFF797FF0AE04B
:1053C000FFF7B4FF07E0FFF727FE04E0FFF7C8FF91
:1053D00001E0FFF747FE002008BDC046646E0008EC
:1053E00038B5041C0D1CFE235B00C35C032B11D1DC
:1053F0000B79012B0BD885239B00C3589B689847DA
:10540000EB88002B08D1201C00F0EAF804E0FFF73D
:1054100029FE01E0FFF726FE002038BD38B5051C47
:105420000C1C8A88D1B2237860200340202B07D13E
:1054300085239B00EB589B68281C211C98478AE019
:105440006378012B2ED0002B54D0032B00D082E0A8
:10545000FE235B00EB5C022B02D0032B08D01CE088
:10546000002978D0802976D0281CFFF7B9F972E09E
:105470006388002B06D1002904D0802902D0281C83
:10548000FFF7AEF985239B00EB589B68281C211C75
:105490009847281C00F0A4F85DE0281C211CFFF7A9
:1054A000E1FD58E0FE235B00EB5C022B02D0032BF6
:1054B00008D01AE000294ED080294CD0281CFFF7D4
:1054C0008FF948E06388002B45D14B0609D0281C92
:1054D000FFF798F985239B00EB589B68281C211C3B
:1054E0009847281C00F07CF835E0281C211CFFF7A9
:1054F000B9FD30E0FE235B00EB5C022B02D0032BF6
:1055000006D024E04B0626D0281CFFF769F922E0DC
:10551000130606D57F240C40013424012C190434D1
:1055200005E07F240C40103424012C190434281C7D
:10553000FFF77AF9002802D00123236001E000235D
:105540002360281C211C022200F026F803E0281CFE
:10555000211CFFF787FD002038BDC04670B5041C34
:105560000D1C161C002816D0FFF74CFD431C5B00D9
:105570009BB233802B7003236B700222002107E063
:10558000501CC0B20134AB54421CD2B22818017076
:105590002378002BF4D170BD10B50C1C131C022114
:1055A000FA22520081508361C3610021221CFFF75F
:1055B00067F9002010BDC04610B50C1C131C00215B
:1055C000221CFFF75DF9002010BDC04610B50C1C71
:1055D000131C0021221CFFF765F9002010BDC046F6
:1055E00008B50422FA235B00C250002100220023E8
:1055F000FFF746F9002008BD08B50522FA235B0035
:10560000C250002100220023FFF74CF9002008BD02
:10561000044B1B78012B02D10022024B1A70002090
:105620007047C046BC0100208523038000487047B6
:105630004000002038B5041C87239B00C3588822F3
:1056400092008258C800411A890051182131FF3157
:1056500009881B68054D281C9847201C01212A1C1D
:105660004023FFF71FF9002038BDC0462009002065
:1056700010B5041C0022054B1A608121FFF79EF82B
:10568000201C0121FFF79AF8002010BDC001002066
:1056900010B5041C0A4B1860812102224023FFF739
:1056A00079F8201C012102224023FFF773F8201C07
:1056B0000121044A4023FFF7F5F8002010BDC04641
:1056C000C001002020090020002904D087239B006E
:1056D000C150002000E002207047C0460D488546BA
:1056E000002103E00C4B5B58435004310B480C4B3A
:1056F00042189A42F6D30B4A02E0002313600432A8
:10570000094B9A42F9D3FDF79FF800F011F8FEF724
:105710000BFEFEE7FF3F0020E06E000800000020C7
:105720006801002068010020640A0020FEE70000F4
:1057300070B50E4B0E4D0024ED1AAD101E1CAC4280
:1057400004D0A300F35898470134F8E701F0B4FA05
:10575000084B094D0024ED1AAD101E1CAC4204D0BC
:10576000A300F35898470134F8E770BDD86E0008DD
:10577000D86E0008D86E0008DC6E000808B5034B30
:10578000011C186800F060F808BDC04660010020E8
:1057900008B5034B011C186800F00EF808BDC046A0
:1057A0006001002010B50023934203D0CC5CC454A8
:1057B0000133F9E710BD000030B5002940D00439AD
:1057C0000B68002B00DAC9181E4A1368141C002B42
:1057D00002D14B60116033E099420FD208680A1879
:1057E0009A4205D113685268C01808604A6000E008
:1057F0004B60216024E08A4203D8131C5A68002AB7
:10580000F9D11D685C198C420BD1096869185818C8
:105810001960904214D114685268091919605A60CD
:105820000EE08C4202D90C23036009E008680C18D2
:10583000944203D114685268001908604A605960A4
:1058400030BDC046C801002070B50323CD1C9D4368
:105850000835061C0C2D01D20C2501E0002D3FDB84
:105860008D423DD3204B1C681A1C211C002913D0EB
:105870000868431B0DD40B2B02D90B60CC181EE01B
:105880008C4202D1636813601AE0486860600C1CA7
:1058900016E00C1C4968E9E7144C2068002803D185
:1058A000301C00F025F82060301C291C00F020F886
:1058B000431C15D0C41C03239C4384420AD1256099
:1058C000201C0B300722231D9043C31A0BD05A42D1
:1058D000E25008E0211A301C00F00AF80130EED145
:1058E0000C233360002070BDC8010020C4010020DB
:1058F00038B5074C0023051C081C236001F0BCF9D7
:10590000431C03D12368002B00D02B6038BDC04658
:10591000600A002000000000F0B546464F46C0B4C3
:105920008FB0161C1F1C0090019100F0ADF9BC4A0D
:105930000023D356041C0D1C90460294039501339A
:1059400005D0301C391C01F021F8002806D102983E
:1059500003990FB00CBC90469946F0BD0098019990
:1059600001F014F88146002831D1301C391CA14BBC
:105970009F4AFAF735FC0028E9D001230493A94B8C
:1059800004AC63604B462362009A019BA260E36013
:10599000994A9A4BA261E36142460023D35626619D
:1059A00067615A1C0ED0022B0CD0201C01F01EF88F
:1059B000002800D17BE0236A002B03D001F076F9A8
:1059C000236A0360A269E36902920393BFE7009828
:1059D0000199884B864AFAF703FC002822D0301C34
:1059E000391C844B824AFAF7FBFB051E2CD001239D
:1059F00004938C4B04AC636000232362009A019BE8
:105A0000A260E3607B4B7A4AA261E36142460023D5
:105A1000D35626616761002BC7D0774A774BA261C6
:105A2000E361CFE7201C291C00F0A8FF8146002875
:105A300042D0201C291C6F4B6D4AFAF7D1FB00287D
:105A40006CD10294039582E7301C391C00F096FF5C
:105A5000002800D17BE7301C391C664B644AFAF7FA
:105A6000C5FB002800D172E7012304936D4B04AC01
:105A70006360009A019BA260E36043461978256247
:105A800026616761002900D17AE05D4A5D4BA26121
:105A9000E36102293CD101F009F921230360236A63
:105AA000002B8FD001F002F9226A02608AE701F030
:105AB000FDF8212303607EE70098019900F05EFF66
:105AC0000028B6D0301C391C00F058FF0028B0D098
:105AD000201C291C00F05AFF04AC002855D10123DA
