:020000040800F2
:10000000FF3F0020C13E0008C70A0008C90A0008D7
:1000100000000000000000000000000000000000E0
:10002000000000000000000000000000CB0A0008F3
:100030000000000000000000CD0A0008CF0A000800
:10004000113F0008113F0008113F0008113F000850
:10005000113F0008113F0008113F0008113F000840
:10006000113F0008113F0008113F0008113F000830
:10007000113F0008113F0008113F0008FD0A000869
:10008000113F0008113F0008113F0008DD0A000879
:10009000ED0A0008113F0008113F0008113F000859
:1000A000113F0008113F0008113F0008113F0008F0
:1000B000113F0008113F0008113F00080D0B000818
:1000C000002934D00123002210B488422CD301240B
:1000D0002407A14204D2814202D209011B01F8E7A0
:1000E000E400A14204D2814202D249005B00F8E759
:1000F000884201D3401A1A434C08A04202D3001B85
:100100005C0822438C08A04202D3001B9C082243B7
:10011000CC08A04202D3001BDC082243002803D0F5
:100120001B0901D00909E3E7101C10BC704701B599
:10013000002000F00BF802BD0029F8D003B5FFF74E
:10014000C1FF0EBC4243891A1847C0467047C046DB
:1001500010B5064C2378002B07D1054B002B02D09D
:10016000044800E000BF0123237010BD58010020A7
:1001700000000000803F0008044B10B5002B03D0A6
:100180000349044800E000BF10BDC0460000000065
:100190005C010020803F0008F0B5C64600B582B083
:1001A000002338E0042600E00026AE4035003D4341
:1001B0000234A400574EA551574C25684246D443FB
:1001C0002E0026404A68D20302D5424615432E002F
:1001D000514D2E606D682E0026404A68920302D56C
:1001E000424615432E004C4D6E60AD682E002640F1
:1001F0004A68D20202D5424615432E00464DAE60F3
:10020000ED682C404A68920202D542462A43140007
:10021000414AD46001330A681400DC4076D00125DD
:100220009D402A409046F5D04C68022C01D0122CFB
:100230000ED1DC080834A400275807261E40B6005B
:100240000F22B24097430A69B24016003E4326503F
:1002500002685F0003242600BE40F6433240944605
:100260004A681440BC406246144304604C68621EF5
:10027000012A03D9112C01D0122C10D184683440EA
:10028000A446CC68BC406246144384604468AC43D6
:100290004A681209012515409D4025434560C46800
:1002A00026408C68BC403443C4604A68D200B1D553
:1002B0001A4DAE6901242643AE61AD692C4001940C
:1002C000019C9C08A51CAD00124EAF5903261E4090
:1002D000B5000F26AE40B7439026F605B04200D1D8
:1002E00062E70F4EB0420BD00E4EB0420AD00E4E17
:1002F000B04209D00D4EB04200D153E7052654E775
:10030000012652E7022650E703264EE702B004BC5E
:100310009046F0BD00000140000401400010024082
:100320000004004800080048000C00480010004885
:1003300003690B4201D0012070470020FCE7002A2E
:1003400001D0816170478162FCE7000070B582B026
:1003500004000368DB072BD5B34B5A680C2313400A
:10036000042B1DD0B04B5A680C231340082B0ED021
:100370006368012B41D0002B56D1AB4B1A68AB49B7
:100380000A401A601A68AA490A401A603BE0A64B64
:100390005B68C02252021340802252029342E7D18E
:1003A000A14B1B689B0303D56368002B00D136E289
:1003B00023689B0777D59C4B5B680C221A4262D05E
:1003C000994B5A680C231340082B53D0E368002B39
:1003D00000D18AE0944A136801210B43136002F0B4
:1003E000D1F90500904B1B689B0775D402F0CAF940
:1003F000401B0228F6D9032018E28B4A116880239B
:100400005B020B4313606368002B25D002F0BAF93E
:100410000500854B1B689B03CAD402F0B3F9401B4F
:100420006428F6D9032001E2052B09D07E4B1A6817
:100430007E490A401A601A687D490A401A60E2E75C
:10044000794B19688022D2020A431A601968802207
:1004500052020A431A60D6E702F094F90500724B83
:100460001B689B03A4D502F08DF9401B6428F6D9C4
:100470000320DBE16C4B5B68C022520213408022F8
:1004800012029342A2D1684B1B689B0703D5E36815
:10049000012B00D0C5E164490B68F822934322691F
:1004A000D20013430B6023681B0744D5E369002B7C
:1004B0002ED05D4A536A01210B43536202F062F968
:1004C0000500594B5B6A9B0735D402F05BF9401B72
:1004D0000228F6D90320A9E153490B68F822934377
:1004E0002269D20013430B60DDE74F4A13680121F4
:1004F0008B43136002F046F905004B4B1B689B07CA
:10050000D1D502F03FF9401B0228F6D903208DE136
:10051000454A536A01218B43536202F033F90500C7
:10052000414B5B6A9B0706D502F02CF9401B022861
:10053000F6D903207AE123685B0700D480E03A4BC8
:10054000DB69DB001DD4384AD169802040050143B6
:10055000D161D36903400193019B0125354B1B6891
:10056000DB0510D5A368012B21D0002B36D12E4BF3
:100570001A6A01218A431A621A6A03318A431A628B
:100580001AE00025EAE72B4A116880235B000B4341
:10059000136002F0F7F80600264B1B68DB05E1D478
:1005A00002F0F0F8801B6428F6D903203EE11E4AD1
:1005B000136A01210B431362A368002B24D002F0BD
:1005C000E1F80600184B1B6A9B0737D402F0DAF8F3
:1005D000801B194B9842F5D9032027E1052B09D040
:1005E000114B1A6A01218A431A621A6A03318A433B
:1005F0001A62E1E70C4B1A6A04210A431A621A6A6A
:1006000003390A431A62D7E702F0BCF80600064B2A
:100610001B6A9B0712D502F0B5F8801B064B984267
:10062000F5D9032002E1C04600100240FFFFFEFFA3
:10063000FFFFFBFF0070004088130000012D39D040
:100640002368DB0610D56369012B39D0053357D1F8
:10065000784A536B04218B435363536BF4318B43C0
:10066000A169C9000B43536323689B066DD5714B89
:100670005A680C2313400C2B60D06E4B5A680C2325
:100680001340082B53D0236A002B7CD0694A516B4E
:1006900080235B020B43536302F074F80500654B43
:1006A0005B6BDB0351D402F06DF8401B0228F6D9D6
:1006B0000320BBE05F4AD3695F490B40D361BFE7CA
:1006C0005C4B5A6B04210A435A635A6B03390A4341
:1006D0005A6302F057F80500564B5B6B9B0706D434
:1006E00002F050F8401B0228F6D903209EE0514941
:1006F0004B6BF8229343A269D20013434B63B3E7D9
:100700004C4B5A6B04210A435A635A6B03398A4390
:100710005A6302F037F80500464B5B6B9B07A3D585
:1007200002F030F8401B0228F6D903207EE0414B4E
:100730005B68C022520213409342A4D13D4B5B6BD5
:10074000DB0302D5236A012B6DD1636A002B6CD0C9
:10075000384A51680C220A40082A69D0022B25D059
:10076000344A136835490B40136002F00BF804005B
:10077000304B1B689B0150D502F004F8001B022887
:10078000F6D9032052E02B4A536B2D490B4053639B
:1007900001F0F8FF0500274B5B6BDB03D5D501F0BB
:1007A000F1FF401B0228F6D903203FE0214A1368DD
:1007B00022490B40136001F0E5FF05001D4B1B684B
:1007C0009B0106D501F0DEFF401B0228F6D903206D
:1007D0002CE0184BDA6A0F218A43216B0A43DA6254
:1007E0005A6818490A40E16AA06A01430A435A60FC
:1007F0001968802252040A431A6001F0C3FF040002
:100800000C4B1B689B0106D401F0BCFF001B0228A7
:10081000F6D903200AE0002008E0002006E00120CD
:1008200004E0012002E0012000E0002002B070BDE1
:100830000120FBE700100240FFFFFFEFFFFFFFFE7C
:10084000FFFFFEFFFF7FC2FF30B589B004AA1F4B38
:10085000180032C832C2110002680A606A461033BA
:1008600013CB13C21B681360194B5A680C23134037
:10087000082B04D00C2B26D0164809B030BD910CA3
:100880000F23194004A8445C1149C96A0B4069460A
:10089000C95CC0235B021A4080235B029A4208D0E5
:1008A000C0235B029A4209D00A48FFF709FC604363
:1008B000E3E70848FFF704FC6043DEE70648FFF77C
:1008C000FFFB6043D9E70448D7E7C046983F0008DC
:1008D0000010024000127A00006CDC0270B50400C7
:1008E0000D005A4B1A68012313408B420AD2574914
:1008F0000B68012293432B430B600B681A40AA42FA
:1009000000D09CE023689B0706D5514A5368F0212C
:100910008B43A1680B4353602368DB0764D563688E
:10092000012B09D0022B29D0032B2DD0484A126865
:10093000920706D4012081E0454A1268920300D450
:100940007FE043494A680320824313434B6001F030
:1009500019FF06006368012B1CD0022B28D0032B43
:1009600034D03B4B5B680C221A423DD001F00AFFA9
:10097000801B384B9842F4D903205FE0344A126858
:100980009201DED4012059E0314A526BD203D8D40F
:10099000012053E02E4B5A680C231340042B23D024
:1009A00001F0F0FE801B2B4B9842F3D9032045E069
:1009B000274B5A680C231340082B15D001F0E2FE98
:1009C000801B244B9842F3D9032037E0204B5A6810
:1009D0000C2313400C2B07D001F0D4FE801B1D4BC1
:1009E0009842F3D9032029E0184B1A6801231340D9
:1009F000AB4209D915490B68012293432B430B6085
:100A00000B681A40AA421ED123685B0706D5104A1C
:100A1000536811490B40E1680B435360FFF714FF23
:100A20000B4B5A6812090F2313400C4AD35CD84071
:100A30000B4B1860002001F07AFE002070BD0120F1
:100A4000FCE70120FAE70120F8E7C0460020024059
:100A50000010024088130000FFF8FFFFB83F0008B5
:100A600000000020014B18687047C04600000020BD
:100A7000704710B5041E0ED00379002B07D0022357
:100A800023710023236101332371002010BD4371C2
:100A9000FFF7EEFFF3E70120F8E710B582B000247E
:100AA000019400680190002908D101988218083249
:100AB0000192019A1360002002B010BD01998918BB
:100AC00014310191F5E77047FEE77047704710B5A4
:100AD00001F050FE01F027FE10BD000010B50248E5
:100AE00001F08AFB10BDC046A004002010B50248EA
:100AF00001F082FB10BDC046E003002010B50248A3
:100B000001F07AFB10BDC0463804002010B5024841
:100B100001F002FA10BDC0460407002080B500AF06
:100B20001A4B1A681A4B9A4223D01A4B1A680121A1
:100B30000A431A605A68184802405A601A681748EF
:100B400002401A601A68164802401A605A6815482E
:100B500002405A60DA6A0F208243DA621A6B124846
:100B600002401A635A6B8A435A6300229A60BD4658
:100B700080BD064B0D4A1A600D4B83F308880D4B60
:100B80001B680D4A13609847FEE7C046F03F0020FF
:100B9000EFBEADDE001002400CB8FF08FFFFF6FE0E
:100BA000FFFFFBFFFFFFC0FF2CFEFCFFEDFEFECAB8
:100BB0005022002004C8FF1FD403002000B583B0DA
:100BC000124B996901221143996199690A40009277
:100BD000009ADA69802149050A43DA61DB690B4032
:100BE0000193019B052000220021404201F032FDCB
:100BF000022000220021404201F02CFD01200022B1
:100C00000021404201F026FD03B000BD001002406B
:100C100010B584B004002B4B02689A420ED02A4BC8
:100C200022689A421DD0294B22689A422CD0226811
:100C30008023DB059A423AD004B010BD244A916962
:100C40008020C00201439161936903400093009B9F
:100C500000220221162001F0FDFC162001F02CFDDF
:100C6000DDE71B4AD169802040000143D161D3698F
:100C700003400193019B00220221ED3801F0EAFCC0
:100C8000132001F019FDCEE7114A9169802040023E
:100C900001439161936903400293029B0022022168
:100CA000142001F0D7FC142001F006FDBFE7084A2C
:100CB000D16901231943D161D26913400393039B86
:100CC000BAE7C04600480140002000400040014013
:100CD0000010024000B587B002688023DB059A420D
:100CE00001D007B000BD08230193063B0293032205
:100CF0000492059301A90648FFF74EFA002202214B
:100D00000F2001F0A7FC0F2001F0D6FCE9E7C04658
:100D100000040048F0B53C23C35C012B1ED03C22EC
:100D2000012585543D240223035506687368702706
:100D3000BB437360066873680F683B437360066863
:100D4000B3688027BB43B3600668B36849680B4348
:100D5000B3600555002383540020F0BD0220FCE75A
:100D60007047704710B50C060CD57F242140CC008D
:100D7000611A8C0028340019002A0AD182728380FB
:100D8000002010BDCC00611A8C000934FF3400191A
:100D9000F2E701228272C3801B0C0381F0E700009E
:100DA00070B5041E58D0EA23FF33C35C002B1AD061
:100DB000EA23FF330322E25400226068904219D9EB
:100DC000D100891A8B00E31819002931012008701D
:100DD00001390A7018002B300021017059639963A2
:100DE000D9630132E9E7E933FF330022C25401F04D
:100DF00083FFDDE70022904215D9D100891A8B00CC
:100E0000E3181D000A35FF3500212970013D2A70C5
:100E10000335297009352960043529601D33FF33F6
:100E200019600132E7E7402301222168CA520022FB
:100E30002168CA524421206842520C312068425233
:100E4000064A2168CA5200221C3BE2540122EA23CE
:100E5000FF33E254002070BD0120FCE700BFFFFF1C
:100E6000016858228B5A034803439BB28B520020DF
:100E70007047C0460080FFFFF4235B00C35C012B7A
:100E800013D0F4235B000122C25400290AD19D3BF8
:100E9000FF3B7F320168CA52F4235B000022C25438
:100EA000002070472423C154F6E70220F9E7000030
:100EB000F0B54DB2002D65DB7F240C40E600361BFB
:100EC000B4000934FF3404197F260E402670ED0F5C
:100ED0006570E260E370F4235B00C35C012B00D11A
:100EE00075E1F4235B000122C254E378012B00D1A9
:100EF00074E0002B4ED0022B59D0032B61D0227806
:100F0000930001688C4663441988B24D29400A4316
:100F1000B1490A431A80A37A002B00D0B5E0637868
:100F2000002B00D167E0A28805685023EB5A217896
:100F3000C9005B185B198021C9008C4663440121FC
:100F40008A431A8023789B000268944663441A8877
:100F5000510604D59F490A40A0490A431A802278C5
:100F6000920003689C46624413889D490B402021EF
:100F70004B4099490B431380F4235B000022C25479
:100F80000020F0BD7F240C40E600361BB40028345E
:100F9000041999E723789B000268944663441A88F1
:100FA00090491140802292000A431A80A7E72378D3
:100FB0009B000268944663441A888A490A401A8052
:100FC0009DE723789B000268944663441A8885490C
:100FD0001140C022D2000A431A8090E723789B0078
:100FE0000268944663441A887E4911408022D200E8
:100FF0000A431A8083E7A28805685026AB5B2178F4
:10100000C9005B185B1978498C46634401218A4307
:101010001A8001688B5B2278D2009B185B18734A98
:1010200094466344E1683E2926D94A0992B2C9062A
:1010300001D1013A92B2920292B26D490A431A80EA
:1010400023789B000268944663441A88510404D5AF
:1010500060490A4067490A431A8023789B00026866
:10106000944663441988644A1140C0229201514059
:10107000594A0A431A807FE74A0892B2C90701D544
:10108000013292B292021A80DAE723789B0002685A
:10109000944663441A8859491140594A0A431A80B0
:1010A000E28805685027EB5B2178C9005B185B1963
:1010B0008021C9008C4663440126B2431A802289EC
:1010C0000568EB5B2178C9005B185B1946498C46C3
:1010D0006344B2431A806378002B3DD123789B0090
:1010E0000268944663441A88510404D539490A4079
:1010F00040490A431A8023789B000268944663445F
:101100001A88510604D533490A4034490A431A80E3
:1011100023789B000268944663441A882D49114045
:101120002E4A0A431A802178890003689C4661444C
:101130000B88314A1A40C0239B015340264A13436F
:101140000B8023789B0001688C4663441988244CEB
:1011500021400A431A800FE723789B0002689446D7
:1011600063441A88510404D51A490A4021490A43A4
:101170001A8023789B000268944663441A885106BB
:1011800004D514490A4015490A431A8023789B0064
:101190000268944663441A880E491140154A0A436E
:1011A0001A802178890003689C4661440B880C4AA8
:1011B0001340094A13430B8023789B0001688C4637
:1011C000634419880C4C21400A431A80D4E602205B
:1011D000D7E6C0460F0F00008080FFFFC080FFFFF2
:1011E000BF8FFFFF8F89FFFF04040000060400008B
:1011F0000080FFFF80C0FFFF8FBFFFFF0F0E0000CA
:101200008081FFFF30B54AB2002A3ADB7F230B40D2
:10121000DD00ED1AAB000933FF33C3187F240C4007
:101220001C70D20F5A70F4225200825C012A00D145
:10123000C1E0F4225200012181549A7A002A41D15E
:101240005A78002A25D01A78920001688C466244A8
:1012500011884C0604D5594C2140594C214311802A
:101260001B789B000268944663441A8855491140D4
:10127000554A0A431A80F4235B000022C25400201E
:1012800030BD7F230B40DC00E41AA3002833C318D1
:10129000C4E71A78920001688C46624411884C04B5
:1012A00004D5464C2140494C214311801B789B00BA
:1012B0000268944663441A8845491140424A0A43E9
:1012C0001A80D8E75A78002A3AD11A789200016831
:1012D0008C46624411884C0404D5384C21403B4C68
:1012E000214311801A78920001688C46624411886B
:1012F0004C0604D5314C2140314C214311801A78E1
:10130000920001688C46624411882C4C0C402C4998
:10131000214311801C78A40002689446644422880A
:101320002B490A4028490A4322801B789B00026807
:10133000944663441A88234C2240114319809AE74B
:101340001A78920001688C46624411884C0404D5D6
:101350001A4C21401D4C214311801A7892000168DB
:101360008C46624411884C0604D5144C2140144C20
:10137000214311801A78920001688C4662441188DA
:101380000E4C0C401149214311801C78A4000268C6
:101390009446644422880B490A400B490A43228040
:1013A0001B789B000268944663441A88084C2240CC
:1013B000114319805FE7022062E7C0460F0F00006B
:1013C000C080FFFFBF8FFFFF8080FFFF80C0FFFF57
:1013D0008FBFFFFF70B57F242140CD006D1AAC0098
:1013E000041925001935FF352A6022001D32FF320D
:1013F0001360043200231360173A13700934FF346A
:101400002170E933FF33C35C012B00D1F0E0F423FA
:101410005B000122C254CA00521A9300C3181A007A
:101420001D32FF3214681533FF331A68944247D9CE
:10143000CD006D1AAB00C3181D33FF33A41A1C6016
:10144000CC00641AA300C3181333FF331B78002B9E
:1014500049D104685033E55ACE00761AB300C31858
:101460000933FF331B78DB00EB181B19614CA446D2
:1014700063443E2A2ED95409A4B2D20601D1013CBC
:10148000A4B2A402A4B25C4A14431C80CB00591A33
:101490008B00C3180933FF331B789B000268944606
:1014A00063441988554A1140C02292015140544A60
:1014B0000A431A80F4235B000022C254002070BD4E
:1014C000CA00521A9300C3181D33FF3300221A605A
:1014D0002200B5E75408A4B2D20701D50134A4B262
:1014E000A4021C80D2E7CC00641AA3001C00C3181D
:1014F0000A33FF331B78002B23D105685033EB5A96
:1015000004190934FF342478E4001B195B193D4C9D
:10151000A44663443E2A0BD95409A4B2D50601D18E
:10152000013CA4B2A402A4B2334D2C431C800AE0B7
:101530005408A4B2D50701D50134A4B2A4021C807A
:1015400001E0012B24D0CC00641AA3001C00C318B6
:101550000A33FF331B78002B35D105685033EB5A23
:1015600004190934FF342478E4001B195B19214C59
:10157000A44663443E2A1DD95409A4B2D20601D11F
:10158000013CA4B2A402A4B21B4A14431C807DE710
:1015900005684F33EB5ACE00761AB40004190934AB
:1015A000FF342478E4001B195B19164CA4466344ED
:1015B0001A80C8E75408A4B2D20701D50134A4B2F6
:1015C000A4021C8062E7012B00D05FE705684F335F
:1015D000EB5ACE00761AB40004190934FF3424788B
:1015E000E4001B195B19034CA44663441A804DE7C1
:1015F000022064E7060400000080FFFF8FBFFFFFAA
:101600008080FFFF020400007F231940CB00591A9D
:101610008B00C0182130FF300088704710B5F423CC
:101620005B00C35C012B4DD0F4235B000122C2544C
:101630004CB2002C20DBCA00521A93000933FF334E
:10164000C31801229A707E3211401970E40F5C7049
:1016500000291AD1890003689C4661440A881A4B04
:101660001A401A4B5A401A4B13430B80F4235B0069
:101670000022C254002010BD6A3BFF3B0B40DA0041
:10168000D21A93002833C318DBE7002C0CD0890052
:1016900003689C4661440B880E4A13401022534055
:1016A0000B4A13430B80E1E7890003689C466144C1
:1016B0000A88094B1A4080235B015A40044B1343AC
:1016C0000B80D3E70220D6E7BFBFFFFF101000005A
:1016D0008080FFFFBF8FFFFF8FBFFFFF30B54AB293
:1016E000002A38DBCD006D1AAB000933FF33C31875
:1016F00000249C707F340C401C70D20F5A70F4226E
:101700005200825C012A4AD0F42252000121815405
:101710005A78002A27D01A78920001688C466244D1
:1017200011884C0604D51F4C21401F4C21431180C9
:101730001A78920003689C46624413881B490B4048
:1017400030214B401A490B431380F4235B000022E5
:10175000C254002030BD7F230B40DC00E41AA300FC
:101760002833C318C4E71A78920001688C46624493
:1017700011884C0404D50B4C21400E4C21431180A0
:101780001B789B0002689446634419880A4A1140FA
:10179000C02292015140064A0A431A80D5E702202E
:1017A000D8E7C0460F0F0000C080FFFFBF8FFFFFCC
:1017B0008080FFFF80C0FFFF8FBFFFFF10B50133A8
:1017C0005B0810188022D20094466044002B08D099
:1017D0000C784A781202224302800231013B023027
:1017E000F4E710BDF8B505007F240C40E000001BB5
:1017F0008100080069188A63CB6300230B640B0027
:10180000293301221A7028310C70F4235B00EB5C41
:10181000012B00D1F9E0F4235B00EA542B18DA6BBA
:101820005B6B9A4238D9E000001B81006918D21A1C
:10183000CA63E100091B8A001100AA18323212782B
:10184000002A31D02868E100091B8A00AA18283232
:1018500012789100415A490600D48AE0E600361B0E
:10186000B10069182931097800293BD15031415A1A
:10187000D2008A181018664A944660443E2B28D934
:101880005A0992B2D90601D1013A92B2920292B2A9
:1018900060490A43028027E0E100091B8B00EB1836
:1018A0000021D9631300C4E79FB26E18B28D3B00CC
:1018B000B16B2868FFF782FF2A685023D35A283675
:1018C0003178C9005B189B18534A944663441F80C3
:1018D0002DE05A0892B2D90701D5013292B2920294
:1018E000028001E001293AD0E100091B8A00AA1810
:1018F000128E9BB2E100091B8E00AE19B16B2868F5
:10190000FFF75CFF29363378002B00D06AE0E20055
:10191000121B9300EB1828331B789B002A6894460F
:1019200063441A883D4911403D4A0A431A80E10048
:101930000C1BA300EB1828331A7892002B689C46E6
:101940006244138837490B4030214B4036490B43E2
:101950001380F4235B000022EA540020F8BD4F31CD
:10196000415AD2008A181018294A944660440380CC
:10197000BAE7E600361BB100691829310978002959
:101980001ED15031415AD2008A181018224A94466A
:1019900060443E2B0BD95A0992B2D90601D1013AC3
:1019A00092B2920292B21B490A4302800AE05A089C
:1019B00092B2D90701D5013292B29202028001E0BF
:1019C000012905D0E100091B8A00AA18D28D90E7F1
:1019D0004F31415AD2008A1810180F4A9446604479
:1019E0000380EFE7012BA2D1E200121B9300EB185A
:1019F00028331B789B002A68944663441A88074959
:101A000011400A4A0A431A8091E70220A6E7C0461D
:101A1000060400000080FFFF020400000F0F00001A
:101A2000C080FFFFBF8FFFFF8080FFFF80C0FFFFF0
:101A300010B55C0810188022D20094466044002C37
:101A400007D002880A70120A4A70013C0230023143
:101A5000F5E7DB0701D503880B7010BDF0B583B047
:101A6000050001AB00221A80B5E10388A94A1340A2
:101A7000038029685023CB5A2822AA5CD2009B18E5
:101A80005B18A54A944663441B889B059B0D2B64F9
:101A9000AA6B94466344AB630021280001F065F90A
:101AA0002423EB5C002B00D195E1EB6B002B00D0E5
:101AB00091E12422AB5C802149420B43DBB2CC3163
:101AC000286843520023AB5485E15023C35A842233
:101AD0005200AA5CD2009B181B18904A944663449B
:101AE0001B889B059B0D2A000932FF329361290058
:101AF000ED31FF319288FFF79BFF2A6813888849F0
:101B00000B401380280001F017F964E1140092885B
:101B10002169FFF78DFF2369A2699446634423611D
:101B200095E14B089BB2C90701D501339BB29B02DB
:101B30001380A9E1A700C019028801AB1A801B8895
:101B40001BB2002B31DB01AB1B881B0600D442E12A
:101B50002B689C4667443B886E4A13403B80E200FA
:101B6000121B93001A00EB1832331B78002B00D0A5
:101B7000DCE028685033C35AAA18110028310978CC
:101B8000C9005B181B1864498C4663441B889B057D
:101B90009B0D136400D1F9E0E200121B910069185B
:101BA0008A8D896BFFF70AFEF0E05D4B1A400280D8
:101BB000E200121B93001A00EB181333FF331B785B
:101BC000002B1DD128685033C35A1100AA180932BE
:101BD000FF321278D2009B181B18504A9446634477
:101BE0001E88B605B60D34D06B181A000D32FF32C0
:101BF00012881933FF3319683300FFF719FF28E003
:101C00002868E200121B9300EB180933FF331B789E
:101C10009A00825A520456D55022825ADB00D318B9
:101C20001B183D4A944663441E88B605B60D3BD149
:101C3000E200121B9300EB180933FF331B789B0063
:101C40002A68944663441A8836491140364A0A4342
:101C50001A803100E200121B9300EB1818002130AB
:101C6000FF300268921902601A001932FF321068C0
:101C70008446664416601D33FF331B68002B08D072
:101C8000E200121B900028181530FF3002689142C4
:101C900034D2E200121B9300EB180933FF3319789A
:101CA000280001F053F84EE7E200121B9300EB18F6
:101CB0001A000F32FF3212881933FF3319683300CC
:101CC000FFF7B6FEB4E75022825ADB00D3181B1888
:101CD000124A944663441E88B605B60DA8D0E200A9
:101CE000121B9300EB181A001132FF3212881933BD
:101CF000FF3319683300FFF79BFE99E7E100091BEA
:101D00008A00AA180932FF32117832002800FFF742
:101D100061FB18E70F8FFFFF0204000006040000BC
:101D20008F0F00000F0F0000C080FFFF2868E20047
:101D3000121B9300EB1828331B789A00825A520624
:101D400000D4B2E05022825ADB00D3181B186A4A32
:101D5000944663441B889B059B0DE100091B8A0088
:101D60001100AA181364002B00D098E0E200121BA7
:101D70009300EB1828331B789B002A689446634431
:101D80001A885E4911405E4A0A431A802868502327
:101D9000C25AE100091B8B00EB18190028310978A1
:101DA000C9005218121854498C4662441288920590
:101DB000920D1A64996B8C4662449A63DB6B002B1C
:101DC00000D08CE0E3001C1BA300EB18283319782B
:101DD000280000F0CAFF28684423C35A9BB26A4611
:101DE000D3801BB2002B00DB83E06B46DC880F2323
:101DF0001C4000D09EE66B4606331B88DB0600D4F1
:101E000033E6028801AB1A801B881B0500D55CE60F
:101E100001AB1B881BB2002BDDDA0388394A134063
:101E2000038028685023C35A84225200AA5CD2003F
:101E30009B181B18344A944663441B889B059B0DD2
:101E40002A000932FF329361002B00D05EE60021A8
:101E5000280000F07BFF2B6850229A5A9A182A4BD0
:101E60009C4662442B000933FF33D9683E2900D8D1
:101E700057E64B099BB2C90601D1013B9BB29B02BD
:101E80009BB222490B43138029680A88204B1A40D1
:101E9000C0239B015A401F4B13430B809BE76918DB
:101EA000CA8D896BFFF78AFC60E75022825ADB00FB
:101EB000D3181B18144A944663441B889B059B0D3A
:101EC000E100091B8A001100AA181364002B00D13D
:101ED0004CE769180A8E896BFFF770FC46E7E10052
:101EE0000C1BA1006918283109782800FFF77AFC3B
:101EF00071E7002003B0F0BD020400000F0F0000E6
:101F000080C0FFFF8F0F0000060400000080FFFF6D
:101F10008FBFFFFF8080FFFF70B50400442302687D
:101F2000D35A1BB2002B46DB236844229A5A52052F
:101F300044D4236844229A5A520404D544215A5A5C
:101F4000344802405A52236844229A5A920404D5D3
:101F500044215A5A304802405A52236844229A5A1D
:101F6000D20438D4236844229A5A120513D5442245
:101F7000995A2A480140995220684023C15A08259D
:101F80002943C1522068C15A04252943C1522368FC
:101F90009B5ADB0431D5236844229A5A920530D4E7
:101FA000236844229A5AD20504D544215A5A1C481F
:101FB00002405A5270BDFFF751FDB5E744215A5A0D
:101FC000184802405A52200000F0E3FE0021200091
:101FD000FEF752FFADE74022995A042081439952FF
:101FE000114B21688B52200000F0F2FE2168442240
:101FF0008B5A0E4803408B52B4E7200000F0D6FE07
:10200000C9E744215A5A0A4802405A52200000F0B7
:10201000B9FEC5E7FFBFFFFFFFDFFFFFFFF7FFFFD1
:10202000FFFEFFFFFFFBFFFF00BDFFFFFFEFFFFF16
:10203000FFFDFFFF30B5036A012293430362036A89
:10204000426884697325AC430D682C430225AB4379
:102050008D682B43144DA84208D0144DA84205D0DA
:10206000134DA84202D0134DA84205D10825AB4319
:10207000CD682B430425AB430B4DA84208D00B4D34
:10208000A84205D00A4DA84202D00A4DA84205D167
:10209000094D2A404D692A438D692A434260846173
:1020A0004A684263036230BD002C01400040014099
:1020B0000044014000480140FFFCFFFF70B5036A87
:1020C000194A13400362036A4268C4697325AC432A
:1020D0000E682643154C23408C6824022343144C7D
:1020E000A04219D0124CA04208D0124CA04205D0F8
:1020F000114CA04202D0114CA04207D1104C144008
:102100004A69120122438C6925012A434260C66153
:102110004A68C263036270BD0A4C1C40CB681B0254
:102120002343094C2340DDE7FFFEFFFFFFFDFFFFD8
:10213000002C0140004001400044014000480140A3
:10214000FFCFFFFFFFF7FFFFFFFBFFFF30B5036A85
:10215000134A13400362026A4368C469114D2C405C
:102160000D682D022C43104D15408A6812032A4336
:102170000E4DA84208D00E4DA84205D00D4DA842E4
:1021800002D00D4DA84204D10C4D2B404D69AD013C
:102190002B434360C4614B680364026230BDC04698
:1021A000FFEFFFFFFF8CFFFFFFDFFFFF002C014071
:1021B000004001400044014000480140FFBFFFFFD4
:1021C00010B53D22022383540468236801210B4388
:1021D00023608154002010BD0368DA6801210A439E
:1021E000DA60026813680B43136000207047704781
:1021F000704770477047704710B5040003681A694C
:1022000092070FD5DA6892070CD5032252421A6161
:102210000123037703689B699B0763D0FFF7E9FFFE
:102220000023237723681A69520712D5DA68520708
:102230000FD5052252421A610223237723689A6937
:10224000C0239B001A4253D02000FFF7D2FF002387
:10225000237723681A69120710D5DA6812070DD59B
:10226000092252421A61042323772368DB699B0702
:1022700045D02000FFF7BDFF0023237723681A69AC
:10228000D20612D5DA68D2060FD5112252421A614F
:10229000082323772368DA69C0239B001A4235D0CC
:1022A0002000FFF7A6FF0023237723681A69D207CF
:1022B00002D5DA68D20730D423681A69120602D52B
:1022C000DA68120630D423681A69520602D5DA6831
:1022D000520630D423681A69920602D5DA6892064B
:1022E00030D410BDFFF784FF2000FFF783FF97E78E
:1022F0002000FFF77DFF2000FFF77CFFA7E720000D
:10230000FFF776FF2000FFF775FFB5E72000FFF726
:102310006FFF2000FFF76EFFC5E7022252421A61ED
:10232000200000F0CBFAC7E7812252421A61200058
:10233000FEF717FDC7E7412252421A612000FFF75E
:102340005AFFC7E7212252421A612000FEF708FD1A
:10235000C7E700000368214A904206D08022D205D8
:10236000904202D01E4A904203D1702293434A68A1
:1023700013431A4A904212D08022D20590420ED0C6
:10238000174A90420BD0174A904208D0164A904202
:1023900005D0164A904202D0154A904203D1154A00
:1023A0001340CA681343802293434A69134303606E
:1023B0008B68C3620B688362084B984208D00A4B53
:1023C000984205D0094B984202D0094B984201D15E
:1023D0000B690363012343617047C046002C014031
:1023E0000004004000200040004001400044014043
:1023F00000480140FFFCFFFF70B5041E14D03D23D0
:10240000C35C002B0AD03D2502236355210001C97E
:10241000FFF7A0FF01236355002070BD3C3300226D
:10242000C254FEF7F5FBEEE70120F6E770B50400B5
:102430000E0000281DD03D23C35C002B13D03D258A
:1024400002236355210001C9FFF784FF2268136846
:1024500008218B43136023681968314319600123F5
:102460006355002070BD3C330022C254FFF7BFFE0D
:10247000E5E70120F6E7000070B5036A10229343F8
:102480000362036A42688469174D2C400D682D026F
:1024900025432024A3438C6824012343134CA042EA
:1024A00019D0124CA04208D0114CA04205D0114CBA
:1024B000A04202D0104CA04207D1104C14404A69EF
:1024C000920022438C69A6003243426085614A68CB
:1024D0008263036270BD8024A3431C00CB681B0190
:1024E00023434024A343DCE7FF8CFFFF002C014083
:1024F000004001400044014000480140FFF3FFFF5D
:1025000070B504000D003C23C35C012B69D03C2353
:102510000121C15401330131C154042A37D019D9E2
:10252000082A4AD00C2A2AD129000068FFF70EFE9B
:102530002268D16980231B010B43D3612268D369D0
:1025400029490B40D3612168CB692A6912021343E0
:10255000CB6114E0002A12D129000068FFF76AFD60
:102560002268936908210B439361226893690439B7
:102570008B4393612268936929690B4393613D23DF
:102580000122E254013B0022E254002070BD2900E8
:102590000068FFF771FF2268916980231B010B43DC
:1025A00093612268936910490B40936121688B699C
:1025B0002A69120213438B61E1E729000068FFF7E3
:1025C0007DFD2268D36908210B43D3612268D3695A
:1025D00004398B43D3612268D36929690B43D361E2
:1025E000CDE70220D2E7C046FFFBFFFF10B5012474
:1025F0008C40036AA3430362036A8A401343036265
:1026000010BD000010B50400012200210068FFF792
:10261000EDFF012204212068FFF7E8FF2368094A43
:10262000934208D0084A934205D0084A934202D008
:10263000074A934204D1596C802212020A435A6419
:10264000002010BD002C014000400140004401402A
:102650000048014070B5002811DB8308144DC033D9
:102660009B005C5903221040C000FC3216008640DB
:10267000B44389010A40824014435C5170BDC0B22A
:102680000F230340083B9B0806339B00094A9446EE
:1026900063445D6803242040C000FF22140084408E
:1026A000A54389010A4082402A435A60E6E7C046B2
:1026B00000E100E000ED00E01F2318401E3B8340D6
:1026C000014A13607047C04600E100E001380A4B40
:1026D00098420FD8094A50600948036A1B021B0A36
:1026E000C02109060B430362002393600733136084
:1026F000002070470120FCE7FFFFFF0010E000E032
:1027000000ED00E0042805D0054A136804218B433E
:1027100013607047024A136804210B431360F8E703
:1027200010E000E0704710B5FFF7FCFF10BD10B5DA
:102730000400FEF797F9FA218900FDF7C1FCFFF7C5
:10274000C5FF0120002221004042FFF783FF002047
:1027500010BD000010B5064A136810210B4313602A
:102760000020FFF7E4FFFEF729FA002010BDC04665
:1027700000200240024A1368013313607047C046CC
:10278000D8030020014B18687047C046D8030020CA
:1027900030B583B00190FFF7F5FF0500019C631C85
:1027A00000D00134FFF7EEFF401BA042FAD303B084
:1027B00030BD000030B589B0184B59698020C00386
:1027C000014359615A6902400092009A5969802078
:1027D0008002014359615A6902400192019A5A6983
:1027E0008021C9020A435A615B690B400293029B34
:1027F00084252D029024E405002229002000FDF705
:102800009EFD03950123049300230593069303A9DA
:102810002000FDF7C1FC09B030BDC04600100240E9
:1028200070B58AB0194BDA6901263243DA61DB6987
:1028300033400093009B164C8023DB05236000256A
:102840006560A560C8231B01E36080239B002361B2
:102850002000FFF7D1FD0895099508A92000FEF793
:1028600059FA6023019302965E3B03930595042277
:1028700001A92000FFF744FE08212000FFF7D6FD44
:102880002000FEF727FA0AB070BDC04600100240D3
:1028900038040020054B064A1A60BFF34F8F054BE2
:1028A000054ADA60BFF34F8FC046FDE7F03F0020D6
:1028B000EFBEADDE00ED00E00400FA0510B5040047
:1028C000164B02689A4204D02268154B9A4212D0E5
:1028D00010BD8023DB055B6A002BF5D1114B186816
:1028E0000521FDF7EDFB8023DB05D8621A68012185
:1028F0000A431A60E8E78023DB055B6A002BE7D117
:10290000094B18680A21FDF7DBFB8023DB05D86241
:102910001A6801210A431A60DAE7C0460020004025
:10292000004001407401002078010020FEE7000013
:1029300000B583B00E480F4B0360FEF79AF80028ED
:102940000BD100230093019300226946084800F050
:10295000A5FC002806D103B000BDEB2149000648C4
:10296000FFF7E4FFE021FF310348FFF7DFFFC04638
:102970002404002000740040C83F000810B50C4833
:102980000C4B03600B23436000238360FA22920008
:10299000C260E93AFF3A026143618361FFF72CFDAF
:1029A000002800D110BD9C21FF310348FFF7BEFF76
:1029B000A004002000200040C83F000810B50C48CB
:1029C0000C4B03600B23436000238360FA229200C8
:1029D000C260E93AFF3A026143618361FFF70CFD8F
:1029E000002800D110BDAC21FF310348FFF79EFF46
:1029F000E003002000400140C83F000800B599B046
:102A000030230B932F3B139310930F331193002319
:102A100014930BA8FDF79AFC002829D107230793EC
:102A2000043B0893002309930A93012107A8FDF7AB
:102A300055FF002821D180239B0200930023069399
:102A4000684600F07FFB00281CD1FEF70BF8FA2146
:102A50008900FDF735FBFFF739FE0420FFF752FE32
:102A60000120002200214042FFF7F4FD19B000BD13
:102A7000B52149000648FFF759FF7821FF31044886
:102A8000FFF754FF8021FF310148FFF74FFFC04699
:102A9000C83F000810B5FFF75DFEFFF7AFFFFFF777
:102AA00089FEFFF745FF754C0021200000F014FC63
:102AB00080231B01002200212000FDF7EEFFFFF71D
:102AC0005DFF6F48FFF788FB6E4A13680124A3433C
:102AD0001360FFF773FF6C48FFF77EFB6B4A1368C8
:102AE000A3431360FFF79CFE694C2000FFF768FBCF
:102AF00004212000FFF786FD00F0E2F86EE0FFF70A
:102B0000C9FE644909888A4201D962490A800133B1
:102B10000F2B0BDC5A006049525A604909888A42DF
:102B2000EFD95C4801805D490A80F0E75B4B19886A
:102B3000142903D95A4B1B88994214D113292ED832
:102B4000574B1B8899422AD04E4A136801218B4368
:102B50001360544B00221A607F319020C900C005D9
:102B6000FDF7EDFB1BE05048FDF7AAFA4D4B18604E
:102B7000444B00225A62D8621A6801210A431A6043
:102B8000464B1A88464B1A80FFF7FCFD474B1860EE
:102B9000802190200122C900C005FDF7D0FB3D4BEC
:102BA0001988142903D9424B1B88994236D113291D
:102BB0000BD83F4B1B88994207D0344A1368012138
:102BC0008B4313603B4B00221A60FFF7DBFD374B52
:102BD0001B68C01AFA239B00984235D8364C28222D
:102BE0002021200001F0C3F909223449200001F01E
:102BF000B5F92821200000F023FAC820FFF7C8FD0E
:102C000090208021C005FDF793FB002800D076E7D7
:102C10000023224A13801F4A138079E72248FDF7D8
:102C20004FFA244B1860194B00225A62D8621A6876
:102C300001210A431A60174B1A881D4B1A80FFF7AF
:102C4000A1FD1A4B1860C0E70E4A136801218B439F
:102C500013600E4A13688B43136000230F2B05DCAF
:102C600059000D4A002088520133F7E78021902057
:102C70000022C900C005FDF762FBAFE72404002075
:102C8000A004002000200040E0030020004001409C
:102C9000380400207E010020800100207C010020FB
:102CA000A00100207401002040420F00A401002078
:102CB000A20100207801002078040020D43F000801
:102CC00010B5094C00220949200000F033FB0849E7
:102CD000200000F04BFB0749200001F09BF820008A
:102CE00000F04DFB10BDC046E004002014000020A1
:102CF000480000200400002000B583B002680C4B9F
:102D00009A4201D003B000BD0A4AD1698020000474
:102D10000143D161D36903400193019B002201214A
:102D20001F20FFF797FC1F20FFF7C6FCEAE7C0460D
:102D3000005C00400010024010B5010087239B009A
:102D4000C058ED31FF3100F037FB10BD10B5030066
:102D5000872292008058CA00521A94001B19193316
:102D6000FF331A6800F05CFB10BD10B5030087222A
:102D700092008058CA00521A94001B199A6B00F0F6
:102D80008CFB10BD10B587239B00C05800F01FFCC2
:102D900010BD70B505008724A4000121005900F082
:102DA00001FC285900F0DBFB70BD000010B50400E9
:102DB00087239B00C05800F0F8FBA369002B04D0C8
:102DC000024A136906210B43136110BD00ED00E0B8
:102DD00010B587239B00C05800F0F2FB10BD000027
:102DE00070B504001F4887239B00C4500433E05093
:102DF0001D4B036008234360022282600023C360EE
:102E000002618361C3610362FDF7CAFF002823D119
:102E10008825AD001823002200216059FDF7A2FF8C
:102E20005823002280216059FDF79CFFC023002217
:102E300081216059FDF796FF88235B000022012164
:102E40006059FDF78FFF605980235B0000228221CB
:102E5000FDF788FF002070BD972149000348FFF768
:102E600065FDD5E704070020005C0040E03F000856
:102E700010B588239B00C058FDF7F2FF012806D04B
:102E800043B2002B02D0022803D0022010BD022042
:102E9000FCE70120FAE710B514001A0088239B0014
:102EA000C0582300FEF704F8012806D043B2002BD7
:102EB00002D0022803D0022010BD0220FCE701202E
:102EC000FAE710B588239B00C058FEF79BF901284C
:102ED00006D043B2002B02D0022803D0022010BD3E
:102EE0000220FCE70120FAE710B588239B00C058B8
:102EF000FEF794FB012806D043B2002B02D0022833
:102F000003D0022010BD0220FCE70120FAE710B533
:102F100088239B00C058FEF7E1FB012806D043B28E
:102F2000002B02D0022803D0022010BD0220FCE7B3
:102F30000120FAE788239B00C3584AB2002A09DB24
:102F40007F221140CA00511A8A009B180B33FF33AD
:102F5000187870477F221140CA00511A8A009B18C6
:102F60002A331878F5E710B588239B00C058FDF781
:102F700083FF012806D043B2002B02D0022803D0E1
:102F8000022010BD0220FCE70120FAE710B58824DA
:102F9000A4000059FEF726FC012806D043B2002BFE
:102FA00002D0022803D0022010BD0220FCE701203D
:102FB000FAE710B58824A4000059FEF70BFA01289F
:102FC00006D043B2002B02D0022803D0022010BD4D
:102FD0000220FCE70120FAE710B588239B00C058C7
:102FE000FEF712FB10BD000000487047A80100204A
:102FF00070470020704700207047000010B50100A6
:10300000044C200000F01AFF200000F03BFF0020DD
:1030100010BDC046E004002010B5064C0022064951
:10302000200000F000FF0549200000F007FF00200D
:1030300010BDC046E0040020180B00202409002029
:1030400010B50A4C86239B00E458043BE358002B40
:1030500001D0012010BD054C0A000100200000F045
:10306000E2FE200000F0F1FEF4E7C046E00400209C
:1030700012230B80004870473000002004230B808F
:10308000004870474400002010B50A00002805D110
:103090000549064800F049FD034810BD02490348B0
:1030A00000F043FDF8E7C0460C0D0020204000086A
:1030B00010B50A00034C2100034800F036FD200043
:1030C00010BDC0460C0D00200C40000810B50A00D1
:1030D000002805D10549064800F027FD034810BD2A
:1030E0000249034800F021FDF8E7C0460C0D00201E
:1030F0003440000810B50A00002805D105490648EB
:1031000000F013FD034810BD0249034800F00DFD17
:10311000F8E7C0460C0D0020F03F000810B50A008B
:10312000002805D10549064800F0FFFC034810BD02
:103130000249034800F0F9FCF8E7C0460C0D0020F6
:10314000FC3F000870B582B004000368DB0335D58E
:103150004B4BDB69DB0066D4494AD16980204005CE
:103160000143D161D36903400193019B0125454B84
:103170001B68DB0559D5424B1B6AC02292001340E5
:1031800013D061680A409A420FD03D4B186A3E4AFC
:1031900002401E6A8021490231431962196A3B4E7E
:1031A000314019621A62C30753D4354A136A36494B
:1031B0000B4061680B431362012D59D02368DB0774
:1031C00006D52F4A136B03218B43A1680B4313636E
:1031D00023689B0706D52A4A136B2D490B40E168EB
:1031E0000B43136323689B0606D5254A136B1021F6
:1031F0008B4321690B43136323689B0306D5204A45
:10320000136B80218B43A1690B43136323685B0518
:1032100033D51B4A136B40218B4361690B43136306
:10322000002002B070BD0025A1E7164A1168802376
:103230005B000B431360FFF7A5FA0600114B1B68F8
:10324000DB0598D4FFF79EFA801B6428F6D903208B
:10325000E7E7FFF797FA0600094B1B6A9B07A4D420
:10326000FFF790FA801B0B4B9842F5D90320D8E763
:10327000D36909490B40D361A0E70020D1E7C046DC
:103280000010024000700040FFFCFFFFFFFFFEFF48
:10329000FFFFFCFF88130000FFFFFFEF70B54379CD
:1032A000012B14D001254571022303710668336890
:1032B000084C9440A3431C000B6849680B4393409F
:1032C00023433360057100234371002070BD022049
:1032D000FCE7C046FE0F000010B54379012B27D054
:1032E0000123437102220271046822688B40134358
:1032F0002360002910D1026811683C230B403C2B4D
:1033000005D00123037100234371002010BD5368D1
:1033100001210B435360F4E701680B68F02292032C
:1033200013409342EDD14B68022213434B60E8E710
:103330000220EBE710B5002816D085239B00C35868
:10334000002B03D085239B000024C450002902D009
:1033500084239B00C150FE235B000121C1540270F5
:10336000FFF73EFD002010BD0220FCE7002904D03D
:1033700085239B00C150002070470220FCE710B558
:10338000FFF776FD002010BD10B585239B00C358C4
:10339000002B06D01B689847002800D110BD0220E2
:1033A000FCE70220FAE710B585239B00C3585B6851
:1033B0009847002010BD000070B5040082239B00D8
:1033C000C518280000F02FF9FA235B000122E25013
:1033D000124BE25A163BE2501033E15CEA3BFF3BF2
:1033E0000B40012B0FD0002B07D0022B10D07F23D6
:1033F00099432000FFF778FD03E02900200000F04A
:10340000B5FA002070BD2900200000F0D3FAF8E7DB
:103410002900200000F0ECFAF3E7C0460E0200009D
:1034200010B50400130000292AD1FA225200825854
:10343000032A01D0002010BD421DFF329168D268DE
:1034400091420ED885239B00C3581B69002B04D0E2
:10345000FE225200825C032A10D0200000F0B1FB53
:10346000E8E7891A0530FF3081608A4200D90A00F6
:1034700092B21900200000F09CFBDBE79847ECE7D4
:1034800085239B00C3589B69002BD3D0FE2252009A
:10349000825C032ACED19847CCE770B504001300B4
:1034A00000294FD1FA2252008258022A06D08023E6
:1034B0009B00E35C012B40D0002070BDC269056A0F
:1034C000AA421CD8866929003000FCF735FE002985
:1034D00006D1B54204D8FC235B00E3589E421BD3BF
:1034E00085239B00E358DB68002B04D0FE225200AA
:1034F000A25C032A1ED0200000F06FFBD7E7521B0E
:10350000C26192B2190000F03CFB002300220021AE
:103510002000FFF74EFDCAE70022200000F031FB3B
:10352000FC235B000022E250002300212000FFF773
:1035300040FDBCE720009847DDE780239B00002288
:10354000E254B9E785239B00C3585B69002BB3D0D5
:10355000FE225200825C032AAED19847ACE770B5D8
:103560000400402300220021FFF795FC402588231A
:103570005B00E550D03B002280212000FFF78BFC50
:103580002562FE235B000122E2541C33E358002B2A
:1035900006D085239B00E3585B682179200098477B
:1035A000002070BD017400207047FE235B00C15CE9
:1035B000FE22FF328154FA3AFF3AC254002070478B
:1035C000FE23FF33C25C013BC2540020704710B59C
:1035D000FE235B00C35C032B01D0002010BD8523BC
:1035E0009B00C358DB69002BF7D09847F5E7030031
:1035F00000201A78002A03D00130C0B20133F8E766
:10360000704710B504004B88012B00D010BD8123FA
:103610009B000122C2501033C3589B68984720007A
:1036200000F0CFFAF2E70B7803704B7843708B7899
:10363000CA7812029B1843800B794A7912029B18B0
:1036400083808B79CA7912029B18C380704710B5AA
:1036500004008021FFF748FC00212000FFF744FC14
:1036600010BD000030B583B004000D004A88130A75
:10367000072B00D98EE09B004F49CB589F468423EF
:103680009B00C3581B68007C6A46911D98476B4697
:1036900006331B88002B03D0EA88002A00D07EE086
:1036A00003B030BD037C002B09D185239B00C35898
:1036B0009B6A6A46901D984702234370E7E785237B
:1036C0009B00C358DB6A6A46901D984702234370EB
:1036D000DDE7D2B2052A39D89200384B9B589F4675
:1036E00084239B00C3585B68007C6A46911D984701
:1036F000CDE784239B00C3589B68007C6A46911DDC
:103700009847C4E784239B00C358DB68007C6A4663
:10371000911D9847BBE784239B00C3581B69007C1D
:103720006A46911D9847B2E784239B00C3585B69A2
:10373000007C6A46911D9847A9E784239B00C358E3
:103740009B69007C6A46911D9847A0E72900FFF716
:103750007EFFA5E7037C002B07D185239B00C35880
:103760005B6B6A46901D984791E72900FFF76FFF52
:1037700096E7037C002B09D185239B00C3581B6B64
:103780006A46901D98470723437080E72900FFF79A
:103790005EFF85E729002000FFF759FF80E7191C2D
:1037A000934200D9111C8AB26B46D98001002000D7
:1037B00000F0D9F974E7C0464440000864400008AE
:1037C00070B504008B88002B22D1CB88002B1FD131
:1037D0008B787F251D40FE235B00C35C032B0FD03D
:1037E000FF235B00C5542900FFF7BDFB200000F05C
:1037F000E8F9002D07D0FE235B000222E2540AE024
:10380000FFF725FF07E0FE235B000122E25402E000
:103810002000FFF71CFF70BD70B504000D00897813
:10382000284B197001290AD8FE235B00C35C022BC8
:1038300009D0032B1ED02900FFF709FF02E0290061
:10384000FFF705FF70BD002911D04160FE235B002A
:103850000322C254FFF798FD022803D0200000F095
:10386000B0F9EFE729002000FFF7F1FEEAE700F0EA
:10387000A8F9E7E7002911D0436899421ED0D9B2D0
:10388000FFF791FD0F4B197861602000FFF77CFD79
:1038900002280ED0200000F094F9D3E7FE235B004D
:1038A0000222C2544160FFF77EFD200000F089F93A
:1038B000C8E729002000FFF7CAFEC3E700F081F93E
:1038C000C0E7C046D003002010B5CB88012B09D13A
:1038D000FE235B00C35C022B07D0032B0DD0FFF748
:1038E000B6FE01E0FFF7B3FE10BD002383600100C8
:1038F0000831012200F037F9F6E7011D012200F03E
:1039000032F9F1E710B5FE235B00C35C023B012BEB
:103910000ED80123C36081239B00C358002B01D024
:103920000323C36001000C31022200F01CF910BD1A
:10393000FFF78DFEFBE710B50400FE235B00C35CC0
:10394000023B012B0ED84B88012B0DD181239B000C
:103950000022C2501033C3589B689847200000F0E3
:1039600030F901E0FFF773FE10BD000010B54B7891
:10397000092B19D89B000E4AD3589F46FFF772FEB9
:10398000002010BDFFF71CFFFAE7FFF745FFF7E740
:10399000FFF79AFFF4E7FFF7B5FFF1E7FFF731FE16
:1039A000EEE7FFF7C8FFEBE7FFF751FEE8E7C04699
:1039B0007C40000870B504000D00FE235B00C35C72
:1039C000032B11D10B79012B0BD885239B00C358F6
:1039D0009B689847EB88002B08D1200000F0F1F895
:1039E00004E0FFF734FE01E0FFF731FE002070BD78
:1039F00070B505000C008A88D1B22078602303409E
:103A0000202B12D06378012B36D0002B5CD0032BF7
:103A100012D1FA33FF33EB5C022B0FD0032B15D0FE
:103A200021002800FFF713FE06E0F533FF33EB58C3
:103A30009B68210028009847002070BD0029FBD01A
:103A40008029F9D02800FFF74FFAF5E76388002BAB
:103A500003D1002901D080290AD185239B00EB588E
:103A60009B68210028009847280000F0AAF8E3E7A7
:103A70002800FFF739FAF0E7FE235B00EB5C022B2E
:103A800006D0032B0CD021002800FFF7E0FDD3E780
:103A90000029D1D08029CFD02800FFF725FACBE725
:103AA0006388002BC8D14B0603D1280000F089F8A9
:103AB000C2E72800FFF72BFA85239B00EB589B6891
:103AC000210028009847F0E7FE235B00EB5C022B07
:103AD00006D0032B0AD021002800FFF7B8FDABE782
:103AE0004B06A9D02800FFF7FFF9A5E7130612D46B
:103AF0007F240C40103424012C1904342800FFF7D3
:103B000019FA00280ED00123236002222100280088
:103B100000F029F890E77F240C40013424012C198F
:103B20000434EBE700232360EFE770B504000D00D9
:103B30001600002816D0FFF75AFD431C5B009BB20D
:103B400033802B7003236B70013B2178002909D04F
:103B500001345A1CD2B2E9540233DBB2AA18002154
:103B60001170F2E770BD10B51300FA225200022462
:103B700084508361C3610A000021FFF707FA002027
:103B800010BD10B513000A000021FFF7FFF9002057
:103B900010BD10B51300FA22520003248450EC3AF1
:103BA0008350043283500A000021FFF702FA0020FC
:103BB00010BD10B513000A000021FFF7FAF900202C
:103BC00010BD10B5FA235B000422C250002300226E
:103BD0000021FFF7DBF9002010BD10B5FA235B00D0
:103BE0000522C250002300220021FFF7E2F9002045
:103BF00010BD86239B00C358002B05D08522920060
:103C000000219950002070470220FCE710B5862360
:103C10009B00C4580433C358002B0DD0802292005F
:103C2000A05CFF2808D09B68044AA25C210098474A
:103C300080239B00FF22E254002010BD01020000FF
:103C40004323038000487047800000204323038003
:103C500000487047C4000020432303800048704799
:103C6000140100200A230380004870470801002047
:103C700070B504008626B6008559FFF7ADF9832399
:103C80009B00E850A359002B0BD087239B00E358DF
:103C9000DB6883229200A918083AA85898470020A8
:103CA00070BD0220FCE7000070B505000C00862303
:103CB0009B00C6580978B93BFF3B0B4029D0202B0D
:103CC0002AD1E288002A1BD049B200290CDAFD3340
:103CD000FF33C3589B68607831009847E288310011
:103CE0002800FFF740FF17E0627880239B00F25422
:103CF000E2880D4BF254E2883100FFF74AFF0BE0F7
:103D000087239B00C3589B68607800222100984756
:103D100002E063780A2B01D0002070BD0122034924
:103D2000FFF721FFF8E7C04601020000D1030020A1
:103D300070B504008121FFF7C4F801212000FFF7CE
:103D4000C0F882212000FFF7BCF886239B00E358CF
:103D5000002B0BD087239B00E3585B689847862590
:103D6000AD006059FFF744F900236351002070BD96
:103D700070B50400037C002B33D18025AD002B00EF
:103D800002228121FFF787F82B0002220121200067
:103D9000FFF781F80823032282212000FFF77BF838
:103DA00087208000FFF720F9050086239B00E05064
:103DB00000282DD00433E3581B6898470023852240
:103DC0009200AB500432AB50267C002E15D18033CC
:103DD000143AAA589B0001212000FFF7EAF83000AE
:103DE00070BD402302228121FFF755F840230222B3
:103DF00001212000FFF74FF8CCE781239B00EA5810
:103E0000C53BFF3B01212000FFF7D3F80026E6E782
:103E10000126E4E7002904D087239B00C15000203D
:103E200070470220FCE786239B00C3588220800055
:103E30001950842189005A500020704786239B0026
:103E4000C258143BD1500020704710B586239B0008
:103E5000C258002A14D0043BD358002B01D00120B3
:103E600010BD85239B000121D150043BD35A8221F0
:103E7000890052588839FF39FFF788F80020EFE7AA
:103E80000220EDE710B586239B00C258002A15D00A
:103E9000037C002B09D180338121890052589B007B
:103EA0000121FFF786F8002010BD81239B00D25826
:103EB000C53BFF3B0121FFF77CF8F4E70220F3E765
:103EC0000D488546002103E00C4B5B5843500431FC
:103ED0000B480C4B42189A42F6D30B4A02E00023DF
:103EE00013600432094B9A42F9D3FCF717FE00F035
:103EF00011F8FEF7CFFDFEE7FF3F0020AC400008C1
:103F00000000002058010020580100200C0F002064
:103F1000FEE7000070B500260C4D0D4C641BA4108C
:103F2000A64209D1002600F02BF80A4D0A4C641B6A
:103F3000A410A64205D170BDB300EB5898470136D6
:103F4000EEE7B300EB5898470136F2E7A4400008CB
:103F5000A4400008A4400008A8400008002310B5B1
:103F60009A4200D110BDCC5CC4540133F8E7030081
:103F70001218934200D1704719700133F9E700001D
:103F8000F8B5C046F8BC08BC9E467047F8B5C046B8
:083F9000F8BC08BC9E46704716
:103F980002030405060708090A0B0C0D0E0F101082
:103FA8000102030405060708090A0B0C0D0E0F1081
:103FB80000000000000000000102030406070809D1
:103FC8005372632F6D61696E2E6300004F747465C0
:103FD80072210A0D000000005372632F757362642A
:103FE8005F636F6E662E63004D49444920436F6ED0
:103FF800666967004D49444920496E746572666177
:10400800636500004F7474657220536369656E744C
:104018006966696300000000504342204D494449E5
:10402800205465736C6120436F696C003030303008
:104038003030303030303141000000009437000813
:104048007E360008A4360008D236000894370008E7
:10405800943700085437000872370008E036000823
:10406800F236000804370008163700082837000819
:104078003A37000896390008A2390008A83900081C
:104088009C390008A8390008843900087C390008E0
:0C409800A8390008903900088A39000897
:0440A4007901000896
:0440A80051010008BA
:1040AC0000127A0019300008F32F0008F72F0008CF
:1040BC00FD2F0008713000087D300008B130000879
:1040CC0089300008CD300008F53000081D3100089B
:1040DC00120100020202004009120100000201025A
:1040EC000301000004031104713D0008313D000878
:1040FC00A93C0008000000000D3C0008F33B000840
:10410C00713C0008000000000000000000000000EE
:10411C004D3C0008413C0008593C0008653C000837
:10412C0009024300020100C032090400000102022E
:10413C0001000524001001052401000104240202E1
:10414C00052406000107058203080010090401007C
:10415C00020A000000070501024000000705810269
:10416C004000000009024300020100C032090400B3
:10417C0000010202010005240010010524010001C8
:10418C00042402020524060001070582030800101E
:10419C0009040100020A00000007050102000200E8
:1041AC0007058102000200000A0600020000004020
:1041BC000100000009074300020104C03209040099
:1041CC000001020201000524001001052401000178
:1041DC00042402020524060001070582030800FFDF
:1041EC0009040100020A000000070501024000005A
:0841FC000705810240000000EC
:0400000508003EC1F0
:00000001FF
