:020000040800F2
:10000000FF3F0020F96F0008593300086D330008E6
:1000100000000000000000000000000000000000E0
:100020000000000000000000000000007133000824
:10003000000000000000000075330008793300085C
:1000400049700008497000084970000849700008AC
:10005000497000084970000849700008497000089C
:10006000497000085D3300084970000849700008B5
:10007000497000084970000849700008A53300085D
:10008000497000084970000849700008853300086D
:100090009533000849700008B5330008497000081E
:1000A000497000084970000849700008497000084C
:1000B000497000084970000849700008C9330008F9
:1000C00010B5064C2378002B07D1054B002B02D02E
:1000D000044800E000BF0123237010BD6C01002024
:1000E00000000000D085000808B5084B002B03D0A5
:1000F0000748084900E000BF07480368002B03D009
:10010000064B002B00D0984708BDC04600000000F9
:10011000D0850008700100206C0100200000000064
:10012000002934D00123002210B488422CD30124AA
:100130002407A14204D2814202D209011B01F8E73F
:10014000E400A14204D2814202D249005B00F8E7F8
:10015000884201D3401A1A434C08A04202D3001B24
:100160005C0822438C08A04202D3001B9C08224357
:10017000CC08A04202D3001BDC082243002803D095
:100180001B0901D00909E3E7101C10BC70470028C7
:1001900001D00020C04307B4024802A140180290D9
:1001A00003BDC046D90000000029F0D003B5FFF719
:1001B000B9FF0EBC4243891A1847C046002941D0F6
:1001C00010B4041C4C40A44601230022002900D591
:1001D0004942002800D5404288422CD301242407FC
:1001E000A14204D2814202D209011B01F8E7E400D6
:1001F000A14204D2814202D249005B00F8E7884262
:1002000001D3401A1A434C08A04202D3001B5C08D9
:1002100022438C08A04202D3001B9C082243CC0836
:10022000A04202D3001BDC082243002803D01B0994
:1002300001D00909E3E7101C6446002C00D54042B8
:1002400010BC7047002806D003DB0020C0434008E4
:1002500001E08020000607B4024802A14018029085
:1002600003BDC046190000000029EBD003B5FFF71D
:10027000A7FF0EBC4243891A1847C0467047C046C4
:100280008446101C62468C46191C634600E0C0463A
:100290001FB501F097FA002801D40021C8421FBD04
:1002A00010B501F0C7F94042013010BD10B501F0A2
:1002B00089FA002801DB002010BD012010BDC046D6
:1002C00010B501F07FFA002801DD002010BD0120EB
:1002D00010BDC04610B501F0F7F9002801DC002080
:1002E00010BD012010BDC04610B501F0EDF9002889
:1002F00001DA002010BD012010BDC0469E2110B5BE
:10030000C905041C02F042F9002803D1201C00F0AA
:10031000CFFA10BD9E21C905201C00F053F900F052
:10032000C7FA80231B06C018F3E7C0460000000090
:1003300038B50E4B0C4A041C0D1CFFF7D5FF0028E6
:1003400004D1201C291C02F07FF838BD074B064A57
:10035000201C291C01F044FD02F076F880231B06C6
:10036000C018F2E7C046C046000000000000E041AF
:10037000F0B55F4656464D464446F0B4440246004A
:1003800083B00F1C640A360EC50F002E41D0FF2E1D
:1003900022D080231B0400201C43E4007F3E8246C1
:1003A0008046391C4B007F02C90F7F0A1B0E8B460B
:1003B0003BD0FF2B34D0802212041743FF007F3B39
:1003C00000215A466A40019252460A430F2A63D8D6
:1003D0007A48920082589746002C3FD10822022387
:1003E00092469846DDE70195404602282AD1019AB7
:1003F00001251540FF2300246402DB05600AED0798
:100400001843284303B03CBC90469946A246AB46ED
:10041000F0BD002C27D10420012282469046C0E77F
:10042000391C4A1E91410231CBE70121002FC8D06F
:10043000381C02F0B5F8431F9F4076235B421B1A1D
:100440000021BEE7032800D1AEE001284FD101987A
:1004500042461040C5B200230024CDE70C23032000
:100460009A4680469DE7201C02F09AF87626431FA4
:100470009C4076420023361A9A46984691E780249B
:100480000025E403FF23B7E75B463C1C0193884645
:10049000AAE73C1C8846A7E7250C24043A0C240C48
:1004A0003F04F6183F0C211C231C794353436F4330
:1004B0005543FB180A0C9B18B1469F4202D9802273
:1004C0005202AD1809041A04090C521894011B0CAD
:1004D000611E8C41920EED181443AD012C43230193
:1004E00005D5012263080120144081441C434B467A
:1004F0007F33002B2DDD600704D00F222240042A19
:1005000000D00434220103D52D4B1C404B468033D0
:10051000FE2B17DD019B01251D400024FF236BE707
:100520008020C003044208D0074206D1041C3C438B
:100530006402640A5D46FF235EE704436402640AC2
:10054000FF2359E70198A4010125640ADBB20540A5
:1005500052E77E235B424A469B1A1B2B05DD019B1B
:1005600001251D400024002346E7221CDA404B46AB
:100570009E339C40231C5C1EA3411343580704D0A8
:100580000F221A40042A00D004335A0105D5019BDA
:1005900001251D40002401232EE701989C0101251F
:1005A000640A0540002327E78027FF03019B3C43A3
:1005B000640201251D40640AFF231DE70886000828
:1005C000FFFFFFF7F8B5C20F430244004D02480099
:1005D000240E161C9B09000EC90FAD09FF2800D17F
:1005E00083E0012779408A425CD0221A002A00DC8D
:1005F0008EE000281ED1002D00D07AE0580704D0EC
:100600000F221A40042A00D004338021C904012299
:100610001940324000293AD00134FF2C00D183E048
:100620009B015B0A5B02E4B2E405580AD20720434F
:100630001043F8BDFF2CE1D08021C9040D431B2AD3
:1006400000DD31E1291C2020D140821A95406A1E2C
:1006500095410D435B1B5801D0D59B019F09381C68
:1006600001F09EFF421F974094425FDC141B1F2342
:100670001B1B3A1C9F40611C3B1CCA405F1EBB41B8
:1006800013430024BAE7131EB8D100230022DB086D
:10069000FF2C04D1002B47D08020C00303435B0212
:1006A0005B0ABFE7211A002944DD002827D0FF2C70
:1006B000A4D08020C00405431B2900DDF2E0281CE3
:1006C0002027C840791A8D40691E8D4105435B196A
:1006D000590100D492E70134FF2C59D0734901220B
:1006E0001A400B405B08134388E7002D00D07AE7DF
:1006F00077E7013A002AADD0FF2CA0D17EE7002D8C
:1007000000D17BE701390029E1D0FF2CD4D175E776
:10071000002A1BD1621CD2B2012A4BDD5F1B7A0179
:1007200023D5EF1A0E1C9AE700237BE75F4BA41A30
:100730003B4063E7002946D1611CC8B2012829DD8E
:10074000FF2924D0EB185B080C1C57E7002C13D0B2
:10075000FF2818D08024E404524223431B2A4DDD95
:100760000123EB1A041C0E1C75E7002F00D076E75E
:100770000023002200248AE7002B3BD0D243002A2A
:10078000EFD0FF28EAD12B1CFF240E1C36E7FF24F4
:1007900000237CE7002C5CD1002B00D180E0002DF1
:1007A00000D12BE75B19580100D427E73F4A012409
:1007B000134023E7002C15D1002B40D1002D63D02E
:1007C0002B1C0E1C1AE7002C21D1002B54D0C9433E
:1007D000002904D0FF284CD01B2958DD01235B19C8
:1007E000041C75E7002B19D1002D48D02B1C0E1CC2
:1007F000FF2403E72B1C041C0E1CFFE61C1C2026F8
:10080000D440B21A93405A1E93412343A9E7FF28CC
:100810002FD08024E40449422343DDE7FF24002D48
:1008200000D1EBE68022DB08D203134204D0ED08AE
:10083000154201D12B1C0E1CDB00FF24DEE6002D2F
:1008400000D1DBE65A1B500100D41CE7EB1A0E1C4A
:10085000D4E6002B0DD0FF24002D00D1CEE680225F
:10086000DB08D2031342E7D0ED081542E4D12B1C7C
:10087000E2E72B1CFF24C1E62B1C041CBEE68023F0
:1008800000229B04FF2402E7231C0022FFE61C1C1D
:100890002027CC40791A8B40591E8B4123439EE779
:1008A0002B1CABE6012512E70125D3E6FFFFFFFB7A
:1008B0004302590A4300C20F1B0E00207E2B0DDDA0
:1008C0009D2B0CDC802000040143952B0ADC962034
:1008D000C31AD9404842002A00D1081C7047034B74
:1008E000D018FBE7963B9940F4E7C046FFFFFF7F37
:1008F00070B5041E3CD0C60F00D04442201C01F04D
:100900004FFE9E23251C1B1A962B0CDC08388440B6
:100910006402640ADBB2321C6402DB05600AD2079F
:100920001843104370BD992B0ADD0522121A211CB1
:10093000D1400A1C011C1B318D40691E8D4115439D
:10094000052801DD421F9540164C2C406A0704D053
:100950000F221540042D00D0043461010CD59F23D3
:10096000181AFF281AD0A401640AC3B2321CD3E7B4
:10097000002200230024CFE7E408FF2B04D0640208
:10098000640ADBB2321CC7E7002C04D08020C0030D
:1009900004436402640A321CFF23BDE7321CFF23B8
:1009A0000024B9E7FFFFFFFBF8B55F465646444613
:1009B0004D46F0B40C034D00CE0F610A440F2143A5
:1009C000C400180380465800400D8246D80F844664
:1009D0004046400A530F0343D0006D0D371C834639
:1009E0005246664500D1A4E0AF1A002F00DC09E1B1
:1009F000002A3BD1184300D0EAE0630700D187E02A
:100A00000F232340042B00D182E0221DA242A441E7
:100A10006442802309191B040B40371C141C002B53
:100A200000D17CE0CE4B01359D4200D105E1CD4B9C
:100A3000E40819404807490204430B0B0020002139
:100A40001B031A0B0B0D6D051B0513436A08C64DDE
:100A5000FF071D4015436D006D08291C3943201CFC
:100A60003CBC90469946A246AB46F8BDBC48854280
:100A7000C3D0802000040343382F00DDF0E01F2F97
:100A800000DD24E12020C01B1A1C8146824058460C
:100A9000F8400243944658464A469040421E9041D0
:100AA000FB40624602431F1CA21A9442A4416442C6
:100AB000C91B091B141C0B029FD549024F0A002FAA
:100AC00000D1C8E0381C01F06BFD021C083A1F2A57
:100AD00000DDB5E02821091A201C9740C8400743D3
:100AE0009440954200DDB2E0551B691C1F2900DDD2
:100AF000DCE01F22551B3B1C221CAB40CA40AC4013
:100B0000651EAC411343CF401C43391C002574E7DC
:100B100080231B040B40371C002B00D082E7904B36
:100B20004807E4080443C9089D4248D009030B0B59
:100B300084E7AA1A9446002A00DC98E05046002870
:100B400052D08748854200D157E7802000040343F4
:100B50006246382A00DDFCE01F2A00DD4AE120223F
:100B60006046101A1A1C82408246914658466246D8
:100B7000D0404A4602439046584652469040421E54
:100B80009041424602436046C3401219A242A4412A
:100B9000644259180919141C080200D42DE7704B3F
:100BA00001359D4200D122E16E4B600819400123BE
:100BB00023401C1C0443CB071C4349081DE7231C8E
:100BC0000B433AD080231B030B431B031B0B35E75E
:100BD000013F002F65D15846221A9442A441644235
:100BE000C91A091B141C66E75846184300D104E7CC
:100BF0000122524294446046002800D0C5E0584685
:100C00000219C3E7002F73D1681C4005400D01286D
:100C100000DCDEE05A46A21A9442BF41C81A7F4265
:100C2000C71B380200D489E05A46141BA3459241E1
:100C3000591A52428F1A664641E700230024FDE606
:100C4000271C283887400024954200DC4CE74549A2
:100C5000AD1A3940D1E6201C01F0A2FC203034E767
:100C60005A461A43531E9A41D2B200271CE7002A63
:100C700000D0DCE0681C4205520D012A00DC8DE04A
:100C8000374DA84200D1F3E05D462A19A242A441A3
:100C9000644259180919CC07520814434908051C25
:100CA000ABE62F48854200D0E6E6A6E62B1C1F3BAC
:100CB0003A1CDA40131C20296CD03F22551BAF4050
:100CC0003C43601E84411C430021002595E6381CEE
:100CD00020381A1CC240101C202F5DD04022D71B88
:100CE000BB405A461A43531E9A4102430027DBE693
:100CF000002D3BD01A4DAA4500D193E080252D044C
:100D00007F422943382F00DDACE01F2F00DD29E1B1
:100D10002025ED1B081C261CA840FE40AC400643C5
:100D2000651EAC413443F9405D462C1BA3459241FE
:100D30005B1A5242991A55466646BCE6131C3B4361
:100D4000141C002B00D0BAE6002700210025002447
:100D5000E5E65A461A43531E9A41D2B2002314E7DD
:100D6000FF070000FFFF7FFFFFFF0F800D1C2543E3
:100D700058D0FF43002F51D1041BA3459241591A6B
:100D80005242891A5546664695E69648854200D0F5
:100D9000DEE632E6002793E70023A2E7081C2043A3
:100DA000002D00D0C4E0002800D1F7E058461843D9
:100DB00000D122E658460219A242A44164425918C1
:100DC0000919141C0A0200D417E6874B01251940A3
:100DD00013E6081C2043002D39D1002871D1594653
:100DE000194303D0191C5C46664606E6002700211D
:100DF000002494E6604620381A1CC24060469146A2
:100E0000202800D1ACE04022121A93405A461A43DF
:100E1000531E9A414B461A430023B6E6714DAA452C
:100E200000D06FE7191C5C4655466646E5E5002D87
:100E300022D10D1C254377D0D543002D71D15C44C0
:100E40005C4592415918524289185546A4E600283B
:100E50004DD15946194300D194E0191C5C466646B1
:100E6000604DCAE50C43611E8C41E4B200215BE792
:100E7000051C0021002452E65A4DAA4554D0554283
:100E8000802210040143382D00DD81E01F2D00DD9C
:100E900092E02022501B0A1C84468240201CE8401D
:100EA0000243904662469440601E84414246144389
:100EB000E9405C445C459241CB1852429918554632
:100EC0006AE65846184300D197E55846271ABC42AF
:100ED0009241C81A5242801A020266D55846041B33
:100EE000A3459241591A5242891A664685E55846E9
:100EF000184333D04807E40804438020C90800039E
:100F0000014208D0DD08054205D15946CA085C07F0
:100F10001443291C6646630FC9001943E400314D90
:100F20006BE5304A9245AED1191C5C46554664E5E6
:100F3000002836D05846184310D080254807E408CA
:100F4000C9082D0304432942E5D0D8082842E2D13C
:100F50005D46EA085C071443011CDCE7214D4CE5C3
:100F6000002353E73D1C203D0A1CEA40151C202F9E
:100F700034D04026F71BB9400C43611E8C412C43F2
:100F80000021D1E680210027C903164D0024C6E5C3
:100F90000C43611E8C41E4B200218AE7191C5C46B7
:100FA0002BE5191C5C460F4D27E5031C3B4300D184
:100FB0001CE7011C3C1C20E52020404240190A1C73
:100FC000C2409046202D0BD04020451BA9400C4329
:100FD000611E8C4145462C4300216AE70021CBE786
:100FE0000021F4E7FF070000FFFF7FFFF0B5564642
:100FF00044465F464D46F0B41F1C0B031B0B98463E
:101000004B0087B0041C81465B0DC80F161C9A4626
:101010000090002B51D06A4B9A4531D08022414636
:1010200052030A43630FD2001A43664B90460025D1
:10103000E20091469A44002402953B031B0B9B4619
:10104000FD0F7B00311C5B0D019560D05C4A934223
:1010500054D08021584649030143720FC9001143FF
:10106000584A8B469B18F1000020009A04436A40BE
:1010700003920F2C00D9ADE0534EA4003459A7467B
:10108000404604436ED10021022508248846894643
:101090000295D2E7009C0298C34649460194022873
:1010A00064D0032800D1ABE2012800D038E2019AD5
:1010B000002402400025A14660E0434623434AD075
:1010C0004046002800D1C0E101F06AFA031E272B38
:1010D00000DDB3E128210D1A211C083B4246E940FE
:1010E0009A400D1C1543221C9A40A8469146374B46
:1010F00000251B1A9A46002402959EE75A4616437D
:101100000320002EB1D1B34600210220ADE75A469C
:1011100032431BD05B46002B00D18AE1584601F0D8
:101120003FFA272800DD7DE12822171A011C321C16
:1011300008395B46FA408B40171C1F43331C8B4019
:10114000BB46191C214B1B1A00208EE70027BB460B
:101150000021012089E700200125042480468146E2
:1011600002956AE703250C24029566E7019C039427
:10117000039D01222A400024114DA1460020002198
:101180002403260B0C0D2405114B34432D0523405D
:101190002B435B005B08D207191C4846114307B07C
:1011A0003CBC90469946A246AB46F0BD0022802446
:1011B00024039146024DE1E700240025A146DDE726
:1011C000FF07000001FCFFFF488600080DFCFFFF41
:1011D000FFFF0F805546ED1A0495D84500D953E11D
:1011E00000D14EE1049C0025013C4E460494474644
:1011F000A946584603020C0E1C430902250C230481
:101200001B0C0091381C291C0193FEF789FF0199E2
:1012100083464143381C8A46291CFEF7C5FF330C20
:10122000090419438A450CD95B460919013B8C42D4
:1012300000D947E18A4500D844E102225242934452
:1012400009195346CB1A181C291C9846FEF768FF4B
:10125000071C0198291C784382464046FEF7A4FFEC
:1012600036040B04360C33439A4509D91B197A1EF0
:101270009C4200D924E19A4500D821E1023F1B1984
:101280005E4632041743380CBB46009E009F514611
:101290003F0C32045B1A5946BA46120C0F043F0C3D
:1012A000904651467A434F43414641435646704328
:1012B000CF19160CBE19B14202D980277F02C0197E
:1012C000310C12043604120C4018B618834200D2B6
:1012D000C4E000D1BEE0191A4846861BB145BF41A3
:1012E0007F42CF1BA74200D113E1291C381CFEF717
:1012F00017FF019902904143381C8946291CFEF7CB
:1013000053FF330C0904194389450CD9029B091971
:10131000013B8C4200D9FFE0894500D8FCE0029FE8
:101320000919023F02974F46CF1B381C291C05970D
:10133000FEF7F6FE071C0198291C784381460598A4
:10134000FEF732FF36040904360C0E43B14509D9C5
:1013500036197B1EB44200D9E0E0B14500D8DDE08B
:10136000023F3619029D4946761A290439430B0477
:1013700057460A0C1B0C40464546584355437B4391
:101380007A43EB18070CDB199D4202D980256D02C8
:1013900052191D0C00041B04000C52191B18964214
:1013A00035D300D1FCE001231943049E994FF51970
:1013B000002D00DCA1E0480709D00F230B40042BCF
:1013C00005D00B1D8B42894149428B44191C5A465A
:1013D000D20107D5904B5C46049E80271C40FF003D
:1013E000A346F5198D4B9D427ADD039C01222240D4
:1013F00000248B4DA146C1E68024240347462742A2
:101400004CD13C432403240B009A854DB6E6361993
:10141000481EB4425ED9011C9642C4D1009E9E4231
:10142000C1D1C2E7031C283B311C99408B460021E7
:1014300088E6301C01F0B4F8203072E6283B211C0D
:10144000994000228846914651E6201C01F0A8F8F8
:1014500020303BE60021B14500D33DE7009F5A46CE
:10146000B944B945BF417F423F19FB18013A9C423C
:101470001ED2984200D97EE000D1B5E0191A9346F9
:101480002AE7894500D8ADE64846464642467708F1
:10149000D3074608C0071E438146AAE658462042A5
:1014A00012D1044324032A1C240B89465C4D65E6B3
:1014B000A342E3D1009F4F45DBD9211A93460BE7A6
:1014C000171CDDE69B46BCE63C432403240B009A34
:1014D000534D53E6B24259D800D18AE0011C62E76D
:1014E0005F46C9087B07039E0B437C026D05012202
:1014F0009946240B6D0D324040E64A4B049FDB1B9E
:10150000382B10DD039C0122224000240025A14637
:1015100034E60121494248E7029304E71F1C21E712
:10152000019C039441E71F2B40DC3F48049F0C1CA7
:101530003A1858469140DC40904020430A1C511E06
:101540008A41011C11435A46DA40131C480709D04E
:101550000F220A40042A05D00A1D8A4289414942C5
:101560005B18111C1A0234D5039C0122224000246E
:101570000125A14602E6009F02214942B9448B445D
:10158000B945894149420919CB18A4E6009D881E36
:101590006900A942AD416D422C19361900913AE714
:1015A000002B00D033E70024009437E71F4A049C47
:1015B0005D46121BD5402A1C202B1FD01C4E5F46B7
:1015C000A3199F403B1C19434B1E99411143002313
:1015D000BCE75A07C9080A43039F91465B020122F0
:1015E0001C0B3A400025C9E54E45C4D8934600215E
:1015F00072E6009F9F42C9D3011C0FE70023E2E778
:10160000802424035F463C432403240B019A89462B
:10161000034DB3E5FF030000FFFFFFFEFE070000E0
:10162000FF07000002FCFFFF1E040000E2FBFFFFBB
:101630003E040000F0B55F4656464D464446F0B4C1
:101640000D1C041C8046E80F814618030F03000B95
:101650003F0B83B084461B48009749005E00DF0FB4
:10166000490D9246760DBB4681420CD01548864204
:1016700010D00120B14215D003B03CBC9046994631
:10168000A246AB46F0BD009F01202743F4D10D4890
:101690008642EED1604602430120002AECD10120AF
:1016A000B142E9D1009B6345E6D1D045E4D1D945AB
:1016B00006D00029E0D11C43201C441EA041DBE7DA
:1016C0000020D9E7FF070000F0B55F4656464D46BB
:1016D0004446F0B4CD0FDE0FAC461D032D0BB146D2
:1016E000374E0F034C00AB465D0080463F0B640D48
:1016F00092466D0DB44232D0314EB54235D0002CF9
:101700000ED1384341424141081C002D0BD0002925
:1017100019D1CC452DD0654668420123184318E005
:10172000002DF6D1281C59460A4353425341002844
:1017300006D1002BEDD0634658420123184308E040
:101740000020002B05D14A4650425041404201231F
:1017500018433CBC90469946A246AB46F0BD3E1CA1
:101760000643C9D002204042F3E75E461643C6D086
:10177000F8E7AC4207DC0BDA614648424841404298
:1017800001231843E5E76646704201231843E0E76A
:101790005F450AD80ED000205F45DAD26546684220
:1017A0006841404201231843D3E762465042012377
:1017B0001843CEE7D045F8D80020D045EED3C8E78F
:1017C000FF070000F0B556464D4644465F46F0B46C
:1017D0000D1C83B0041C0190E80F814618030F0311
:1017E000000B3F0B84463548009749005E00DF0F31
:1017F000490D9246760DB846814234D02F48864234
:1018000036D0002918D0002E1FD1341C67463A4329
:1018100053425341002C1FD00020002B05D14246DB
:101820005042504140420123184303B03CBC904613
:101830009946A246AB46F0BD009804436042604121
:10184000041C002EE2D00028E9D1C14515D04F4636
:10185000784201231843E8E7002BF6D04B46584264
:1018600001231843E1E7009F02202743DDD1C5E7AC
:10187000674602201743D8D1C3E7B14204DD4A4688
:10188000504201231843D0E7B14207DB009860457E
:10189000E4D80AD0009F00206745C6D24F46784260
:1018A0007841404201231843BFE7019A5245D5D8F9
:1018B000019A00205245F1D3B7E7C046FF07000068
:1018C000F0B5564644465F464D46F0B41F1C0B0328
:1018D0001B0B9A464B0087B0041C80465B0DC80F5B
:1018E000161C02938146002B68D0694B02999942DD
:1018F00032D08022534652031A43D200630F1A4358
:101900009246644AE000891880460291002400252E
:101910003B031B0B9B467800FB0F321C400D0393CF
:1019200000D175E05A4B984269D080225946520343
:101930000A43730FD2001A43564B9346C018F20065
:10194000002303994E4671401C430F2C00D9A9E097
:10195000514EA4003459A74653461C4300D087E09B
:101960000025AA46A84608240225D1E74946022DAB
:101970006CD0032D00D117E2012D00D058E10D40AD
:10198000EDB20024A9460023A04600200021250333
:101990000A0D1C052D0B1205404B2A43134023430F
:1019A0005B004C465B08E207191C4046114307B038
:1019B0003CBC90469946A246AB46F0BD53462343F5
:1019C00050D05346002B00D184E1504600F0E8FD92
:1019D000031E272B00DD76E128210D1A211C083B70
:1019E0005246E9409A400D1C1543221C9A40AA46D3
:1019F00090462B4B00241B1A0293002588E75B4678
:101A00001E430323002E9CD1B3460022022398E7F5
:101A10005B46334321D05846002800D14EE100F008
:101A2000BFFD272800DD42E128210F1A021C311CCE
:101A3000083A5B46F94093400F1C1F43331C934008
:101A4000BB461A1C164B181A00237AE701230B40D9
:101A500000249946A0460E4B97E70027BB4600227C
:101A600001236EE7002104248A46884601254FE7BA
:101A70000C2403254CE700258024A9462403A8460E
:101A8000034B82E7DA46904603991D1C6FE7C04678
:101A9000FF07000001FCFFFF88860008FFFF0F80A2
:101AA0000DFCFFFF029F160C381804904046070CEF
:101AB0000004000C1204120C031C5343041C3D1CB4
:101AC0007443554398463B1C73436419A4464446EB
:101AD0000293230C63449D4204D9029D8024640236
:101AE0002D1902951D0C039545462C041B04240C4E
:101AF0001C1905945C46230C051C58432404240C33
:101B00008446381C604365435F438146CC44280CBF
:101B10006044BB46814502D980277F02BB442D0427
:101B2000070C2D0C000440195546BC462F04E34415
:101B30008446280C3D0C2F1C5743B8462F1C774376
:101B40004243B94647463F0C9144BA46D1444643C6
:101B50004A4502D980225202B6184F463A0CB618AE
:101B60003A0447463F043F0CB8462F1C67435D4389
:101B70004443584365190190380C2D184244B84627
:101B8000AC4204D9019880235B02C0180190039CE9
:101B9000029F201C6044C0196045A441474664422E
:101BA000A4462B043C049946240C4C44A046D8443B
:101BB0008018C246E24490429241574652429146B2
:101BC000F219E245BF417F424B46BC46D845BF4172
:101BD000D4187F4263461F432D0C7F19B2429241B5
:101BE0004C45AD4152426D421543019E7D19AB19E2
:101BF000E20D5B02059F134342023A439A46531E8D
:101C00009A41C30D101C184364022043804650467D
:101C1000C0010DD5454601225646049C6B082A405A
:101C20001A43F30701341A43760804949046B246E7
:101C3000049E634FF319002B61DD404640070BD033
:101C40000F2244462240042A06D04246043242452E
:101C500080414042824490465546ED0107D5594B9C
:101C60005646049F80201E40C000B2463B18564A8C
:101C7000934200DDEAE644465546E2086807104311
:101C800001226C025B050A408046240B5B0D9146E5
:101C90007BE6DA4690461D1C69E6802424035746FD
:101CA00027421CD13C432403240B484B6DE6031C04
:101CB000283B311C99408B460022C3E6301C00F0C3
:101CC0006FFC2030ADE6283B211C994000228A465B
:101CD00090468EE6201C00F063FC203078E65846E3
:101CE000204207D1044303992403240B89469046DC
:101CF000364B4AE63C432403240B344B45E6344B35
:101D0000049E9B1B382B06DD01230B4000249946C3
:101D1000A046002339E61F2B25DC049C2D4D4646AA
:101D20006019524644468640DC4082405746301C8B
:101D30002243DF40441EA04102433B1C540709D00C
:101D40000F201040042805D0101D904292415242AD
:101D50009B18021C1D021AD501230B400024994632
:101D6000A046012311E61C48049C5546001BC540B3
:101D7000281C202B16D0194E5746A21997403A1C02
:101D800043461A43531E9A4102430023D6E758079D
:101D90005B02D2081C0B01230B401043994680467E
:101DA0000023F2E50022EBE78024240350460123C0
:101DB000044319402403240B8946044BE5E5C0463F
:101DC000FF030000FFFFFFFEFE070000FF0700000B
:101DD00002FCFFFF1E040000E2FBFFFF3E040000C8
:101DE000F8B55F46564644464D46F0B40C034D00E8
:101DF000CF0F610A440F2143C4001803DE0F804651
:101E0000B44646465800760A530F3343D600D14AAB
:101E10006D0DBA46400DB346904200D1F5E06246E2
:101E2000012672409446674500D1ABE02F1A002F7F
:101E300000DC11E100283ED15846184300D0F1E003
:101E4000600700D197E00F232340042B00D122E14B
:101E5000221DA242A4416442802309191B040127C8
:101E600050460B400740141C002B00D179E0B94BC1
:101E700001359D4200D10BE1B74BE40819404807FA
:101E8000490204430B0B002000211B031A0B0B0D0E
:101E90006D051B0513436A08B04DFF071D40154330
:101EA0006D006D08291C3943201C3CBC90469946A6
:101EB000A246AB46F8BDA7488542C1D080200004A9
:101EC0000343382F00DDFDE01F2F00DD31E120202E
:101ED000C01B1A1C5E468240FE40324394465A465E
:101EE0008240101C421E9041FB40624602431F1C70
:101EF000A21A9442A4416442C91B091B141C0A0281
:101F00009ED549024F0A002F00D1D6E0381C00F0C0
:101F100047FB021C083A1F2A00DDC3E02821231CCE
:101F2000091A9740CB401F439440954200DDC0E022
:101F3000551B691C1F2900DDEAE01F22551B3B1CB5
:101F4000221CAB40CA40AC40651EAC411343CF409D
:101F50001C43391C002573E780217E4D0027C903EF
:101F600000247C4B4807E4080443C9089D4250D034
:101F700009030B0B87E780231B04012752460B4004
:101F8000174071E72A1A9446002A00DCA1E00028D5
:101F900054D07048854200D152E7802000040343AA
:101FA0006046382800DD0EE11F2800DD57E162465B
:101FB0002020801A1E1C8640B1465E46D6404A4606
:101FC00032435E4686409046301C421E9041424657
:101FD00002436046C3401219A242A4416442591808
:101FE0000919141C080200D42AE75A4B01359D42F6
:101FF00000D131E1584B60081940012323401C1CDB
:102000000443CB071C4349081AE71E4300D00AE7E4
:1020100005E7231C0B433BD080231B030B431B030F
:102020001B0B30E7013F002F6DD15E46A21B94428F
:10203000A4416442C91A091B141C60E7584618439E
:1020400000D1FDE601267642B4446046002800D067
:10205000D0E05E463219BFE7002F00D080E0681C58
:102060004005400D012800DCE8E05A46A21A9442DF
:10207000BF41C81A7F42C71B3E0200D498E05846B1
:10208000041BA3459241591A52428F1AE2463AE77D
:1020900000230024F7E680231B04012756460B404B
:1020A0003740E1E6271C283887400024954200DCB1
:1020B0003EE72949AD1A3940C2E6201C00F070FA0B
:1020C000203026E75A461A43531E9A41D2B20027BF
:1020D0000EE7002A00D0DEE0681C4605760D012ED2
:1020E00000DC90E01B4DA84200D1F5E05E463219BD
:1020F000A242A441644259180919CC07520814435A
:102100004908051C9CE61348854200D0D9E697E6AD
:102110002B1C1F3B3E1CDE40331C20296FD03F226E
:10212000551BAF403C43601E84411C4300210025E9
:1021300086E6381C20381E1CC640301C202F60D07C
:102140004022D71BBB405A461A43531E9A410243B2
:102150000027CDE6FF070000FFFF7FFFFFFF0F8096
:10216000002D37D0B64DA84200D18FE080252D0438
:102170007F422943382F00DDA8E01F2F00DD24E136
:102180002025ED1B0E1CAE40B046261CFE404246EC
:10219000AC401643651EAC413443F9405A46141B0B
:1021A000A34592415B1A5242991A051CE246A6E6E3
:1021B000131C3B43141C002B00D0A4E60027002175
:1021C00000250024CDE65A461A43531E9A41D2B246
:1021D000002300E70D1C254358D0FF43002F51D1A9
:1021E0005A46141BA3459241591A5242891A051C9A
:1021F000E24684E69248854200D0D1E620E60027F8
:1022000090E700239FE7081C2043002D00D0C2E088
:10221000002800D1EFE05846184300D110E6584698
:102220000219A242A441644259180919141C0A0255
:1022300000D405E6834B0125194001E6081C204324
:10224000002D38D100286FD15946194303D0191CED
:102250005C46E246F4E500270021002481E6604662
:1022600020381A1CC2406646101C202E00D1AAE05D
:102270004022921B93405A461A43531E9A410243EE
:102280000023A8E66E4DA84200D073E7191C5C46F7
:10229000051CE246D4E5002D22D10D1C254376D045
:1022A000D543002D70D15C445C459241591852428F
:1022B0008918051C96E600284CD15946194300D1CF
:1022C0004AE6191C5C46E2465D4DB9E50C43611EC9
:1022D0008C41E4B2002161E7051C0021002440E6A6
:1022E000574DA84253D05542802216043143382D11
:1022F0007BDC1F2D00DD8CE02022561B0A1CB4461F
:10230000B240261CEE403243904662469440661E20
:10231000B44142461443E9405C445C459241CB18C9
:1023200052429918051C5DE65846184300D187E5CE
:102330005E46A71BBC429241C81A5242801A06024E
:1023400060D55846041BA3459241591A5242891A36
:10235000E24675E55846184333D04807E40804437D
:102360008020C9080003014208D0DD08054205D1DC
:102370005946CA085C071443291CE246630FC9008A
:102380001943E4002E4D5BE52D4A9042AFD1191C54
:102390005C46051C54E5002830D05846184310D040
:1023A00080254807E408C9082D0304432942E5D0E5
:1023B000D8082842E2D15D46EA085C071443011CB4
:1023C000DCE71F4D3CE5002355E73D1C203D0E1C7E
:1023D000EE40351C202F2ED04026F71BB9400C4371
:1023E000611E8C412C430021D8E60C43611E8C41B8
:1023F000E4B2002190E7191C5C4621E5191C5C46FB
:102400000F4D1DE5031C3B4300D124E7011C3C1C80
:1024100016E52026764276190A1CF2409046202DB9
:102420000BD04026751BA9400C43611E8C414546CC
:102430002C43002170E70021D1E70021F4E7C046DA
:10244000FF070000FFFF7FFF70B50B1C124C090354
:102450000E0B5900021C490DDD0F0020A14211DDB9
:102460000E4881420FDC8020400306430C48401A8E
:102470001F280BDD0B4A521AD640321C5042002D49
:1024800000D1101C70BD084BE818FBE7074BC24099
:10249000C9188E403243F1E7FE0300001D0400001E
:1024A0003304000013040000FFFFFF7FEDFBFFFF7C
:1024B000F8B5041E31D0C70F00D04442201C00F0F4
:1024C0006FF8184D2D1A0A2819DD0B3884402403A3
:1024D0006D05240B6D0D3A1C0026002000210B0D0C
:1024E0002403240B1B0523430F4C2D051C402C43B8
:1024F00064006408D307211C301C1943F8BD061C76
:102500001536231CB3401E1C0B23181AC440240389
:102510006D05240B6D0D3A1CDFE700220025002419
:102520000026DAE71E040000FFFF0F808446081C27
:102530006146FFE71FB500F0C3F8002801D4002171
:10254000C8421FBD10B500F049F84042013010BD2F
:1025500010B500F0B5F8002801DB002010BD012007
:1025600010BDC04610B500F0ABF8002801DD00201A
:1025700010BD012010BDC04610B500F059F800286C
:1025800001DC002010BD012010BDC04610B500F0D8
:102590004FF8002801DA002010BD012010BDC04610
:1025A0001C2101231B04984201D3000C10391B0A83
:1025B000984201D3000A08391B09984201D3000947
:1025C000043902A2105C40187047C046040302029E
:1025D0000101010100000000000000004A02430266
:1025E00070B55C0A550A43004A001B0EC60F120E56
:1025F000C90FFF2B05D0FF2A08D0012093420BD032
:1026000070BD0120002CFBD1FF2AF6D10120002D46
:10261000F6D101209342F3D1AC42F1D18E4205D0E4
:10262000002BEDD1201C441EA041E9E70020E7E784
:102630004A024302F0B55C0A550A43004A001B0EE9
:10264000C60F120EC90FFF2B31D0FF2A34D0002B3A
:1026500016D1604260418446002A14D0002820D15F
:102660008E4217D1934215DC04DBAC4212D8002015
:10267000AC4212D2704270414042012318430CE038
:10268000002AEDD194466F426F416046002805D183
:10269000002FE5D0704201231843F0BD0020002F29
:1026A000FBD148424841404201231843F5E7002C42
:1026B000CBD002204042F0E7002DC8D0F9E7C04659
:1026C0004A024302F0B55C0A550A43004A001B0E59
:1026D000C60F120EC90FFF2B27D0FF2A29D0002BBF
:1026E00010D0002A15D194466F426F4160460028F1
:1026F00015D00020002F04D1484248414042012318
:102700001843F0BD604260418446002AECD00028A6
:10271000F2D18E4211D0704201231843F1E7002F0D
:10272000F7D0704201231843EBE70220002CE8D1D8
:10273000D3E70220002DE4D1D1E79342EBDC04DBA8
:10274000AC42E8D80020AC42DBD27042704140423B
:1027500001231843D5E7C046F0B55F4656464D46BF
:102760004446F0B485B00023012294466C4CA34645
:102770006C4EC7E065469D4001952A4000D1C0E0FF
:102780004C68022C01D0122C13D1DC080834A400B0
:1027900000942758B94607271F40BD000F24AC40BE
:1027A0004F46A743B9460F69AF404C462743009DAB
:1027B0002F500768B9465C000327A740FF430097E6
:1027C0004D463D40A94603274D682F40A7404D4642
:1027D0002F4307604F68B94601256D42AA46CA4497
:1027E0005746012F04D94D46112D01D0122D16D177
:1027F00087683D1C009F3D40A946CD68A5404F46D7
:102800003D43856045682F1C019DAF43BA464F6824
:10281000FF06FF0F4546AF4055463D434560C5683E
:10282000009F2F408D68A5402F43C7604F688024CC
:102830006405274265D05D46AC6967463C43AC61A0
:10284000AC693C400394039C9C08A246251C0235BD
:10285000AC00354D675903251D40AD000F24AC4039
:10286000A743B9469024E405A04219D02F4FB8429F
:1028700014D02F4CA0420ED02E4FB84208D02E4C70
:10288000A04202D10427B8460CE00524A04609E086
:102890000327B84606E00224A04603E0E04601E034
:1028A0000027B8464446AC40251C4F463D4354469D
:1028B0000234A4001C4FE5513468A046D443454679
:1028C00025404F68FF0301D54546154335607568BF
:1028D000A84625404F68BF0301D54546154375609E
:1028E000B568A84625404F68FF0201D54546154307
:1028F000B560F5682C404F68BF0201D5141C2C430D
:10290000F46001330A689846141CDC4000D031E7BB
:1029100005B03CBC90469946A246AB46F0BDC046C9
:102920000010024000040140000001400004004883
:1029300000080048000C00480010004803691942D4
:1029400001D0012000E000207047C046002A01D0DD
:10295000816100E081627047F0B54F464646C0B4E1
:1029600083B0041C0068C0076CD5B74B5B680C22B1
:102970001340042B0DD0B44B5B681340082B10D1CF
:10298000B14B5B68C02252021A4080235B029A421C
:1029900007D1AD4B1B68990354D56268002A51D109
:1029A00062E26368012B06D1A74B196880225202AC
:1029B0000A431A6022E0002B09D1A34B1968A34AED
:1029C0000A401A601968A24A0A401A6016E0052BEC
:1029D0000BD19D4B19688022D2020A431A601968F4
:1029E000802252020A431A6008E0974B1968974AFE
:1029F0000A401A601968964A0A401A606368002BF8
:102A000010D002F053FD071C8F4E8025AD0205E06B
:102A100002F04CFDC31B642B00D927E233682B4224
:102A2000F6D00FE002F042FD071C874E8025AD0274
:102A300005E002F03BFDC31B642B00D918E23368AC
:102A40002B42F6D12068800757D57F4B5B680C225C
:102A50001A420DD07C4B5B681340082B19D17A4B7E
:102A60005A68C0235B021A4080231B029A4210D18D
:102A7000754B1B68990703D5E268012A00D0F9E17C
:102A8000714B1A68F8218A432069C1000A431A6011
:102A900033E0E16800291CD06B4B196801220A431E
:102AA0001A6002F003FD071C674E022505E002F0E4
:102AB000FDFCC31B022B00D9DEE133681D42F6D0BA
:102AC000614B1A68F8218A432069C1000A431A60E1
:102AD00013E05D4B1A6801218A431A6002F0E6FC9C
:102AE000071C594E022505E002F0E0FCC31B022B37
:102AF00000D9C3E133681D42F6D1216809072BD5FF
:102B0000E269002A14D0504B596A01220A435A62E2
:102B100002F0CCFC071C4C4E022505E002F0C6FC7E
:102B2000C31B022B00D9ABE1736A1D42F6D013E040
:102B3000454B5A6A01218A435A6202F0B7FC071CCE
:102B4000414E022505E002F0B1FCC31B022B00D967
:102B500098E1736A1D42F6D123685B0700D48FE0C9
:102B6000394BDB69D8000CD4374BD9698022520528
:102B70001143D961DB691A400192019B012188460A
:102B800001E000229046334B1B68D80515D4314B29
:102B90001968802252000A431A6002F087FC071C61
:102BA0002C4E80256D0005E002F080FCC31B642BD9
:102BB00000D969E133682B42F6D0A368012B05D117
:102BC000214B196A01220A431A6220E0002B09D125
:102BD0001D4B1A6A01218A431A621A6A04218A4328
:102BE0001A6214E0052B09D1174B196A04220A4313
:102BF0001A62196A01220A431A6208E0124B1A6A21
:102C000001218A431A621A6A04218A431A62A1685E
:102C1000002911D002F04AFC81460B4E02250E4FCE
:102C200006E002F043FC4A46831ABB4200D92DE17C
:102C3000336A1D42F5D01BE002F038FC8146024E9B
:102C40000225054F11E0C04600100240FFFFFEFFC5
:102C5000FFFFFBFF007000408813000002F026FC1D
:102C60004946431ABB4200D912E1336A1D42F5D1ED
:102C70004246012A04D1934BD969934A0A40DA614A
:102C80002368DB064AD56369012B20D18D4B596B34
:102C900004220A435A63596B01220A435A6302F021
:102CA00005FC071C874E022505E002F0FFFBC31B55
:102CB000022B00D9EEE0736B1D42F6D0814B5A6BAC
:102CC000F8218A43A069C1000A435A6326E005330C
:102CD0000CD17C4B5A6B04218A435A635A6BF821FE
:102CE0008A43A069C1000A435A6317E0754B596BC8
:102CF00004220A435A635A6B01218A435A6302F041
:102D0000D5FB071C6F4E022505E002F0CFFBC31B6D
:102D1000022B00D9C0E0736B1D42F6D121688906F1
:102D200048D5684B5B680C2213400C2B0BD0654BCD
:102D30005B681340082B0FD1624B5A68C0235B02BB
:102D40001A409A4208D15F4B5B6BDA0332D5236A93
:102D5000012B00D0A2E02DE0206A002816D0594BAC
:102D6000596B802252020A435A6302F09FFB071CF0
:102D7000544E80256D0205E002F098FBC31B022B28
:102D800000D98DE0736B2B42F6D013E04D4B596B9D
:102D90004E4A0A405A6302F089FB071C494E8025BF
:102DA0006D0204E002F082FBC31B022B7AD8736B26
:102DB0002B42F7D1636A002B76D0424A52680C212D
:102DC0000A40082A72D0022B38D13E4B1968404A7B
:102DD0000A401A6002F06AFB071C3A4E8025AD04D7
:102DE00004E002F063FBC31B022B61D833682B4263
:102DF000F7D1344BDA6A0F218A43216B0A43DA6236
:102E00005968344A1140E06AA26A02430A435A6090
:102E10001968802252040A431A6002F047FB061C1C
:102E2000284D8024A40404E002F040FB831B022B05
:102E300040D82B682342F7D000203EE0214B196890
:102E4000234A0A401A6002F031FB061C1D4D802403
:102E5000A40404E002F02AFB831B022B2CD82B686D
:102E60002342F7D1002028E0012026E0032024E0BF
:102E7000032022E0012020E003201EE003201CE0CC
:102E800003201AE0032018E0032016E0032014E0DA
:102E9000032012E0032010E003200EE001200CE0EC
:102EA00003200AE0032008E0002006E0012004E0FF
:102EB000032002E0032000E0032003B00CBC904696
:102EC0009946F0BD00100240FFFFFFEFFFFFFEFF3D
:102ED000FFFFFFFEFF7FC2FF10B588B01E4C04A8A5
:102EE000211C102204F0ECF8211C1031684610223D
:102EF00004F0E6F8194B5B680C221A40082A03D04C
:102F00000C2A25D0164824E09A02120F04A98C5CE2
:102F1000124AD26A0F210A406846815CC0225202DE
:102F2000134080225202934204D10D48FDF7F8F875
:102F300060430EE0C0225202934204D10948FDF7DB
:102F4000EFF8604305E00648FDF7EAF8604300E06B
:102F5000044808B010BDC046E885000800100240D3
:102F600000127A00006CDC02F8B54F464646C0B449
:102F7000051C0C1C664B1B68012213408B4209D2B6
:102F8000634B19689143214319601B681A40A242A0
:102F900000D0A5E02968890706D55E4B5A68F02164
:102FA0008A43A9680A435A602A68D2076FD56B68BA
:102FB000012B04D1574A1268910313D492E0022BDB
:102FC00004D1544A126891010CD48DE0032B04D132
:102FD000504A526BD10305D488E04E4A12689107DB
:102FE00000D485E04B4A5168032081430B43536072
:102FF00002F05CFA061C6B68012B11D105E002F0AF
:1030000055FA801B484505D974E0424A90460C2782
:10301000414B994641464B683B40042BEFD136E08B
:10302000022B11D105E002F041FA801B484505D979
:1030300062E0384A90460C27374B994641464B6828
:103040003B40082BEFD122E0032B17D105E002F023
:103050002DFA801B484505D950E02E4A90460C2792
:103060002D4B994641464B683B400C2BEFD10EE06F
:1030700002F01CFA801B484505D941E0254A9046DC
:103080000C27254B994641464B681F42F0D1204BF7
:103090001B6801221340A34208D91D4B19689143B4
:1030A000214319601B681A40A2422BD12A6852079B
:1030B00006D5184B5968194A0A40E9680A435A600C
:1030C000FFF70AFF134B5B681B061B0F144AD35C08
:1030D000D840144B1860002002F0BEF9002012E026
:1030E000012010E001200EE001200CE001200AE0A8
:1030F000012008E0032006E0032004E0032002E0B2
:10310000032000E001200CBC90469946F8BDC04663
:10311000002002400010024088130000FFF8FFFF6B
:10312000C886000800000020014B18687047C046A0
:10313000000000207047C04610B5041E0DD0037972
:10314000002B02D14371FFF7F5FF02232371002307
:10315000236101232371002000E0012010BDC0463F
:1031600010B582B00024019400680190002904D1B8
:10317000019952180832019203E001995218143251
:103180000192019A1360002002B010BD70B5C46BAB
:103190000125066CB5406560046863604368102BC8
:1031A00004D103689A600368D96003E003689960FA
:1031B0000368DA6070BDC04610B5041C0268054B98
:1031C000D0181421FCF7ACFF80002064024BE363AD
:1031D00010BDC046F8FFFDBF0000024038B5041E18
:1031E00024D021250223435503681968104A114051
:1031F000426880680243E0680243206902436069D4
:103200000243A0690243E06902430A431A60201C9A
:10321000FFF7D2FF0023A362E36223636363A36328
:10322000012262552022A354002000E0012038BD75
:103230000FC0FFFF70B5041C2020205C012832D095
:103240000125202025542120205C012826D102259B
:10325000212025540020A063206805680126B5437D
:103260000560201CFFF792FFE36A002B05D023685E
:1032700019680E220A431A6009E0236819680A22B5
:103280000A431A6023681A6804218A431A60236873
:10329000196801220A431A60002005E00022202359
:1032A000E254022000E0022070BDC04638B5C36B76
:1032B0001B6801680C68026C042595402B4212D0F3
:1032C000650710D50B689A0603D40B680422934354
:1032D0000B60C36B0422046CA2405A60C36A002BCB
:1032E00038D0984736E0022595402B4218D0A507E4
:1032F00016D50B689A0606D40B680A2293430B6016
:1033000001222123C254C36B0222046CA2405A60E2
:1033100000222023C254836A002B1BD0984719E057
:10332000082595402B4215D0250713D50B680E2292
:1033300093430B60C26B0123191C046CA1405160C4
:1033400083632122835400222023C254036B002B69
:1033500000D0984738BDC0467047C04608B50248FF
:10336000FFF7A4FF08BDC04650030020FEE7C0469B
:103370007047C0467047C04608B502F08FF802F0AB
:1033800067F808BD08B5024801F0EAFA08BDC04672
:103390001003002008B5024801F0E2FA08BDC0465B
:1033A000F801002008B5024801F0DAFA08BDC0466D
:1033B000D002002008B5034801F0D2FA02F016F955
:1033C00008BDC0463802002008B5024801F054F993
:1033D00008BDC0460406002008B51A4B1A681A4BEF
:1033E0009A420BD1194A174B1A60194B83F308887C
:1033F000184B1B68184A13609847FEE7174B19686B
:103400000122114319605868154901405960186834
:10341000144901401960186813490140196058683F
:10342000124901405960D96A0F208143D962186B53
:103430000F4901401963596B9143596300229A6007
:1034400008BDC046F03F0020EFBEADDEEDFEFECA77
:103450005022002004C8FF1FE80100200010024095
:103460000CB8FF08FFFFF6FEFFFFFBFFFFFFC0FFEA
:103470002CFEFCFF00B583B0124B99690122114369
:10348000996199690A400092009AD969802252058F
:103490001143D961DB691A400192019B052040422A
:1034A0000021002201F06AFF022040420021002298
:1034B00001F064FF012040420021002201F05EFF84
:1034C00003B000BD0010024010B586B0041C3B4B99
:1034D00002689A4211D13A4B99698022D202114373
:1034E00099619B691A400092009B162002210022DC
:1034F00001F044FF162001F073FF324B22689A421C
:1035000011D12F4BD969802252001143D961DB6957
:103510001A400192019B13200221002201F02EFF8C
:10352000132001F05DFF284B22689A4211D1244BF1
:10353000996980225202114399619B691A40029253
:10354000029B14200221002201F018FF142001F038
:1035500047FF1A4B22689A4211D1194B9969802270
:10356000D202114399619B691A400392039B162072
:103570000221002201F002FF162001F031FF80231A
:10358000DB0522689A4208D10D4BD969012211430B
:10359000D961DB691A400492049B22680B4B9A4262
:1035A00009D1074B996980221201114399619B69E6
:1035B0001A400592059B06B010BDC0460048014068
:1035C000001002400020004000400140002C01405B
:1035D00000B587B003688022D205934213D1082337
:1035E0000193022302930322049205930F4801A939
:1035F000FFF7B2F80F200221002201F0BFFE0F20DA
:1036000001F0EEFE10E00A4A93420DD180235B00E8
:1036100001930223029303930322049205939020C3
:10362000C00501A9FFF798F807B000BD00040048E5
:10363000002C014030B587B0041C1B4B02689A4235
:103640002FD11A4B996980229200114399619B698D
:103650001A400092009B0723019303230293002545
:1036600003959020C00501A9FFF776F81048114B8B
:103670000360456085608023C3605B000361802335
:10368000DB00436120238361C561FFF7A7FD0028AC
:1036900004D009481A21FF3102F042F8044BE363D9
:1036A0005C6207B030BDC0460024014000100240FB
:1036B0005003002008000240D8860008F0B53C23E3
:1036C000C35C012B1ED03C230124C4543D2202259F
:1036D000855405686E687027BE436E6005686E6825
:1036E0000F683E436E600568AE688027BE43AE60DB
:1036F0000568AE6849683143A96084540022C25409
:10370000002000E00220F0BD70B53C23C35C012B1B
:1037100028D03C230124C4543D2202258554124D57
:10372000CE6835408E683543104E35404E6835437F
:103730000F4E35400E6835430E4E35400E69354309
:103740000D4E35404E6935430C4E354089690D4369
:103750000B4E354029430568696484540022C254E5
:10376000002000E0022070BDFFFCFFFFFFFBFFFF19
:10377000FFF7FFFFFFEFFFFFFFDFFFFFFFBFFFFFD1
:10378000FF7FFFFF7047C0467047C04610B50C066C
:1037900007D57F242140CC00611A890028314018C8
:1037A00005E0CC00611A89000931FF314018002A78
:1037B00002D18272838004E001228272C3801B0CDA
:1037C0000381002010BDC04670B5041E53D0EA230B
:1037D000FF33C35C002B05D10022F4235B00C254ED
:1037E00002F082FB0322EA23FF33E2540023012686
:1037F00000210CE0DA00D21A9200A218101C283026
:1038000046700370C17051639163D1630133656881
:103810009D42EFD80023002212E0D900C91A890086
:10382000611884267600881942700370C270882659
:103830007600881942601931FF310A604A6001330D
:10384000AB42EAD3402301222068C2520022216801
:10385000CA52442126687252502120684252074AB7
:103860002168CA5224230022E254EA23FF330122B2
:10387000E254002000E0012070BDC04600BFFFFF01
:1038800002685823D05A802109020143D1520020F6
:103890007047C046F4235B00C35C012B12D00122A9
:1038A000F4235B00C254002904D180224C23016818
:1038B000CA5201E02423C1540022F4235B00C25405
:1038C000002000E00220704770B5CDB26CB2002C31
:1038D00007DA7F240C40E600341BA40028340419C6
:1038E00007E07F240C40E600341BA4000934FF34B9
:1038F00004197F2631402170ED096570E260E370A4
:10390000F4235B00C35C012B00D151E10122F423BD
:103910005B00C254E378012B27D0002B04D0022B8C
:103920000ED0032B15D02BE023789B000168CB1819
:103930001988A04A0A40802189000A431A801FE0A2
:1039400023789B000268D31819889A4A0A401A8083
:1039500016E023789B000568EB181988954A0A4001
:10396000C021C9000A431A800AE023789B0001683D
:10397000CB1819888F4A0A408021C9000A431A804F
:10398000227893000568EB181D888B4929400A436B
:103990008A490A431A80A37A002B6FD16378002BDF
:1039A00026D003685022995A2278D2008A18D31858
:1039B0008021C9005B18A28801218A431A802378DC
:1039C0009B000268D3181A88550604D57A490A4024
:1039D0007B490A431A8023789B000168CB18198819
:1039E000784A0A4020214A4074490A431A80D9E0A3
:1039F000036850229D5A2178C9006918CB18724D6E
:103A00005B19A1880125A94319800368995A227876
:103A1000D2008A18D3186D495A18E3683E2B0BD987
:103A2000590989B2DD0601D1013989B289028023A1
:103A30001B021943118007E0590889B2DD0701D53F
:103A4000013189B28902118023789B000168CB186B
:103A50001A88550404D558490A405D490A431A801A
:103A600023789B000168CB1819885A4A0A40C02164
:103A700089014A4051490A431A8093E023789B0008
:103A80000268D3181988544A0A4054490A431A80D4
:103A9000036850215D5A2278D200AA18D3188025D5
:103AA000ED005B19E588012295431D8003685D5A8E
:103AB0002178C9006918CB1843495B1821899143C3
:103AC00019806378002B38D123789B000268D318C3
:103AD0001A88550404D538490A403D490A431A80DA
:103AE00023789B000168CB181A88550604D5324903
:103AF0000A4033490A431A8023789B000168CB1897
:103B000019882D4A0A402E490A431A8023789B00BF
:103B10000268D31819882F4A1140C02292015140DF
:103B20002F4A1143198023789B000568EB181C88E5
:103B3000244921400A431A8034E023789B0001681D
:103B4000CB181A88550404D51B490A4020490A435A
:103B50001A8023789B000168CB181A88550604D573
:103B600015490A4016490A431A8023789B000168C8
:103B7000CB181988104A0A4015490A431A8023783D
:103B80009B000268D31819880E4A1140144A114349
:103B9000198023789B000568EB181C880D4921408B
:103BA0000A431A800022F4235B00C254002000E084
:103BB000022070BD8F89FFFF0F0F00008080000082
:103BC000C0800000BF8FFFFF040400000604000057
:103BD00080C000008FBFFFFF0F0E0000808100003B
:103BE0008080FFFF10B5CAB253B2002B07DA7F23E3
:103BF0000B40DC00E31A9B002833C31807E07F2347
:103C00000B40DC00E31A9B000933FF33C3187F2409
:103C100021401970D2095A70F4225200825C012AA4
:103C200000D1ABE00121F422520081549A7A002A9B
:103C300030D15A78002A16D01A78920001688A1872
:103C400011884C0604D54E4C21404E4C2143118026
:103C50001B789B000168CB1819884B4A0A404B49D6
:103C60000A431A8084E01A7892000468A218118826
:103C70004C0404D5424C2140454C214311801B7813
:103C80009B000168CB181988424A0A403F490A4301
:103C90001A806DE05A78002A35D11A7892000468AB
:103CA000A21811884C0404D5354C2140384C2143CE
:103CB00011801A78920001688A1811884C0604D580
:103CC0002F4C21402F4C214311801A78920001681B
:103CD0008A1814882A4921402A4C214311801978D6
:103CE0008900026851180C882A4A14402A4A144351
:103CF0000C801B789B000468E3181C882249214033
:103D00000A431A8034E01A78920001688A181188F0
:103D10004C0404D51A4C21401D4C214311801A78C3
:103D2000920001688A1811884C0604D5144C214071
:103D3000144C214311801A78920001688A18148863
:103D40000F492140124C21431180197889000268E3
:103D500051180C880C4A14400F4A14430C801B78ED
:103D60009B000468E3181C880A4921400A431A8012
:103D70000022F4235B00C254002000E0022010BDAA
:103D80000F0F0000C0800000BF8FFFFF8080000089
:103D900080C000008FBFFFFF8080FFFF30B57F2411
:103DA0002140CC00641AA4000934FF3404192261B4
:103DB00063610023A36163702170F4235B00C35C23
:103DC000012B00D1A1E00122F4235B00C2546369FE
:103DD000E268934203D99B1A6361131C01E000223D
:103DE0006261A27A002A1FD102685021555A2178B7
:103DF000C90069188A18464952183E2B0BD959092F
:103E000089B2DD0601D1013989B2890280231B0202
:103E10001943118066E0590889B2DD0701D50131E7
:103E200089B2890211805DE06278002A1FD10268A0
:103E30005021555A2178C90069188A1835495218F5
:103E40003E2B0BD9590989B2DD0601D1013989B25E
:103E5000890280252D022943118014E0590889B276
:103E6000DD0701D5013189B2890211800BE0012AF9
:103E700009D102685021555A2178C90069188A1859
:103E80002449521813806278002A1FD102685021F9
:103E9000555A2178C90069188A181D4D52193E2BB0
:103EA0000BD9590989B2DD0601D1013989B28902DC
:103EB00080231B021943118014E0590889B2DD07E1
:103EC00001D5013189B2890211800BE0012A09D1A3
:103ED00002685021555A2178C90069188A180C497E
:103EE0005218138023789B000268D31819880A4A55
:103EF0000A40C02189014A4008490A431A80002229
:103F0000F4235B00C254002000E0022030BDC04614
:103F100006040000020400008FBFFFFF8080000045
:103F200010B5F4235B00C35C012B4AD00122F423BB
:103F30005B00C254CAB253B2002B07DA7F230B4096
:103F4000DC00E31A9B002833C31805E0CB005B1AA2
:103F50009B000933FF33C31801249C707F24214048
:103F60001970D2095A7000290BD1890003685918B9
:103F70000A88154B1340154A5340154A13430B80CA
:103F800019E0002A0BD08900036859180A88114BE0
:103F90001340102253400E4A13430B800BE089005C
:103FA000036859180A880C4B134080225201534071
:103FB000074A13430B800022F4235B00C254002005
:103FC00000E0022010BDC046BFBFFFFF1010000080
:103FD00080800000BF8FFFFF8FBFFFFF10B5CAB208
:103FE00053B2002B07DA7F230B40DC00E31A9B005F
:103FF0002833C31805E0CB005B1A9B000933FF335D
:10400000C31800249C707F2421401970D2095A7073
:10401000F4225200825C012A3ED00121F422520097
:1040200081545A78002A18D01A78920001688A18A8
:1040300011884C0604D5194C2140194C214311809C
:104040001B789B000168CB181988164A0A4030215A
:104050004A4015490A431A8018E01A789200046809
:10406000A21811884C0404D50C4C21400F4C21435C
:1040700011801B789B000168CB1819880C4A0A40F4
:10408000C02189014A4008490A431A800022F423CA
:104090005B00C254002000E0022010BD0F0F0000A2
:1040A000C0800000BF8FFFFF8080000080C0000044
:1040B0008FBFFFFF10B501335B0812188020C000CE
:1040C000121807E00C784878000220431080023173
:1040D000013B0232002BF5D110BDC04670B5051C66
:1040E0007F200140CC00641AA40028342C192261DE
:1040F00063610023A361012363702170F4235B00DB
:10410000EB5C012B00D1B2E00122F4235B00EA5406
:104110006369E268934203D99B1A6361131C01E04F
:1041200000226261A27A002A11D19EB2A288286878
:104130002169331CFFF7BEFF2B685022995A227861
:10414000D2008A18D3184B481B181E807DE02A68BD
:1041500021788800105A46062CD5607800281DD199
:104160005020105AC90041188A18434812183E2B93
:104170000BD9590989B2DE0601D1013989B2890208
:10418000802000020143118012E0590889B2D8074B
:1041900001D5013189B28902118009E0012807D1D6
:1041A0005020105AC90041188A18334952181380F8
:1041B00022892BE0607800281DD15020105AC900B8
:1041C00041188A182B4E92193E2B0BD9590989B2E6
:1041D000D80601D1013989B2890280200002014349
:1041E000118012E0590889B2DE0701D5013189B288
:1041F0008902118009E0012807D15020105AC90016
:1042000041188A181B4812181380E2889BB228684C
:104210002169FFF74FFF6378002B0AD123789B00B9
:104220002968CB181988154A0A4015490A431A808B
:104230000BE0012B09D123789B002A68D318198839
:104240000E4A0A400F490A431A8023789B002E68C1
:10425000F31819880C4A0A4030214A400B490A4396
:104260001A800022F4235B00EA54002000E00220C0
:1042700070BDC04602040000060400000F0F0000DD
:10428000C080000080C00000BF8FFFFF8080000062
:1042900010B55C0812188020C000121806E01088C3
:1042A0000870000A4870013C02320231002CF6D13D
:1042B000D80701D513880B7010BDC046F0B55F4616
:1042C00056464D464446F0B483B0041C002201AB70
:1042D0001A8044276D4606350F208046B3E12E88AC
:1042E00041460E4000D0AAE02B88DA062BD4028883
:1042F000B24B1340038023685022995A2822A25CB3
:10430000D2008A18D318AE4E9B191B889B059B0DB3
:104310002364A06BC318A363201C002101F01CFEC2
:104320002423E35C002B00D18DE1E16B002900D058
:1043300089E12423E15C802211434C222668B1529A
:104340000022E2547FE1028801AB1A801B88190524
:104350001FD55023C25A84235B00E35CDB00D318D3
:104360001B18984A9B181B889B059B0D842676007A
:10437000A2199361F6267600A1199288FFF788FFAB
:1043800023681988904A0A401A80201C01F0CAFD4F
:1043900059E101AB1B881BB2002B00DB53E1028803
:1043A000894B1340038020685023C25A84235B004A
:1043B000E35CDB00D3181B1882495B181B889B0544
:1043C0009B0D84267600A2199361002B08D0161C41
:1043D00092883169FFF75CFF3069B1694318336136
:1043E000201C002101F0A8FD236850229A5A9B1836
:1043F000744E9A19842040002318DB683E2B0BD999
:10440000590989B2DE0601D1013989B289028023B6
:104410001B021943118007E0590889B2D80701D55A
:10442000013189B28902118023681988674A0A40DC
:10443000C02189014A4066490A431A8003E1B1005C
:10444000894623685A5A01AB1A801B881BB2002B7D
:1044500000DB73E0484402885B4B13400380F300A9
:104460009B1B9B000933FF331B199A469B7A002B39
:1044700013D120685023C25A51460B78DB00D31861
:104480001B18504A9B181B889B059B0D9B463BD0D5
:104490008A880969FFF7FCFE36E0206851460B78F0
:1044A0009A00825A510412D55022825ADB00D31846
:1044B0001B18434A9B181B889B059B0D9B4618D0D5
:1044C0005346DA8819695B46FFF7E2FE11E0502295
:1044D000825ADB00D3181B183A495B181B889B05CE
:1044E0009B0D9B4605D053461A8919695B46FFF719
:1044F000CFFE504603789B002168CB181988354AB7
:104500000A4035490A431A8050468269131C5B44AD
:10451000836101690A1C5A4402614369002B02D07D
:10452000C068834505D252461178201C01F004FD75
:1045300004E050460178201CFFF730FC01AB1B88DB
:10454000190600D47FE0F3009E1BB6002836A6199A
:104550002268131C4B441988184A0A401A80B37AFF
:10456000002B13D123685022995A3278D2008A182E
:10457000D31813481B181B889B059B0DB36148D0AB
:10458000B28820683169FFF795FD42E023683278F0
:104590009100595A480621D55021595AD2008A18FB
:1045A000D31807495B181B889B059B0DB36126D068
:1045B000F28820683169FFF77DFD20E00F8FFFFF53
:1045C00002040000060400008F0F00008FBFFFFFF1
:1045D000808000000F0F0000C08000005021595A59
:1045E000D2008A18D318204A9B181B889B059B0D64
:1045F000B36104D0328920683169FFF75BFD3378FD
:104600009B002068C3181988184A0A4018490A43B1
:104610001A8023685022985A3178CA008218D31819
:10462000144A9B181A889205920DB26133699A1840
:1046300032617369002B03D1201C01F08DFC02E074
:10464000201CFFF74BFD2068C35B9BB22B801BB285
:10465000002B00DA43E6002003B03CBC90469946AC
:10466000A246AB46F0BDC046060400000F0F000096
:1046700080C000000204000038B5041C4423016817
:10468000CB5A1BB2002B01DAFFF718FE2368442235
:104690009A5A51050BD54422985A344901409952EF
:1046A000201C01F06FFC201C0021FFF7F3F82368A9
:1046B00044229A5A510404D54422985A2C49014064
:1046C0009952236844229A5A910404D54422985A54
:1046D000284901409952236844229A5AD10410D59E
:1046E0004022995A042081439952234B21688B52CE
:1046F000201C01F065FC23684422985A1F490140A0
:104700009952236844229A5A110516D54422985A80
:104710001B490140995221684023CD5A0820284363
:10472000C8522168CD5A04202843C85221688B5AA8
:10473000DA0402D4201C01F031FC236844229A5A86
:10474000910507D54422985A0E4901409952201CE0
:1047500001F010FC236844229A5AD10504D5442262
:10476000985A09490140995238BDC046FFFBFFFFE6
:10477000FFBFFFFFFFDFFFFF00BDFFFFFFEFFFFFFA
:10478000FFF7FFFFFFFDFFFFFFFEFFFF30B5036AEE
:10479000012293430362026A436884697325AC4330
:1047A0000D682C430225AA438D682A43144DA84264
:1047B00008D0144DA84205D0134DA84202D0134D85
:1047C000A84205D10825AA43CD682A430425AA4357
:1047D0000B4DA84208D00B4DA84205D00A4DA84267
:1047E00002D00A4DA84205D1094D2B404D692B43FB
:1047F0008D692B43436084614B684363026230BD23
:10480000002C0140004001400044014000480140AC
:10481000FFFCFFFF70B5026A194B13400362056A83
:104820004368C469732294430A681443154A2A40B2
:104830008E6835022A43144DA84206D1134D2A40F2
:10484000CE6835022A43124D2A400F4DA84208D0A7
:10485000104DA84205D0104DA84202D00F4DA842DD
:1048600007D10F4D2B404E6935012B438E69350121
:104870002B434360C4614B68C363026270BDC04692
:10488000FFFEFFFFFFFDFFFF002C0140FFF7FFFFD2
:10489000FFFBFFFF00400140004401400048014091
:1048A000FFCFFFFF70B5026A134B13400362056A26
:1048B0004368C469114A14400E6832021443104A16
:1048C0002A408E6835032A430E4DA84208D00E4D6B
:1048D000A84205D00D4DA84202D00D4DA84204D1EA
:1048E0000C4D2B404E69B5012B434360C4614B68AE
:1048F0000364026270BDC046FFEFFFFFFF8CFFFF45
:10490000FFDFFFFF002C0140004001400044014058
:1049100000480140FFBFFFFF10B53D230222C254F3
:1049200001680C68012214430C60C254002010BDC1
:104930000368D96801221143D960036819680A43E2
:104940001A6000207047C0467047C0467047C04696
:104950007047C0467047C0467047C0467047C04663
:1049600010B5041C03681A69910715D5DA68910718
:1049700012D5032252421A610123037703689B690F
:104980009A0702D0FFF7E6FF04E0FFF7E1FF201CE3
:10499000FFF7E2FF0023237723681A69510719D52F
:1049A000DA68510716D5052252421A61022323778D
:1049B00023689A69C0239B001A4203D0201CFFF78A
:1049C000C9FF05E0201CFFF7C3FF201CFFF7C4FF51
:1049D0000023237723681A69110717D5DA681107AE
:1049E00014D5092252421A61042323772368DB6914
:1049F0009A0703D0201CFFF7ADFF05E0201CFFF74E
:104A0000A7FF201CFFF7A8FF0023237723681A695C
:104A1000D10619D5DA68D10616D5112252421A618B
:104A2000082323772368DA69C0239B001A4203D046
:104A3000201CFFF78FFF05E0201CFFF789FF201CDB
:104A4000FFF78AFF0023237723681A69D10708D567
:104A5000DA68D10705D5022252421A61201C00F003
:104A60001BFE23681A69110608D5DA68110605D5F8
:104A7000812252421A61201CFEF786FE23681A69C1
:104A8000510608D5DA68510605D5412252421A610D
:104A9000201CFFF763FF23681A69910608D5DA68BE
:104AA000910605D5212252421A61201CFEF76AFEAA
:104AB00010BDC0460368214A904206D08022D2052C
:104AC000904202D01E4A904203D1702293434A681A
:104AD00013431A4A904212D08022D20590420ED03F
:104AE000174A90420BD0174A904208D0164A90427B
:104AF00005D0164A904202D0154A904203D1154A79
:104B00001340CA681343802293434A6913430360E6
:104B10008B68C3620A688262084B984208D00A4BCD
:104B2000984205D0094B984202D0094B984201D1D6
:104B30000B690363012343617047C046002C0140A9
:104B400000040040002000400040014000440140BB
:104B500000480140FFFCFFFF38B5041E13D03D2381
:104B6000C35C002B04D100223C23C254FEF7ACFCF2
:104B70003D2502236355211C01C9FFF79BFF01233B
:104B80006355002000E0012038BDC04638B5041E42
:104B900013D03D23C35C002B04D100223C23C2541C
:104BA000FFF7D2FE3D2502236355211C01C9FFF703
:104BB00081FF01236355002000E0012038BDC0467D
:104BC00070B5041C0E1C00281CD03D23C35C002BB8
:104BD00004D100223C23C254FFF7B8FE3D25022336
:104BE0006355211C01C9FFF765FF23681A68082176
:104BF0008A431A6023681A6816431E6001236355AE
:104C0000002000E0012070BD70B5036A10229343BC
:104C10000362026A43688569164C2C400E683502AF
:104C20002C432025AA438E6835012A43124DA84201
:104C300006D18025AA43CE6835012A434025AA43E0
:104C40000D4DA84208D00D4DA84205D00C4DA842EC
:104C500002D00C4DA84207D10B4D2B404E69B50038
:104C60002B438E69B5002B43436084614B6883639B
:104C7000026270BDFF8CFFFF002C0140004001402C
:104C80000044014000480140FFF3FFFF38B5041C19
:104C90000D1C3C23C35C012B6BD001213C23C15470
:104CA00002213D23C154042A1CD002D8002A05D079
:104CB00057E0082A2CD00C2A3ED052E00068291C6C
:104CC000FFF764FD2368996908220A439A61236803
:104CD0009A6904218A439A61236899692A690A4377
:104CE0009A613EE00068291CFFF78EFF23689969EE
:104CF000802212010A439A61236899691E4A0A4078
:104D00009A61236899692A6912020A439A6128E024
:104D10000068291CFFF77EFD2368D96908220A4331
:104D2000DA612368DA6904218A43DA612368D96980
:104D30002A690A43DA6114E00068291CFFF7B2FD12
:104D40002368D969802212010A43DA612368D9698C
:104D5000094A0A40DA612368D9692A6912020A43BA
:104D6000DA6101223D23E25400223C23E254002078
:104D700000E0022038BDC046FFFBFFFF10B5012454
:104D80008C40036AA3430362036A8A40111C1943DF
:104D9000016210BD10B5041C04290ED002D80029F0
:104DA00005D01BE008290ED00C2912D016E00368AC
:104DB000D86802220243DA6010E00368D86804224F
:104DC0000243DA600AE00368D86808220243DA6026
:104DD00004E00368D86810220243DA6020680122E8
:104DE000FFF7CCFF2368114A93420AD0104A93423E
:104DF00009D0104A934208D00F4A934207D10122AA
:104E000006E0012204E0012202E0012200E000228B
:104E1000002A04D0596C802212020A435A64236883
:104E2000196801220A431A60002010BD002C0140BD
:104E300000400140004401400048014010B5041CFE
:104E4000006800210122FFF799FF20680421012258
:104E5000FFF794FF23680F4A93420AD00E4A934209
:104E600009D00E4A934208D00D4A934207D101223D
:104E700006E0012204E0012202E0012200E000221B
:104E8000002A04D0596C802212020A435A6400207E
:104E900010BDC046002C01400040014000440140CC
:104EA0000048014070B582B0041C002301930368E0
:104EB0009A6803210A40012A07D11A68D10706D44B
:104EC000DA68110405D4002204E0002202E0012285
:104ED00000E00122002A38D199681D4A114209D008
:104EE000626C102313436364A26C01231343A36415
:104EF00001202BE0996801220A439A60154B18683B
:104F00001549FBF70DF9019002E0019B013B01936C
:104F1000019B002BF9D100F0C9FA061C01250EE017
:104F200000F0C4FA831B022B09D9626C10231343CF
:104F30006364A26C01231343A364012006E0236889
:104F40001B681D42ECD0002000E0002002B070BDC4
:104F5000170000800000002040420F0038B5041EFA
:104F600000D1B5E0436C002B04D18364402283540C
:104F7000FEF760FB636CD80600D5A3E023689A684F
:104F8000510700D59EE0616C524A0A4002210A4353
:104F900062649A6803210A40012A07D11A68D5077A
:104FA00006D4DA68100405D4002204E0002202E0EE
:104FB000012200E00122002A0CD1DA6818218A437C
:104FC000A1680A43DA6023681A699200920865684A
:104FD0002A431A612368D9683F4A0A40DA60A06907
:104FE0008203E169CB031343226A51030B43656BD0
:104FF000012D02D08021490100E000210B43E0682F
:1050000003432169022901D1042100E000210B435F
:10501000256B69000B43606A01280DD1002A03D17A
:1050200080225202134307E0616C20220A4362642B
:10503000A16C01220A43A264A26AC221FF318A4202
:1050400002D0E16A0A4313432268D1681943D16050
:10505000A26B802149058A420DD0012A0BD0022A79
:1050600009D0032A07D0042A05D0052A03D0062A2E
:1050700001D0072A0AD1226850690721884350616C
:1050800022685069A56B2940014351612268D168AB
:10509000124A0A409A4209D10023A364636C032296
:1050A0009343012213436364002012E0636C1222D5
:1050B0009343102213436364A26C01231343A3643C
:1050C000012006E0626C102313436364012000E0BA
:1050D000012038BDFDFEFFFF1902FEFFE7FF3F8301
:1050E000F8B5041C0F1C161C0068806843073FD4E9
:1050F0004023E35C012B3ED001224023E254E369CC
:10510000012B04D0201CFFF7CDFE051C00E000257C
:10511000002D2ED1626C194B134080225200134394
:1051200063640023A3644022A354E36B144A9A628D
:10513000E36B144ADA62E36B134A1A6323681C2296
:105140001A602368596810220A435A602368D96894
:1051500001220A43DA6021684031E06B3A1C331CBB
:10516000FEF768F82368996804220A439A6000E011
:105170000225281C00E00220F8BDC046FEF0FFFF1B
:105180009151000805520008155200087047C046AA
:1051900008B5436A5A6C502111422AD1596C8022B9
:1051A00092000A435A641A68D068C0210901084273
:1051B0001BD1186A002818D11168080715D5916805
:1051C00048070AD451680C2081435160596C0B4A3E
:1051D0000A4001210A435A6407E0596C20220A431D
:1051E0005A64996C01220A439A64181CFFF7CEFF97
:1051F00002E0DB6B1B6B984708BDC046FEFEFFFF5D
:105200007047C04608B5406AFFF7FAFF08BDC046C0
:105210007047C04608B5406A426C4023134343645C
:10522000826C042313438364FFF7F2FF08BDC0467A
:1052300030B583B0041C002301934023C35C012BD1
:1052400000D189E001224023C25403689A685007C4
:1052500073D4434A4D68954254D0986A01220D6830
:10526000AA4002439A62A36B8022520593421ED049
:10527000012B1CD0022B1AD0032B18D0042B16D0D4
:10528000052B14D0062B12D0072B10D023685A6997
:10529000072002408868904209D05869072290434D
:1052A0005861236858698D682A4002435A610B6827
:1052B0001A1C103A022A46D82A4A1068102B07D026
:1052C000112B02D18022D20304E08022520401E09B
:1052D000802212040243234B1A600B68102B34D136
:1052E000214B18682149FAF71BFF8300181840006A
:1052F000019002E0019B013B0193019B002BF9D13E
:10530000002025E09A6A01200D68A84082439A6235
:105310000B681A1C103A022A19D8124A1168102B6D
:1053200005D0112B01D1124A02E0124A00E0124AC4
:105330000A400C4B1A6000200AE0626C20231343E1
:105340006364012004E0002002E0002000E000206F
:1053500000224023E25400E0022003B030BDC046EA
:1053600001100000082701400000002040420F000B
:10537000FFFFBFFFFFFFFFFEFFFF7FFF70B50028AD
:1053800016DAC0B20F230340083B9B089B00124A69
:105390009B185D6803221040C000FF22141C84404B
:1053A000A54389010A408240281C1043586011E03F
:1053B00082080A4BC0329200D55803242040C00016
:1053C000FF24261C8640B54389010C408440281CDC
:1053D0002043D05070BDC04618ED00E000E100E071
:1053E0001F23184001238340181C014B186070478D
:1053F00000E100E001380A4B98420FD8094B586091
:10540000094A106A0002000AC0210906014311621C
:1054100000229A6007221A60002000E001207047F5
:10542000FFFFFF0010E000E000ED00E0042805D1E0
:10543000054B196804220A431A6004E0024B1A68FB
:1054400004218A431A60704710E000E07047C046AC
:1054500008B5FFF7FBFF08BD10B5041CFDF764FE9F
:10546000FA218900FAF75CFEFFF7C4FF01204042F1
:10547000211C0022FFF782FF002010BD08B5064B5B
:10548000196810220A431A600020FFF7E5FFFDF7B4
:10549000F1FF002008BDC04600200240024B1A6800
:1054A00001321A607047C046EC010020014B1868B9
:1054B0007047C046EC01002030B583B00190FFF783
:1054C000F5FF051C019C631C00D00134FFF7EEFFC3
:1054D000431BA342FAD303B030BDC04630B589B0F8
:1054E000184B59698022D2031143596159690A4006
:1054F0000092009A596980229202114359615969B8
:105500000A400192019A59698022D20211435961DD
:105510005B691A400292029B9024E40584252D02C7
:10552000201C291C0022FDF711FA03950123049386
:10553000002305930693201C03A9FDF70DF909B07C
:1055400030BDC0460010024000B583B0094B596918
:105550000122114359615B691A400192019B0920A4
:1055600000210022FFF70AFF0920FFF739FF03B0EF
:1055700000BDC0460010024070B58AB0194BDA6910
:1055800001263243DA61DB6933400093009B164CFD
:105590008023DB05236000256560A560C8231B010F
:1055A000E36080239B002361201CFFF7D5FA089558
:1055B0000995201C08A9FEF781F860230193029643
:1055C000022303930595201C01A90422FFF75EFB2B
:1055D000201C0821FFF7F4FA201CFDF7F9FF0AB0A0
:1055E00070BDC04600100240D002002010B5174C1C
:1055F0002088FBF77DF91649FAF7BAFEFAF77EFE26
:10560000144B18806088FBF773F91349FAF7B0FE62
:10561000FAF774FE041C114B1860114B1868001B3C
:10562000104B984207DC831C03DB0321FAF7C6FD0D
:1056300003E0002001E0FA2040000B4B58630B4BC5
:105640009C4202D90022084B5A6310BDF001002091
:10565000713DAA3FC4010020CDCC844190010020BF
:10566000C8010020DE050000002C0140D8D6000053
:10567000054A064B1A60BFF34F8F054A054BDA60A7
:10568000BFF34F8FC046FDE7EFBEADDEF03F002019
:105690000400FA0500ED00E038B5041C1B4B02685D
:1056A0009A421ED18023DB055B6A002B19D1184B6F
:1056B0001D68184B1888C821FAF732FD81B20A39E3
:1056C000102903DC032902DA032100E01021281C41
:1056D000FAF726FD8023DB05D862196801220A4308
:1056E0001A6022680C4B9A420ED18023DB055B6A5C
:1056F000002B09D1094B1A68D2088023DB05DA6236
:10570000196801220A431A6038BDC04600200040D3
:1057100094010020C40100200040014098010020B5
:10572000FEE7C04600B583B00D480E4B0360FDF7A1
:1057300003FD002803D00C480C49FFF7F1FF0023BC
:105740000093019306486946002200F03DFF0028BF
:1057500004D00548A6218900FFF7E2FF03B000BD91
:105760007C02002000740040F08600088F020000D8
:1057700008B50C480C4B03600B2343600023836087
:10578000FA229200C260802292000261436183612A
:10579000FFF7E2F9002803D004480549FFF7C0FFEE
:1057A00008BDC0461003002000200040F08600081D
:1057B0000D02000008B50C480C4B03600B2343603E
:1057C00000238360FA229200C2608022920002616C
:1057D00043618361FFF7C0F9002803D004480549FD
:1057E000FFF79EFF08BDC046F801002000400140C1
:1057F000F08600081D02000000B585B02A4B9969AB
:1058000080229200114399619B691A400092009B8B
:105810002648274B0360002343608360C360012256
:105820000261082141618361C36103624362836253
:105830008023DB00C36202634263FFF78FFB002813
:1058400004D01C48D221FF31FFF76AFF00230193E7
:1058500080235B01029303230393144801A9FFF7FC
:10586000E7FC002804D01348DC21FF31FFF758FF84
:10587000012301930D4801A9FFF7DAFC002804D0A9
:105880000C48E421FF31FFF74BFF02230193074847
:1058900001A9FFF7CDFC002804D00648EC21FF3118
:1058A000FFF73EFF05B000BD00100240940300204A
:1058B00000240140F086000800B593B02D4B996993
:1058C00080221201114399619B691A400192019B48
:1058D00029482A4B03600023436083608022D20062
:1058E000C260802252000261436180238361FFF71E
:1058F0004DF9002803D022482249FFF711FF202349
:105900001093002311931C4810A9FDF7D7FE00281F
:1059100003D01B481C49FFF703FF602309930023B2
:105920000A930B930C930D930E930F93124809A9AE
:105930000022FFF7ABF9002803D011481349FFF705
:10594000EFFE0023029303930493059306938022B2
:10595000920107920893084802A9FDF7D5FE002896
:1059600003D007480A49FFF7DBFE0348FDF730FE86
:1059700013B000BD0010024090020020002C014036
:10598000F08600085E02000065020000710200005F
:105990007D02000008B50C480C4B03600B234360EC
:1059A00000238360FA229200C2608022920002618A
:1059B000436180238361FFF7CFF8002803D00448B8
:1059C0000449FFF7ADFE08BD380200200048014041
:1059D000F08600082D02000000B599B030230B932B
:1059E00001231393109310231193002314930BA8F6
:1059F000FCF7B2FF002804D01C489621FF31FFF7C6
:105A00008FFE0723079303230893002309930A9328
:105A100007A80121FDF7A8FA002804D01348D121D6
:105A20004900FFF77DFE80239B020093002306932D
:105A3000684600F00DFD002804D00C48D52149002F
:105A4000FFF76EFEFDF770FBFA218900FAF768FB9D
:105A5000FFF7D0FC0420FFF7E9FC012040420021C1
:105A60000022FFF78BFC19B000BDC046F08600088D
:105A7000F0B557464646C0B483B0FFF7FFFCFFF7CA
:105A8000ABFFFFF72BFD9024E405201C80210902C9
:105A90000122FCF75BFF201C8021C9000122FCF7DA
:105AA00055FFFFF73FFEBC4C201C002100F0AAFD73
:105AB000201C0021002280231B01FDF751FBFFF772
:105AC00057FEB648FEF734FFB54B1A680124A243CF
:105AD0001A60FFF76FFEB348FEF72AFFB24B1A6851
