:020000040800F2
:10000000FF3F0020C14A0008E50D0008F90D000877
:1000100000000000000000000000000000000000E0
:10002000000000000000000000000000FB0D0008C0
:100030000000000000000000FD0D0008FF0D00089A
:10004000114B0008114B0008114B0008114B000820
:10005000114B0008114B0008114B0008114B000810
:10006000114B0008E90D0008114B0008114B000866
:10007000114B0008114B0008114B00082D0E000811
:10008000114B0008114B0008114B00080D0E000821
:100090001D0E0008114B0008114B0008114B000801
:1000A000114B0008114B0008114B0008114B0008C0
:1000B000114B0008114B0008114B00083D0E0008C1
:1000C000002934D00123002210B488422CD301240B
:1000D0002407A14204D2814202D209011B01F8E7A0
:1000E000E400A14204D2814202D249005B00F8E759
:1000F000884201D3401A1A434C08A04202D3001B85
:100100005C0822438C08A04202D3001B9C082243B7
:10011000CC08A04202D3001BDC082243002803D0F5
:100120001B0901D00909E3E7101C10BC704701B599
:10013000002000F00BF802BD0029F8D003B5FFF74E
:10014000C1FF0EBC4243891A1847C0467047C046DB
:100150008446101C62468C46191C634600E0C0466B
:100160001FB506F0BDFE002801D40021C8421FBD06
:1001700010B506F025FE4042013010BD10B506F066
:10018000AFFE002801DB002010BD012010BDC046DD
:1001900010B506F0A5FE002801DD002010BD0120ED
:1001A00010BDC04610B506F043FE002801DC00205B
:1001B00010BD012010BDC04610B506F039FE002864
:1001C00001DA002010BD012010BDC0468446081C85
:1001D0006146FFE71FB505F035FF002801D4002177
:1001E000C8421FBD10B505F0CBFE4042013010BD26
:1001F00010B505F027FF002801DB002010BD01200D
:1002000010BDC04610B505F01DFF002801DD00201F
:1002100010BD012010BDC04610B505F0D5FE002868
:1002200001DC002010BD012010BDC04610B505F056
:10023000CBFE002801DA002010BD012010BDC04611
:1002400002B4714649084900095C49008E4402BC69
:100250007047C04603B47146490840004900095A36
:1002600049008E4403BC70471C2101231B049842A3
:1002700001D3000C10391B0A984201D3000A083937
:100280001B09984201D30009043902A2105C4018EE
:100290007047C04604030202010101010000000092
:1002A0000000000010B5064C2378002B07D1054B49
:1002B000002B02D0044800E000BF0123237010BDD2
:1002C0006801002000000000AC7A0008044B10B563
:1002D000002B03D00349044800E000BF10BDC04616
:1002E000000000006C010020AC7A0008F0B5C646A2
:1002F00000B582B0002338E0042600E00026AE40BE
:1003000035003D430234A400574EA551574C256893
:100310004246D4432E0026404A68D20302D54246C4
:1003200015432E00514D2E606D682E0026404A6800
:10033000920302D5424615432E004C4D6E60AD68C7
:100340002E0026404A68D20202D5424615432E00AE
:10035000464DAE60ED682C404A68920202D5424696
:100360002A431400414AD46001330A681400DC4077
:1003700076D001259D402A409046F5D04C68022C4D
:1003800001D0122C0ED1DC080834A400275807260F
:100390001E40B6000F22B24097430A69B2401600D1
:1003A0003E43265002685F0003242600BE40F64309
:1003B000324094464A681440BC406246144304608C
:1003C0004C68621E012A03D9112C01D0122C10D1C5
:1003D00084683440A446CC68BC40624614438460C0
:1003E0004468AC434A681209012515409D402543E5
:1003F0004560C46826408C68BC403443C4604A6889
:10040000D200B1D51A4DAE6901242643AE61AD6963
:100410002C400194019C9C08A51CAD00124EAF59C4
:1004200003261E40B5000F26AE40B7439026F605C2
:10043000B04200D162E70F4EB0420BD00E4EB04238
:100440000AD00E4EB04209D00D4EB04200D153E753
:10045000052654E7012652E7022650E703264EE719
:1004600002B004BC9046F0BD000001400004014011
:10047000001002400004004800080048000C00483A
:100480000010004803690B4201D001207047002092
:10049000FCE7002A01D0816170478162FCE700001F
:1004A00070B582B004000368DB072BD5B34B5A68E4
:1004B0000C231340042B1DD0B04B5A680C2313405F
:1004C000082B0ED06368012B41D0002B56D1AB4BCB
:1004D0001A68AB490A401A601A68AA490A401A60A9
:1004E0003BE0A64B5B68C0225202134080225202BE
:1004F0009342E7D1A14B1B689B0303D56368002B94
:1005000000D136E223689B0777D59C4B5B680C22B1
:100510001A4262D0994B5A680C231340082B53D0CF
:10052000E368002B00D18AE0944A136801210B4351
:10053000136002F0F9FD0500904B1B689B0775D412
:1005400002F0F2FD401B0228F6D9032018E28B4A84
:10055000116880235B020B4313606368002B25D076
:1005600002F0E2FD0500854B1B689B03CAD402F034
:10057000DBFD401B6428F6D9032001E2052B09D0DE
:100580007E4B1A687E490A401A601A687D490A4003
:100590001A60E2E7794B19688022D2020A431A6096
:1005A0001968802252020A431A60D6E702F0BCFDA5
:1005B0000500724B1B689B03A4D502F0B5FD401BE0
:1005C0006428F6D90320DBE16C4B5B68C022520241
:1005D0001340802212029342A2D1684B1B689B07F2
:1005E00003D5E368012B00D0C5E164490B68F8220C
:1005F00093432269D20013430B6023681B0744D541
:10060000E369002B2ED05D4A536A01210B435362EC
:1006100002F08AFD0500594B5B6A9B0735D402F056
:1006200083FD401B0228F6D90320A9E153490B683A
:10063000F82293432269D20013430B60DDE74F4A4F
:10064000136801218B43136002F06EFD05004B4BD4
:100650001B689B07D1D502F067FD401B0228F6D925
:1006600003208DE1454A536A01218B43536202F016
:100670005BFD0500414B5B6A9B0706D502F054FD0C
:10068000401B0228F6D903207AE123685B0700D4D7
:1006900080E03A4BDB69DB001DD4384AD169802009
:1006A00040050143D161D36903400193019B0125BA
:1006B000354B1B68DB0510D5A368012B21D0002B1F
:1006C00036D12E4B1A6A01218A431A621A6A033103
:1006D0008A431A621AE00025EAE72B4A1168802350
:1006E0005B000B43136002F01FFD0600264B1B68E6
:1006F000DB05E1D402F018FD801B6428F6D9032045
:100700003EE11E4A136A01210B431362A368002BCA
:1007100024D002F009FD0600184B1B6A9B0737D452
:1007200002F002FD801B194B9842F5D9032027E106
:10073000052B09D0114B1A6A01218A431A621A6AE1
:1007400003318A431A62E1E70C4B1A6A04210A4317
:100750001A621A6A03390A431A62D7E702F0E4FC04
:100760000600064B1B6A9B0712D502F0DDFC801BBE
:10077000064B9842F5D9032002E1C0460010024022
:10078000FFFFFEFFFFFFFBFF00700040881300002B
:10079000012D39D02368DB0610D56369012B39D0D0
:1007A000053357D1784A536B04218B435363536B02
:1007B000F4318B43A169C9000B43536323689B0643
:1007C0006DD5714B5A680C2313400C2B60D06E4BC7
:1007D0005A680C231340082B53D0236A002B7CD07B
:1007E000694A516B80235B020B43536302F09CFC0C
:1007F0000500654B5B6BDB0351D402F095FC401B9D
:100800000228F6D90320BBE05F4AD3695F490B4059
:10081000D361BFE75C4B5A6B04210A435A635A6B9E
:1008200003390A435A6302F07FFC0500564B5B6BA9
:100830009B0706D402F078FC401B0228F6D903205F
:100840009EE051494B6BF8229343A269D2001343B7
:100850004B63B3E74C4B5A6B04210A435A635A6B00
:1008600003398A435A6302F05FFC0500464B5B6B19
:100870009B07A3D502F058FC401B0228F6D90320A1
:100880007EE0414B5B68C022520213409342A4D1E8
:100890003D4B5B6BDB0302D5236A012B6DD1636A91
:1008A000002B6CD0384A51680C220A40082A69D0C3
:1008B000022B25D0344A136835490B40136002F0EF
:1008C00033FC0400304B1B689B0150D502F02CFC1C
:1008D000001B0228F6D9032052E02B4A536B2D4906
:1008E0000B40536302F020FC0500274B5B6BDB03DE
:1008F000D5D502F019FC401B0228F6D903203FE0B1
:10090000214A136822490B40136002F00DFC0500D8
:100910001D4B1B689B0106D502F006FC401B0228FC
:10092000F6D903202CE0184BDA6A0F218A43216B99
:100930000A43DA625A6818490A40E16AA06A014328
:100940000A435A601968802252040A431A6002F06E
:10095000EBFB04000C4B1B689B0106D402F0E4FB8C
:10096000001B0228F6D903200AE0002008E000203E
:1009700006E0012004E0012002E0012000E0002068
:1009800002B070BD0120FBE700100240FFFFFFEF47
:10099000FFFFFFFEFFFFFEFFFF7FC2FF30B589B004
:1009A00004AA1F4B180032C832C2110002680A6044
:1009B0006A46103313CB13C21B681360194B5A6875
:1009C0000C231340082B04D00C2B26D0164809B05A
:1009D00030BD910C0F23194004A8445C1149C96A29
:1009E0000B406946C95CC0235B021A4080235B024E
:1009F0009A4208D0C0235B029A4209D00A48FFF706
:100A00005FFB6043E3E70848FFF75AFB6043DEE71C
:100A10000648FFF755FB6043D9E70448D7E7C046CF
:100A2000C87A00080010024000127A00006CDC0254
:100A300070B504000D005A4B1A68012313408B4215
:100A40000AD257490B68012293432B430B600B6872
:100A50001A40AA4200D09CE023689B0706D5514A61
:100A60005368F0218B43A1680B4353602368DB0775
:100A700064D56368012B09D0022B29D0032B2DD01C
:100A8000484A1268920706D4012081E0454A12685C
:100A9000920300D47FE043494A6803208243134312
:100AA0004B6002F041FB06006368012B1CD0022B57
:100AB00028D0032B34D03B4B5B680C221A423DD02C
:100AC00002F032FB801B384B9842F4D903205FE0E0
:100AD000344A12689201DED4012059E0314A526B47
:100AE000D203D8D4012053E02E4B5A680C23134074
:100AF000042B23D002F018FB801B2B4B9842F3D918
:100B0000032045E0274B5A680C231340082B15D0CF
:100B100002F00AFB801B244B9842F3D9032037E0F4
:100B2000204B5A680C2313400C2B07D002F0FCFA20
:100B3000801B1D4B9842F3D9032029E0184B1A68FB
:100B400001231340AB4209D915490B680122934395
:100B50002B430B600B681A40AA421ED123685B0727
:100B600006D5104A536811490B40E1680B435360A6
:100B7000FFF714FF0B4B5A6812090F2313400C4A5E
:100B8000D35CD8400B4B1860002002F0A2FA002082
:100B900070BD0120FCE70120FAE70120F8E7C0461C
:100BA000002002400010024088130000FFF8FFFF01
:100BB000E87A000800000020014B18687047C04622
:100BC00000000020704710B5041E0ED00379002BE2
:100BD00007D00223237100232361013323710020F6
:100BE00010BD4371FFF7EEFFF3E70120F8E710B502
:100BF00082B00024019400680190002908D1019876
:100C0000821808320192019A1360002002B010BDD0
:100C10000199891814310191F5E770B5C56B01246C
:100C2000066CB4406C60046863604368102B04D0A9
:100C3000036899600368DA6070BD03689A600368AE
:100C4000D960F9E710B504000368064A9446634486
:100C500018001421FFF734FA80002064024BE3638C
:100C600010BDC046F8FFFDBF0000024070B5041E75
:100C700024D021250223435501680B68104A1A40ED
:100C8000436880680343E068034320690343606965
:100C90000343A0690343E069034313430B6020004F
:100CA000FFF7D0FF0023A362E36223636363A363C0
:100CB000012262551F32A354002070BD0120FCE7C1
:100CC0000FC0FFFF70B504002020205C012832D047
:100CD0002020012525540130205C012804D0202348
:100CE0000022E254022070BD20300135255400203E
:100CF000A063256828680126B04328602000FFF71C
:100D00008CFFE36A002B0BD0226813680E210B4383
:100D100013602268136801210B4313600020E2E78F
:100D2000226813680A210B4313602268136806398E
:100D30008B431360EDE70220D5E770B5C36B1A68EB
:100D400004682568016C04238B401A4212D06B079B
:100D500010D523689B0603D42368042293432360A1
:100D6000C26B0423016C8B405360C36A002B00D01C
:100D7000984770BD02238B401A4218D0AB0716D596
:100D800023689B0606D423680A2293432360212309
:100D9000093AC254C26B0223016C8B40536020237A
:100DA0000022C254836A002BE3D09847E1E708236E
:100DB0008B401A42DDD02B07DBD523680E229343EC
:100DC0002360C26B01231900046CA140516083634E
:100DD000212283541F330022C254036B002BC8D03E
:100DE0009847C6E77047000010B50248FFF7A5FF17
:100DF00010BDC04604030020FEE77047704710B5E1
:100E000002F08AF902F061F910BD000010B5024845
:100E100001F029FC10BDC046C402002010B50248F4
:100E200001F021FC10BDC046EC01002010B50248C5
:100E300001F019FC10BDC0468402002010B5024824
:100E400001F0A0FA10BDC046B805002080B500AF83
:100E50001A4B1A681A4B9A4223D01A4B1A6801216E
:100E60000A431A605A68184802405A601A681748BC
:100E700002401A601A68164802401A605A681548FB
:100E800002405A60DA6A0F208243DA621A6B124813
:100E900002401A635A6B8A435A6300229A60BD4625
:100EA00080BD064B0D4A1A600D4B83F308880D4B2D
:100EB0001B680D4A13609847FEE7C046F03F0020CC
:100EC000EFBEADDE001002400CB8FF08FFFFF6FEDB
:100ED000FFFFFBFFFFFFC0FF2CFEFCFFEDFEFECA85
:100EE0005022002004C8FF1FDC01002000B583B0A1
:100EF000124B996901221143996199690A40009244
:100F0000009ADA69802149050A43DA61DB690B40FE
:100F10000193019B052000220021404202F06CF861
:100F2000022000220021404202F066F80120002247
:100F30000021404202F060F803B000BD0010024002
:100F400010B586B00400324B02689A4212D0314B81
:100F500022689A4221D0304B22689A4230D08023B6
:100F6000DB0522689A423ED022682C4B9A4244D03C
:100F700006B010BD2A4A91698020C00201439161E8
:100F8000936903400193019B00220221162002F085
:100F900033F8162002F062F8D9E7214AD16980209F
:100FA00040000143D161D36903400293029B0022B8
:100FB0000221ED3802F020F8132002F04FF8CAE7C2
:100FC000174A91698020400201439161936903406F
:100FD0000393039B00220221142002F00DF8142039
:100FE00002F03CF8BBE70E4AD16901231943D161F5
:100FF000D26913400493049BB6E7094A91698020A3
:10100000000101439161936903400593059BAFE79C
:10101000004801400020004000400140002C0140F9
:101020000010024000B587B003688022D2059342C9
:1010300004D0144A934215D007B000BD0823019391
:10104000063B029303220492059301A90E48FFF781
:101050004DF9002202210F2001F0CEFF0F2001F0F8
:10106000FDFFE9E780235B000193FE3B02930393BE
:10107000032204920593902001A9C005FFF736F9D9
:10108000DAE7C046002C01400004004830B587B0C4
:1010900004001C4B02689A4201D007B030BD1A4AC6
:1010A000916980208000014391619369034000931E
:1010B000009B07230193043B02930025039571389D
:1010C000FF3801A9C005FFF711F91048104B036064
:1010D000456085608023C360803303618023DB002B
:1010E000436120238361C561FFF7C0FD002803D160
:1010F000064BE3635C62D0E785214900054802F0B6
:10110000FFF8F5E70024014000100240040300202E
:1011100008000240F87A0008F0B53C23C35C012BBC
:101120001ED03C22012585543D2402230355066828
:1011300073687027BB437360066873680F683B432E
:1011400073600668B3688027BB43B3600668B36802
:1011500049680B43B3600555002383540020F0BD5C
:101160000220FCE770B53C23C35C012B28D03C2255
:10117000012585543D2402230355124BCE6833408C
:101180008E683343104E33404E6833430F4E334026
:101190000E6833430E4E33400E6933430D4E3340D9
:1011A0004E6933430C4E334089690B430B4E334039
:1011B0000B4301684B64055500238354002070BD28
:1011C0000220FCE7FFFCFFFFFFFBFFFFFFF7FFFF35
:1011D000FFEFFFFFFFDFFFFFFFBFFFFFFF7FFFFF0F
:1011E0007047704710B50C060CD57F242140CC0009
:1011F000611A8C0028340019002A0AD18272838077
:10120000002010BDCC00611A8C000934FF34001995
:10121000F2E701228272C3801B0C0381F0E7000019
:1012200070B5041E58D0EA23FF33C35C002B1AD0DC
:10123000EA23FF330322E25400226068904219D966
:10124000D100891A8B00E318190029310120087098
:1012500001390A7018002B3000210170596399631D
:10126000D9630132E9E7E933FF330022C25402F0C7
:10127000C7FBDDE70022904215D9D100891A8B0007
:10128000E3181D000A35FF3500212970013D2A7041
:101290000335297009352960043529601D33FF3372
:1012A00019600132E7E7402301222168CA52002277
:1012B0002168CA524421206842520C3120684252AF
:1012C000064A2168CA5200221C3BE2540122EA234A
:1012D000FF33E254002070BD0120FCE700BFFFFF98
:1012E000016858228B5A034803439BB28B5200205B
:1012F0007047C0460080FFFFF4235B00C35C012BF6
:1013000013D0F4235B000122C25400290AD19D3B73
:10131000FF3B7F320168CA52F4235B000022C254B3
:10132000002070472423C154F6E70220F9E70000AB
:10133000F0B54DB2002D65DB7F240C40E600361B76
:10134000B4000934FF3404197F260E402670ED0FD7
:101350006570E260E370F4235B00C35C012B00D195
:1013600075E1F4235B000122C254E378012B00D124
:1013700074E0002B4ED0022B59D0032B61D0227881
:10138000930001688C4663441988B24D29400A4392
:10139000B1490A431A80A37A002B00D0B5E06378E4
:1013A000002B00D167E0A28805685023EB5A217812
:1013B000C9005B185B198021C9008C466344012178
:1013C0008A431A8023789B000268944663441A88F3
:1013D000510604D59F490A40A0490A431A80227841
:1013E000920003689C46624413889D490B4020216B
:1013F0004B4099490B431380F4235B000022C254F5
:101400000020F0BD7F240C40E600361BB4002834D9
:10141000041999E723789B000268944663441A886C
:1014200090491140802292000A431A80A7E723784E
:101430009B000268944663441A888A490A401A80CD
:101440009DE723789B000268944663441A88854987
:101450001140C022D2000A431A8090E723789B00F3
:101460000268944663441A887E4911408022D20063
:101470000A431A8083E7A28805685026AB5B21786F
:10148000C9005B185B1978498C46634401218A4383
:101490001A8001688B5B2278D2009B185B18734A14
:1014A00094466344E1683E2926D94A0992B2C906A6
:1014B00001D1013A92B2920292B26D490A431A8066
:1014C00023789B000268944663441A88510404D52B
:1014D00060490A4067490A431A8023789B000268E2
:1014E000944663441988644A1140C02292015140D5
:1014F000594A0A431A807FE74A0892B2C90701D5C0
:10150000013292B292021A80DAE723789B000268D5
:10151000944663441A8859491140594A0A431A802B
:10152000E28805685027EB5B2178C9005B185B19DE
:101530008021C9008C4663440126B2431A80228967
:101540000568EB5B2178C9005B185B1946498C463E
:101550006344B2431A806378002B3DD123789B000B
:101560000268944663441A88510404D539490A40F4
:1015700040490A431A8023789B00026894466344DA
:101580001A88510604D533490A4034490A431A805F
:1015900023789B000268944663441A882D491140C1
:1015A0002E4A0A431A802178890003689C466144C8
:1015B0000B88314A1A40C0239B015340264A1343EB
:1015C0000B8023789B0001688C4663441988244C67
:1015D00021400A431A800FE723789B000268944653
:1015E00063441A88510404D51A490A4021490A4320
:1015F0001A8023789B000268944663441A88510637
:1016000004D514490A4015490A431A8023789B00DF
:101610000268944663441A880E491140154A0A43E9
:101620001A802178890003689C4661440B880C4A23
:101630001340094A13430B8023789B0001688C46B2
:10164000634419880C4C21400A431A80D4E60220D6
:10165000D7E6C0460F0F00008080FFFFC080FFFF6D
:10166000BF8FFFFF8F89FFFF040400000604000006
:101670000080FFFF80C0FFFF8FBFFFFF0F0E000045
:101680008081FFFF30B54AB2002A3ADB7F230B404E
:10169000DD00ED1AAB000933FF33C3187F240C4083
:1016A0001C70D20F5A70F4225200825C012A00D1C1
:1016B000C1E0F4225200012181549A7A002A41D1DA
:1016C0005A78002A25D01A78920001688C46624424
:1016D00011884C0604D5594C2140594C21431180A6
:1016E0001B789B000268944663441A885549114050
:1016F000554A0A431A80F4235B000022C25400209A
:1017000030BD7F230B40DC00E41AA3002833C3184C
:10171000C4E71A78920001688C46624411884C0430
:1017200004D5464C2140494C214311801B789B0035
:101730000268944663441A8845491140424A0A4364
:101740001A80D8E75A78002A3AD11A7892000168AC
:101750008C46624411884C0404D5384C21403B4CE3
:10176000214311801A78920001688C4662441188E6
:101770004C0604D5314C2140314C214311801A785C
:10178000920001688C46624411882C4C0C402C4914
:10179000214311801C78A400026894466444228886
:1017A0002B490A4028490A4322801B789B00026883
:1017B000944663441A88234C2240114319809AE7C7
:1017C0001A78920001688C46624411884C0404D552
:1017D0001A4C21401D4C214311801A789200016857
:1017E0008C46624411884C0604D5144C2140144C9C
:1017F000214311801A78920001688C466244118856
:101800000E4C0C401149214311801C78A400026841
:101810009446644422880B490A400B490A432280BB
:101820001B789B000268944663441A88084C224047
:10183000114319805FE7022062E7C0460F0F0000E6
:10184000C080FFFFBF8FFFFF8080FFFF80C0FFFFD2
:101850008FBFFFFF70B57F242140CD006D1AAC0013
:10186000041925001935FF352A6022001D32FF3288
:101870001360043200231360173A13700934FF34E5
:101880002170E933FF33C35C012B00D1F0E0F42376
:101890005B000122C254CA00521A9300C3181A00F6
:1018A0001D32FF3214681533FF331A68944247D94A
:1018B000CD006D1AAB00C3181D33FF33A41A1C6092
:1018C000CC00641AA300C3181333FF331B78002B1A
:1018D00049D104685033E55ACE00761AB300C318D4
:1018E0000933FF331B78DB00EB181B19614CA4464E
:1018F00063443E2A2ED95409A4B2D20601D1013C38
:10190000A4B2A402A4B25C4A14431C80CB00591AAE
:101910008B00C3180933FF331B789B000268944681
:1019200063441988554A1140C02292015140544ADB
:101930000A431A80F4235B000022C254002070BDC9
:10194000CA00521A9300C3181D33FF3300221A60D5
:101950002200B5E75408A4B2D20701D50134A4B2DD
:10196000A4021C80D2E7CC00641AA3001C00C31898
:101970000A33FF331B78002B23D105685033EB5A11
:1019800004190934FF342478E4001B195B193D4C19
:10199000A44663443E2A0BD95409A4B2D50601D10A
:1019A000013CA4B2A402A4B2334D2C431C800AE033
:1019B0005408A4B2D50701D50134A4B2A4021C80F6
:1019C00001E0012B24D0CC00641AA3001C00C31832
:1019D0000A33FF331B78002B35D105685033EB5A9F
:1019E00004190934FF342478E4001B195B19214CD5
:1019F000A44663443E2A1DD95409A4B2D20601D19B
:101A0000013CA4B2A402A4B21B4A14431C807DE78B
:101A100005684F33EB5ACE00761AB4000419093426
:101A2000FF342478E4001B195B19164CA446634468
:101A30001A80C8E75408A4B2D20701D50134A4B271
:101A4000A4021C8062E7012B00D05FE705684F33DA
:101A5000EB5ACE00761AB40004190934FF34247806
:101A6000E4001B195B19034CA44663441A804DE73C
:101A7000022064E7060400000080FFFF8FBFFFFF25
:101A80008080FFFF0204000010B5F4235B00C35CFC
:101A9000012B4DD0F4235B000122C2544CB2002C28
:101AA00020DBCA00521A93000933FF33C318012206
:101AB0009A707E3211401970E40F5C7000291AD1BF
:101AC000890003689C4661440A881A4B1A401A4BE5
:101AD0005A401A4B13430B80F4235B000022C2547C
:101AE000002010BD6A3BFF3B0B40DA00D21A930086
:101AF0002833C318DBE7002C0CD0890003689C4610
:101B000061440B880E4A1340102253400B4A134382
:101B10000B80E1E7890003689C4661440A88094B11
:101B20001A4080235B015A40044B13430B80D3E7D8
:101B30000220D6E7BFBFFFFF101000008080FFFF2C
:101B4000BF8FFFFF8FBFFFFF30B54AB2002A38DBDF
:101B5000CD006D1AAB000933FF33C31800249C700D
:101B60007F340C401C70D20F5A70F4225200825CF9
:101B7000012A4AD0F4225200012181545A78002AC5
:101B800027D01A78920001688C46624411884C066E
:101B900004D51F4C21401F4C214311801A7892001C
:101BA00003689C46624413881B490B4030214B401C
:101BB0001A490B431380F4235B000022C254002017
:101BC00030BD7F230B40DC00E41AA3002833C31888
:101BD000C4E71A78920001688C46624411884C046C
:101BE00004D50B4C21400E4C214311801B789B00E7
:101BF00002689446634419880A4A1140C02292013F
:101C00005140064A0A431A80D5E70220D8E7C04669
:101C10000F0F0000C080FFFFBF8FFFFF8080FFFF1E
:101C200080C0FFFF8FBFFFFF10B501335B081018A6
:101C30008022D20094466044002B08D00C784A7869
:101C40001202224302800231013B0230F4E710BD50
:101C5000F8B505007F240C40E000001B810008005F
:101C600069188A63CB6300230B640B0029330122BC
:101C70001A7028310C70F4235B00EB5C012B00D14F
:101C8000F9E0F4235B00EA542B18DA6B5B6B9A42A1
:101C900038D9E000001B81006918D21ACA63E1003C
:101CA000091B8A001100AA1832321278002A31D09A
:101CB0002868E100091B8A00AA18283212789100CE
:101CC000415A490600D48AE0E600361BB100691883
:101CD0002931097800293BD15031415AD2008A1864
:101CE0001018664A944660443E2B28D95A0992B28D
:101CF000D90601D1013A92B2920292B260490A43E6
:101D0000028027E0E100091B8B00EB180021D9635A
:101D10001300C4E79FB26E18B28D3B00B16B286808
:101D2000FFF782FF2A685023D35A28363178C9003A
:101D30005B189B18534A944663441F802DE05A0851
:101D400092B2D90701D5013292B29202028001E02B
:101D500001293AD0E100091B8A00AA18128E9BB211
:101D6000E100091B8E00AE19B16B2868FFF75CFF1C
:101D700029363378002B00D06AE0E200121B930072
:101D8000EB1828331B789B002A68944663441A8812
:101D90003D4911403D4A0A431A80E1000C1BA30053
:101DA000EB1828331A7892002B689C4662441388FB
:101DB00037490B4030214B4036490B431380F42305
:101DC0005B000022EA540020F8BD4F31415AD20096
:101DD0008A181018294A944660440380BAE7E6003E
:101DE000361BB10069182931097800291ED15031FC
:101DF000415AD2008A181018224A944660443E2B59
:101E00000BD95A0992B2D90601D1013A92B2920283
:101E100092B21B490A4302800AE05A0892B2D907DB
:101E200001D5013292B29202028001E0012905D06F
:101E3000E100091B8A00AA18D28D90E74F31415A60
:101E4000D2008A1810180F4A944660440380EFE7C6
:101E5000012BA2D1E200121B9300EB1828331B7850
:101E60009B002A68944663441A88074911400A4A2D
:101E70000A431A8091E70220A6E7C0460604000044
:101E80000080FFFF020400000F0F0000C080FFFF72
:101E9000BF8FFFFF8080FFFF80C0FFFF10B55C0891
:101EA00010188022D20094466044002C07D002888B
:101EB0000A70120A4A70013C02300231F5E7DB0772
:101EC00001D503880B7010BDF0B583B0050001ABE0
:101ED00000221A80B5E10388A94A134003802968CB
:101EE0005023CB5A2822AA5CD2009B185B18A54A23
:101EF000944663441B889B059B0D2B64AA6B9446F8
:101F00006344AB630021280001F0B3FD2423EB5CA4
:101F1000002B00D195E1EB6B002B00D091E1242246
:101F2000AB5C802149420B43DBB2CC312868435281
:101F30000023AB5485E15023C35A84225200AA5C8B
:101F4000D2009B181B18904A944663441B889B053B
:101F50009B0D2A000932FF3293612900ED31FF31D8
:101F60009288FFF79BFF2A68138888490B401380EB
:101F7000280001F065FD64E1140092882169FFF7F3
:101F80008DFF2369A26994466344236195E14B0860
:101F90009BB2C90701D501339BB29B021380A9E113
:101FA000A700C019028801AB1A801B881BB2002B46
:101FB00031DB01AB1B881B0600D442E12B689C4639
:101FC00067443B886E4A13403B80E200121B93003B
:101FD0001A00EB1832331B78002B00D0DCE02868A5
:101FE0005033C35AAA18110028310978C9005B1868
:101FF0001B1864498C4663441B889B059B0D136426
:1020000000D1F9E0E200121B910069188A8D896BFA
:10201000FFF70AFEF0E05D4B1A400280E200121B5F
:1020200093001A00EB181333FF331B78002B1DD1DC
:1020300028685033C35A1100AA180932FF321278A7
:10204000D2009B181B18504A944663441E88B6055C
:10205000B60D34D06B181A000D32FF3212881933C6
:10206000FF3319683300FFF719FF28E02868E20002
:10207000121B9300EB180933FF331B789A00825A26
:10208000520456D55022825ADB00D3181B183D4A01
:10209000944663441E88B605B60D3BD1E200121B80
:1020A0009300EB180933FF331B789B002A68944692
:1020B00063441A8836491140364A0A431A8031006F
:1020C000E200121B9300EB1818002130FF30026869
:1020D000921902601A001932FF3210688446664471
:1020E00016601D33FF331B68002B08D0E200121B63
:1020F000900028181530FF300268914234D2E20077
:10210000121B9300EB180933FF331978280001F0F4
:10211000A1FC4EE7E200121B9300EB181A000F32ED
:10212000FF3212881933FF3319683300FFF7B6FE08
:10213000B4E75022825ADB00D3181B18124A944687
:1021400063441E88B605B60DA8D0E200121B9300AA
:10215000EB181A001132FF3212881933FF33196855
:102160003300FFF79BFE99E7E100091B8A00AA18DC
:102170000932FF32117832002800FFF76BFB18E7B5
:102180000F8FFFFF02040000060400008F0F000005
:102190000F0F0000C080FFFF2868E200121B9300B1
:1021A000EB1828331B789A00825A520600D4B2E00A
:1021B0005022825ADB00D3181B186A4A94466344A3
:1021C0001B889B059B0DE100091B8A001100AA18C2
:1021D0001364002B00D098E0E200121B9300EB1870
:1021E00028331B789B002A68944663441A885E490A
:1021F00011405E4A0A431A8028685023C25AE100FF
:10220000091B8B00EB18190028310978C9005218F6
:10221000121854498C46624412889205920D1A6431
:10222000996B8C4662449A63DB6B002B00D08CE088
:10223000E3001C1BA300EB1828331978280001F0D9
:1022400018FC28684423C35A9BB26A46D3801BB249
:10225000002B00DB83E06B46DC880F231C4000D0A2
:102260009EE66B4606331B88DB0600D433E6028805
:1022700001AB1A801B881B0500D55CE601AB1B88EF
:102280001BB2002BDDDA0388394A1340038028682B
:102290005023C35A84225200AA5CD2009B181B18F8
:1022A000344A944663441B889B059B0D2A000932DF
:1022B000FF329361002B00D05EE60021280001F080
:1022C000C9FB2B6850229A5A9A182A4B9C466244A2
:1022D0002B000933FF33D9683E2900D857E64B0954
:1022E0009BB2C90601D1013B9BB29B029BB2224922
:1022F0000B43138029680A88204B1A40C0239B0196
:102300005A401F4B13430B809BE76918CA8D896B9A
:10231000FFF78AFC60E75022825ADB00D3181B18B3
:10232000144A944663441B889B059B0DE100091BDE
:102330008A001100AA181364002B00D14CE7691819
:102340000A8E896BFFF770FC46E7E1000C1BA100C9
:102350006918283109782800FFF77AFC71E7002016
:1023600003B0F0BD020400000F0F000080C0FFFFAB
:102370008F0F0000060400000080FFFF8FBFFFFFEB
:102380008080FFFF70B5040044230268D35A1BB25B
:10239000002B46DB236844229A5A520544D4236812
:1023A00044229A5A520404D544215A5A34480240CD
:1023B0005A52236844229A5A920404D544215A5A04
:1023C000304802405A52236844229A5AD20438D4E0
:1023D000236844229A5A120513D54422995A2A484E
:1023E0000140995220684023C15A08252943C1520F
:1023F0002068C15A04252943C15223689B5ADB0433
:1024000031D5236844229A5A920530D42368442255
:102410009A5AD20504D544215A5A1C4802405A52AD
:1024200070BDFFF751FDB5E744215A5A18480240E4
:102430005A52200001F031FB00212000FEF75CFF22
:10244000ADE74022995A042081439952114B2168EB
:102450008B52200001F040FB216844228B5A0E4829
:1024600003408B52B4E7200001F024FBC9E744216C
:102470005A5A0A4802405A52200001F007FBC5E7A9
:10248000FFBFFFFFFFDFFFFFFFF7FFFFFFFEFFFFC5
:10249000FFFBFFFF00BDFFFFFFEFFFFFFFFDFFFFA3
:1024A00030B5036A012293430362036A4268846978
:1024B0007325AC430D682C430225AB438D682B4339
:1024C000144DA84208D0144DA84205D0134DA8427F
:1024D00002D0134DA84205D10825AB43CD682B434C
:1024E0000425AB430B4DA84208D00B4DA84205D0A4
:1024F0000A4DA84202D00A4DA84205D1094D2A40F2
:102500004D692A438D692A43426084614A68426367
:10251000036230BD002C01400040014000440140F6
:1025200000480140FFFCFFFF70B5036A194A1340E1
:102530000362036A4268C4697325AC430E6826438C
:10254000154C23408C6824022343144CA04219D01C
:10255000124CA04208D0124CA04205D0114CA0420F
:1025600002D0114CA04207D1104C14404A6912010C
:1025700022438C6925012A434260C6614A68C263CE
:10258000036270BD0A4C1C40CB681B022343094CFC
:102590002340DDE7FFFEFFFFFFFDFFFF002C0140B2
:1025A000004001400044014000480140FFCFFFFFD0
:1025B000FFF7FFFFFFFBFFFF30B5036A134A13402D
:1025C0000362026A4368C469114D2C400D682D02F4
:1025D0002C43104D15408A6812032A430E4DA84221
:1025E00008D00E4DA84205D00D4DA84202D00D4D89
:1025F000A84204D10C4D2B404D69AD012B434360E3
:10260000C4614B680364026230BDC046FFEFFFFF48
:10261000FF8CFFFFFFDFFFFF002C01400040014067
:102620000044014000480140FFBFFFFF10B53D22BC
:10263000022383540468236801210B4323608154DF
:10264000002010BD0368DA6801210A43DA600268DD
:1026500013680B4313600020704770477047704742
:1026600070477047704710B5040003681A699207F5
:102670000FD5DA6892070CD5032252421A61012362
:10268000037703689B699B0763D0FFF7E9FF00238B
:10269000237723681A69520712D5DA6852070FD5D3
:1026A000052252421A610223237723689A69C023C4
:1026B0009B001A4253D02000FFF7D2FF002323775C
:1026C00023681A69120710D5DA6812070DD5092296
:1026D00052421A61042323772368DB699B0745D0A4
:1026E0002000FFF7BDFF0023237723681A69D20675
:1026F00012D5DA68D2060FD5112252421A61082388
:1027000023772368DA69C0239B001A4235D0200062
:10271000FFF7A6FF0023237723681A69D20702D5A3
:10272000DA68D20730D423681A69120602D5DA684B
:10273000120630D423681A69520602D5DA685206A6
:1027400030D423681A69920602D5DA68920630D42A
:1027500010BDFFF784FF2000FFF783FF97E72000FD
:10276000FFF77DFF2000FFF77CFFA7E72000FFF7C2
:1027700076FF2000FFF775FFB5E72000FFF76FFF3A
:102780002000FFF76EFFC5E7022252421A612000C7
:1027900000F07EFDC7E7812252421A612000FEF759
:1027A00020FDC7E7412252421A612000FFF75AFF7D
:1027B000C7E7212252421A612000FEF711FDC7E748
:1027C0000368214A904206D08022D205904202D06E
:1027D0001E4A904203D1702293434A6813431A4A17
:1027E000904212D08022D20590420ED0174A9042D9
:1027F0000BD0174A904208D0164A904205D0164A8C
:10280000904202D0154A904203D1154A1340CA683B
:102810001343802293434A69134303608B68C36266
:102820000B688362084B984208D00A4B984205D047
:10283000094B984202D0094B984201D10B690363BE
:10284000012343617047C046002C01400004004052
:102850000020004000400140004401400048014089
:10286000FFFCFFFF70B5041E14D03D23C35C002B9A
:102870000AD03D2502236355210001C9FFF7A0FFBF
:1028800001236355002070BD3C330022C254FEF783
:1028900057FBEEE70120F6E770B5041E14D03D2388
:1028A000C35C002B0AD03D2502236355210001C9DA
:1028B000FFF786FF01236355002070BD3C330022E3
:1028C000C254FFF7CAFEEEE70120F6E770B5040038
:1028D0000E0000281DD03D23C35C002B13D03D25E6
:1028E00002236355210001C9FFF76AFF22681368BC
:1028F00008218B4313602368196831431960012351
:102900006355002070BD3C330022C254FFF7A6FE81
:10291000E5E70120F6E7000070B5036A1022934353
:102920000362036A42688469174D2C400D682D02CA
:1029300025432024A3438C6824012343134CA04245
:1029400019D0124CA04208D0114CA04205D0114C15
:10295000A04202D0104CA04207D1104C14404A694A
:10296000920022438C69A6003243426085614A6826
:102970008263036270BD8024A3431C00CB681B01EB
:1029800023434024A343DCE7FF8CFFFF002C0140DE
:10299000004001400044014000480140FFF3FFFFB8
:1029A00070B504000D003C23C35C012B69D03C23AF
:1029B0000121C15401330131C154042A37D019D93E
:1029C000082A4AD00C2A2AD129000068FFF7F4FD12
:1029D0002268D16980231B010B43D3612268D3692C
:1029E00029490B40D3612168CB692A69120213433C
:1029F000CB6114E0002A12D129000068FFF750FDD6
:102A00002268936908210B43936122689369043912
:102A10008B4393612268936929690B4393613D233A
:102A20000122E254013B0022E254002070BD290043
:102A30000068FFF771FF2268916980231B010B4337
:102A400093612268936910490B40936121688B69F7
:102A50002A69120213438B61E1E729000068FFF73E
:102A600063FD2268D36908210B43D3612268D369CF
:102A700004398B43D3612268D36929690B43D3613D
:102A8000CDE70220D2E7C046FFFBFFFF10B50124CF
:102A90008C40036AA3430362036A8A4013430362C0
:102AA00010BD000010B5040001220068FFF7EEFF22
:102AB00023680C4A934208D00B4A934205D00B4A34
:102AC000934202D00A4A934204D1596C80221202E6
:102AD0000A435A642268136801210B4313600020E3
:102AE00010BDC046002C01400040014000440140A0
:102AF0000048014010B50400012200210068FFF7E2
:102B0000C5FF012204212068FFF7C0FF2368094A9E
:102B1000934208D0084A934205D0084A934202D013
:102B2000074A934204D1596C802212020A435A6424
:102B3000002010BD002C0140004001400044014035
:102B40000048014030B583B00400002301930368BE
:102B5000996803220A40012A14D09968204A114238
:102B600018D19A6801210A439A601E4B18681E49C1
:102B7000FDF7A6FA0190019B002B16D0019B013BAB
:102B80000193F8E71A68D20727D4DA681204E4D56B
:102B9000002008E0636C102213436364A36C0F3AB7
:102BA0001343A364012003B030BD00F0BDFA05005B
:102BB00023681B68DB070ED400F0B6FA401B02281E
:102BC000F6D9636C102213436364A36C0F3A13436A
:102BD000A3640120E7E70020E5E70020E3E7C04623
:102BE000170000800000002040420F0070B5041E56
:102BF00000D1B0E0436C002B7DD0636CDB0600D5C8
:102C0000A3E021688B6804221A4000D09DE0636C29
:102C1000524803400630FF3003436364886803234F
:102C20000340012B6DD0CB6818208343A068034379
:102C3000CB6021680B699B009B08606803430B61B4
:102C40002168CB6846480340CB60A3699B03E169D8
:102C5000C9030B43216A48030343606B012857D023
:102C6000802040010343E06803432069022851D0DB
:102C70001343226B52001343626A012A4CD0A26AAA
:102C8000C221FF318A4202D0E16A0A43134321681C
:102C9000CA681A43CA60A26B802149058A420DD0D6
:102CA000012A0BD0022A09D0032A07D0042A05D012
:102CB000052A03D0062A01D0072A0AD120684169D3
:102CC00007229143416120684169A56B2A400A436C
:102CD00042612268D26823490A409A422BD0636C31
:102CE00012229343023A13436364A36C0F3A1343D3
:102CF000A36401202EE0836440228354FEF7C6F9CA
:102D00007BE70B68DB079BD4CB681B0498D48AE76E
:102D10001000A7E70422ABE7002903D1802252026A
:102D20001343ACE7626C20210A436264A26C1F3932
:102D30000A43A264A3E70023A364636C03229343C2
:102D4000023A13436364002004E0636C10221343CF
:102D50006364012070BD0120FCE7C046FDFEFFFF5B
:102D60001902FEFFE7FF3F83F8B504000E001700CD
:102D700003689B685B073ED44023C35C012B3CD0B7
:102D800040230122C254C369012B04D0FFF7DAFEAD
:102D9000051E2ED100E00025636C194A1A408023DD
:102DA0005B00134363640023A3644022A354E36BDA
:102DB000144A9A62E36B144ADA62E36B134A1A63A9
:102DC00023681C221A602268536810210B43536049
:102DD0002268D3680F390B43D360216840313B0030
:102DE0003200E06BFDF76EFF2268936804210B430D
:102DF00093602800F8BD0225FBE70225F9E7C046ED
:102E0000FEF0FFFF152E0008872E0008932E000805
:102E10007047000010B5436A5A6C502111422BD103
:102E2000596C802292000A435A641A68D068C02103
:102E30000901084213D1196A002910D11168090744
:102E40000DD5916849070ED451680C20814351601B
:102E50005A6C0B490A400431FF310A435A64180086
:102E6000FFF7D6FF10BD5A6C20210A435A649A6CB2
:102E70001F390A439A64F2E7DB6B1B6B9847F1E753
:102E8000FEFEFFFF704710B5406AFFF7FBFF10BD65
:102E9000704710B5406A436C402213434364836C0F
:102EA0003C3A13438364FFF7F3FF10BD30B583B0A2
:102EB0000400002301934033C35C012B00D18AE05E
:102EC00040230122C25403689A68520775D4434ACA
:102ED0004868904256D09A6A01200D68A840024383
:102EE0009A62A36B8022520593421ED0012B1CD004
:102EF000022B1AD0032B18D0042B16D0052B14D07C
:102F0000062B12D0072B10D02268506907230340EC
:102F10008868984209D05069072398435061206817
:102F200042698D682B40134343610B681A00103AC5
:102F3000022A4CD82A4A1268102B0ED0112B09D025
:102F400080235B041343264A13600B68102B07D0C1
:102F5000002037E08023DB03F4E780231B04F1E744
:102F6000204B18682049FDF7ABF883001818430080
:102F70000193019B002B03D0019B013B0193F8E7D8
:102F800000201FE09A6A01200D68A84082439A62DF
:102F90000B681A00103A022A1BD8114A1268102B2B
:102FA00009D0112B05D0114B13400D4A136000209E
:102FB00008E00F4BF8E70F4BF6E7436C2022134372
:102FC0004364012040230022E25403B030BD0020BE
:102FD000F8E70020F6E70220F7E7C04601100000FE
:102FE000082701400000002040420F00FFFFFFFEC5
:102FF000FFFFBFFFFFFF7FFF70B5002811DB8308D5
:10300000144DC0339B005C5903221040C000FC32B9
:1030100016008640B44389010A40824014435C5143
:1030200070BDC0B20F230340083B9B0806339B00D2
:10303000094A944663445D6803242040C000FF228F
:1030400014008440A54389010A4082402A435A6003
:10305000E6E7C04600E100E000ED00E01F23184075
:103060001E3B8340014A13607047C04600E100E008
:1030700001380A4B98420FD8094A50600948036A40
:103080001B021B0AC02109060B4303620023936045
:1030900007331360002070470120FCE7FFFFFF00AB
:1030A00010E000E000ED00E0042805D0054A1368B8
:1030B00004218B4313607047024A136804210B43B9
:1030C0001360F8E710E000E0704710B5FFF7FCFF71
:1030D00010BD10B50400FDF76FFDFA218900FCF763
:1030E000EFFFFFF7C5FF0120002221004042FFF75C
:1030F00083FF002010BD000010B5064A13681021A0
:103100000B4313600020FFF7E4FFFDF7EFFE002004
:1031100010BDC04600200240024A1368013313600C
:103120007047C046E0010020014B18687047C04658
:10313000E001002030B583B00190FFF7F5FF0500F6
:10314000019C631C00D00134FFF7EEFF401BA0423E
:10315000FAD303B030BD000030B589B0184B5969BF
:103160008020C003014359615A6902400092009ACD
:10317000596980208002014359615A6902400192D5
:10318000019A5A698021C9020A435A615B690B405E
:103190000293029B84252D029024E405002229003D
:1031A0002000FDF776F9039501230493002305938E
:1031B000069303A92000FDF799F809B030BDC04679
:1031C0000010024070B58AB0194BDA69012632430B
:1031D000DA61DB6933400093009B164C8023DB05EA
:1031E000236000256560A560C8231B01E360802380
:1031F0009B0023612000FFF735FB0895099508A97E
:103200002000FDF789FF6023019302965E3B039344
:103210000595042201A92000FFF7C2FB0821200028
:10322000FFF754FB2000FDF7FDFE0AB070BDC0465D
:10323000001002408402002000B583B0094A5169A1
:10324000012319435161526913400193019B0022EC
:1032500000210920FFF7D0FE0920FFF7FFFE03B091
:1032600000BDC04600100240054B064A1A60BFF37D
:103270004F8F054B054ADA60BFF34F8FC046FDE71D
:10328000F03F0020EFBEADDE00ED00E00400FA05E7
:1032900010B50400164B02689A4204D02268154B00
:1032A0009A4212D010BD8023DB055B6A002BF5D15A
:1032B000114B18680521FCF703FF8023DB05D8625A
:1032C0001A6801210A431A60E8E78023DB055B6A7C
:1032D000002BE7D1094B18680A21FCF7F1FE802387
:1032E000DB05D8621A6801210A431A60DAE7C04692
:1032F0000020004000400140880100208C01002097
:10330000FEE7000000B583B00D480E4B0360FDF7EB
:103310005AFC00280BD10023009301930022694638
:10332000074800F0CDFE002805D103B000BD0649D6
:103330000648FFF7E5FF06490448FFF7E1FFC046EE
:10334000300200200074004075020000107B00086D
:103350007E02000010B50C480C4B03600B23436049
:1033600000238360FA229200C260E93AFF3A0261C8
:1033700043618361FFF776FA002800D110BD04494C
:103380000448FFF7BDFFC046C402002000200040F3
:1033900002020000107B000810B50C480C4B0360C3
:1033A0000B23436000238360FA229200C260E93A53
:1033B000FF3A026143618361FFF754FA002800D1AC
:1033C00010BD04490448FFF79BFFC046EC010020F4
:1033D0000040014012020000107B000800B593B0CD
:1033E0002C4A916980200001014391619369034057
:1033F0000193019B2848294B0360002343608360AD
:103400008022D200C2600361436180338361FFF791
:1034100043FA00282ED100231093119310A91E48BF
:10342000FDF77AFE002829D16023099304330A931B
:1034300000230B930C930D930E930F93002209A975
:103440001548FFF7ADFA00281CD10023029303931F
:10345000049305930693802292010792089302A990
:103460000D48FDF77FFE002810D10B48FDF7DAFD6F
:1034700013B000BD0A490B48FFF742FF0A4909484B
:10348000FFF73EFF09490748FFF73AFF084905489B
:10349000FFF736FF0010024044020020002C0140DC
:1034A00043020000107B00084A02000056020000A0
:1034B0006202000000B585B02A4A91698020800030
:1034C00001439161936903400093009B2648274B79
:1034D0000360002343608360C3600122026108210E
:1034E00041618361C3610362436283628023DB00C5
:1034F000C36202634263FFF779FB00281ED10023F9
:10350000019380235B0102930323039301A91648CF
:10351000FFF7CCFC002816D10123019301A9124822
:10352000FFF7C4FC002813D10223019301A90E4820
:10353000FFF7BCFC002810D105B000BDE321490015
:103540000B48FFF7DDFEE82149000948FFF7D8FEE8
:10355000EC2149000648FFF7D3FEF021490004485A
:10356000FFF7CEFE00100240480300200024014077
:10357000107B000800B599B030230B932F3B1393B9
:1035800010930F331193002314930BA8FCF788FFBB
:10359000002829D107230793043B089300230993AC
:1035A0000A93012107A8FDF743FA002821D18023BF
:1035B0009B02009300230693684600F0D5FC002888
:1035C0001CD1FDF7F9FAFA218900FCF779FDFFF724
:1035D0004FFD0420FFF768FD01200022002140423A
:1035E000FFF70AFD19B000BDC52149000648FFF7E5
:1035F00087FE9821FF310448FFF782FEA021FF31AA
:103600000148FFF77DFEC046107B000870B5FFF74C
:1036100073FDFFF7AFFFFFF79FFDFFF773FECF4C82
:103620000021200000F06AFD80231B010022002100
:103630002000FDF7DCFAFFF78DFEC948FFF702F81E
:10364000C84A13680124A3431360FFF7A5FEC648C8
:10365000FEF7F8FFC54A1368A3431360FFF7BEFEE9
:103660000021C348FFF71EFAFFF7ACFDC14C200054
:10367000FEF7DCFF04212000FFF73CFAFFF7DCFD3A
:10368000FFF718FF0322BC49BC48FFF76DFB00F0B1
:103690009BF900F0F1FB002816D180263602902518
:1036A000ED05012231002800FCF7F3FEFA24640046
:1036B0002000FFF73FFD002231002800FCF7E9FE63
:1036C0002000FFF737FDE8E7AD4AFE235B00D35C3F
:1036D000032B07D08021902000220902C005FCF7AF
:1036E000D8FEF1E78021902001220902C005FCF7F5
:1036F000D0FE7CE0FFF7B8FD802190200122090276
:10370000C005FCF7C6FE92E09E4909888A4201D9AD
:103710009C490A8001330F2B0BDC5A009A49525AFC
:103720009A4909888A42EFD99648018097490A80C8
:10373000F0E7964B1988142903D9954B1B889942B9
:1037400014D113292ED8924B1B8899422AD0854A2E
:10375000136801218B4313608E4B00221A607F3166
:103760009020C900C005FCF794FE1BE08A48FCF7D6
:10377000A7FC884B18607B4B00225A62D8621A68FB
:1037800001210A431A60814B1A88814B1A80FFF786
:10379000CBFC824B1860802190200122C900C0051B
:1037A000FCF777FE774B1988142903D97C4B1B88CB
:1037B000994242D113290BD8794B1B88994207D0E3
:1037C0006A4A136801218B431360764B00221A600A
:1037D000FFF7AAFC714B1B68C01AFA239B009842A2
:1037E00041D87149002000F05FFB012855D090209E
:1037F0008021C005FCF746FE002800D07AE75E4B2A
:10380000588802F047FDE621890502F059FC674916
:1038100002F056FC6649FCF7FFFC002800D16BE77C
:103820008021902000220902C005FCF732FE00230F
:10383000564A1380534A13806DE75748FCF740FC03
:10384000584B1860494B00225A62D8621A6801210D
:103850000A431A604B4B1A88514B1A80FFF764FCDD
:103860004E4B1860B4E73F4A136801218B43136045
:103870003E4A13688B431360002304E05900424A18
:103880000020885201330F2BF8DD80219020002288
:10389000C900C005FCF7FDFDA3E7434B1B78DA091F
:1038A000012A2DD0434A1278012A32D0022A9ED111
:1038B000414A93703F4B0321197013780F229343B1
:1038C000902B2CD03C4B1B780F229343802B8ED116
:1038D000394C6078453804F0ABF80022374B02F0E1
:1038E000EDFF02000B0000208021C90501F006FA5F
:1038F00023780F2213405B00234A0021995276E778
:103900002D4A13700023537093702A4B01221A70B2
:103910006DE7294A5370274B02221A7067E7264C3D
:103920006078453804F084F80022244B02F0C6FF8A
:1039300002000B0000208021C90501F0DFF9002200
:103940001F4B03F025FB02F0FFFA23780F221340F0
:103950001C4A13805B000C4AD052B3E730020020AF
:10396000C402002000200040EC0100200040014083
:103970004402002084020020E401002048030020CB
:103980009403002092010020940100209001002067
:10399000B40100208801002040420F00BC0100203B
:1039A000B60100208C010020EA01002000008842BE
:1039B0000000A041B80100202C0200200000284097
:1039C00000807B408401002010B5094C0022094989
:1039D000200000F0C1FB0849200000F0D9FB074996
:1039E000200001F063F8200000F0DBFB10BDC046B2
:1039F0009403002004000020400000203800002034
:103A000000B583B002680C4B9A4201D003B000BDF0
:103A10000A4AD169802000040143D161D36903407F
:103A20000193019B002201211F20FFF7E5FA1F20CF
:103A3000FFF714FBEAE7C046005C004000100240BC
:103A400010B5010087239B00C058ED31FF3100F015
:103A5000C5FB10BD10B50300872292008058CA0034
:103A6000521A94001B191933FF331A6800F0EAFB4D
:103A700010BD10B50300872292008058CA00521A68
:103A800094001B199A6B00F01AFC10BD10B5872327
:103A90009B00C05800F0ADFC10BD70B50500872438
:103AA000A4000121005900F08FFC285900F069FCA6
:103AB00070BD000010B5040087239B00C05800F0C3
:103AC00086FCA369002B04D0024A136906210B432C
:103AD000136110BD00ED00E010B587239B00C058B6
:103AE00000F080FC10BD000070B504001F48872363
:103AF0009B00C4500433E0501D4B03600823436017
:103B0000022282600023C36002618361C361036299
:103B1000FDF786FB002823D18825AD00182300225D
:103B200000216059FDF75EFB582300228021605977
:103B3000FDF758FBC023002281216059FDF752FB9D
:103B400088235B00002201216059FDF74BFB60597F
:103B500080235B0000228221FDF744FB002070BD22
:103B6000972149000348FFF7CBFBD5E7B8050020B4
:103B7000005C00401C7B000810B588239B00C058E7
:103B8000FDF7AEFB012806D043B2002B02D002287D
:103B900003D0022010BD0220FCE70120FAE710B597
:103BA00014001A0088239B00C0582300FDF7C0FBB7
:103BB000012806D043B2002B02D0022803D00220F5
:103BC00010BD0220FCE70120FAE710B588239B0016
:103BD000C058FDF757FD012806D043B2002B02D094
:103BE000022803D0022010BD0220FCE70120FAE7E2
:103BF00010B588239B00C058FDF746FF012806D06A
:103C000043B2002B02D0022803D0022010BD0220B4
:103C1000FCE70120FAE710B588239B00C058FDF7A8
:103C200093FF012806D043B2002B02D0022803D014
:103C3000022010BD0220FCE70120FAE788239B0048
:103C4000C3584AB2002A09DB7F221140CA00511A28
:103C50008A009B180B33FF33187870477F2211407E
:103C6000CA00511A8A009B182A331878F5E710B554
:103C700088239B00C058FDF73FFB012806D043B2C4
:103C8000002B02D0022803D0022010BD0220FCE746
:103C90000120FAE710B58824A4000059FDF7D8FFE9
:103CA000012806D043B2002B02D0022803D0022004
:103CB00010BD0220FCE70120FAE710B58824A4001B
:103CC0000059FDF7C7FD012806D043B2002B02D0F2
:103CD000022803D0022010BD0220FCE70120FAE7F1
:103CE00012230B80004870472000002004230B8023
:103CF000004870473400002010B50A00002805D1A4
:103D00000549064800F023FE034810BD0249034858
:103D100000F01DFEF8E7C046D80700205C7B0008D5
:103D200010B50A00034C2100034800F010FE2000EB
:103D300010BDC046D8070020487B000810B50A0017
:103D4000002805D10549064800F001FE034810BDD2
:103D50000249034800F0FBFDF8E7C046D807002001
:103D6000707B000810B50A00002805D105490648F7
:103D700000F0EDFD034810BD0249034800F0E7FDE7
:103D8000F8E7C046D80700202C7B000810B50A00D1
:103D9000002805D10549064800F0D9FD034810BDAB
:103DA0000249034800F0D3FDF8E7C046D8070020D9
:103DB000387B000870B5002291420FD9084C236867
:103DC000865C084DEE540133236001328024640088
:103DD000A342F1D1024B00241C60EDE7002070BD2E
:103DE000C4010020240A0020F0B5DE46474680B515
:103DF00085B006008B089B4603270F40019731D101
:103E00000023984622E00023009307E0022300935A
:103E100004E00323009301E001230093019C6B461F
:103E20001B88A3420FD9E3190133F35C02AAD11D09
:103E30000B706B005B1998000D4BC01800F069F80F
:103E40000134A4B2EBE701239C46E044C34509D901
:103E500043469F00F25D15090F2313409B00054A5E
:103E6000D3589F46002005B00CBC90469B46F0BD41
:103E7000D8090020807B000810B50024002C01D058
:103E8000012010BD802163001B199800054BC0184C
:103E9000890000F024F8012801D10134EEE7002068
:103EA000EFE7C046D809002010B54300181883007A
:103EB0000348181800F045F8012800D0002010BD74
:103EC000D809002010B504008068002801D000F057
:103ED0004FFE002363802380A380012010BD70B5B6
:103EE00005000C00FFF7EEFF2600200000F036FE74
:103EF000A86000280BD000239E4205D9AA68D218DA
:103F0000002111700133F7E7AC80012070BD002063
:103F1000FCE710B50288541C8388013B2340448889
:103F2000A3420CD00B7881688B54038801339BB279
:103F30008288013A12B213400380012010BD002094
:103F4000FCE7028843889A420CD08268D35C0B70ED
:103F5000438801339BB28288013A12B213404380F6
:103F6000012070470020FCE770B582B004000368B0
:103F7000DB0335D54B4BDB69DB0066D4494AD1699D
:103F8000802040050143D161D36903400193019B27
:103F90000125454B1B68DB0559D5424B1B6AC022E6
:103FA0009200134013D061680A409A420FD03D4BF3
:103FB000186A3E4A02401E6A802149023143196252
:103FC000196A3B4E314019621A62C30753D4354A0D
:103FD000136A36490B4061680B431362012D59D0B7
:103FE0002368DB0706D52F4A136B03218B43A16897
:103FF0000B43136323689B0706D52A4A136B2D498D
:104000000B40E1680B43136323689B0606D5254AE2
:10401000136B10218B4321690B43136323689B03AC
:1040200006D5204A136B80218B43A1690B43136390
:1040300023685B0533D51B4A136B40218B436169B1
:104040000B431363002002B070BD0025A1E7164AA0
:10405000116880235B000B431360FFF765F80600CF
:10406000114B1B68DB0598D4FFF75EF8801B6428B2
:10407000F6D90320E7E7FFF757F80600094B1B6A5C
:104080009B07A4D4FFF750F8801B0B4B9842F5D93F
:104090000320D8E7D36909490B40D361A0E700208A
:1040A000D1E7C0460010024000700040FFFCFFFF57
:1040B000FFFFFEFFFFFFFCFF88130000FFFFFFEF85
:1040C00070B54379012B14D001254571022303718A
:1040D00006683368084C9440A3431C000B68496889
:1040E0000B43934023433360057100234371002049
:1040F00070BD0220FCE7C046FE0F000010B54379FA
:10410000012B27D001234371022202710468226827
:104110008B4013432360002910D1026811683C23AF
:104120000B403C2B05D00123037100234371002079
:1041300010BD536801210B435360F4E701680B681D
:10414000F022920313409342EDD14B6802221343B5
:104150004B60E8E70220EBE710B5002816D0852376
:104160009B00C358002B03D085239B000024C45020
:10417000002902D084239B00C150FE235B00012153
:10418000C1540270FFF7B0FC002010BD0220FCE714
:10419000002904D085239B00C150002070470220D5
:1041A000FCE710B5FFF7E8FC002010BD10B5852333
:1041B0009B00C358002B06D01B689847002800D1ED
:1041C00010BD0220FCE70220FAE710B585239B0012
:1041D000C3585B689847002010BD000070B504000C
:1041E00082239B00C518280000F02FF9FA235B00FA
:1041F0000122E250124BE25A163BE2501033E15CCE
:10420000EA3BFF3B0B40012B0FD0002B07D0022BCA
:1042100010D07F2399432000FFF7EAFC03E0290038
:10422000200000F0B5FA002070BD2900200000F049
:10423000D3FAF8E72900200000F0ECFAF3E7C046D3
:104240000E02000010B50400130000292AD1FA2242
:1042500052008258032A01D0002010BD421DFF32B7
:104260009168D26891420ED885239B00C3581B6980
:10427000002B04D0FE225200825C032A10D02000C2
:1042800000F0A1FBE8E7891A0530FF3081608A421F
:1042900000D90A0092B21900200000F08CFBDBE785
:1042A0009847ECE785239B00C3589B69002BD3D02C
:1042B000FE225200825C032ACED19847CCE770B52B
:1042C0000400130000294FD1FA2252008258022A1A
:1042D00006D080239B00E35C012B40D0002070BD02
:1042E000C269056AAA421CD8866929003000FBF71A
:1042F00023FF002906D1B54204D8FC235B00E35814
:104300009E421BD385239B00E358DB68002B04D01F
:10431000FE225200A25C032A1ED0200000F05FFBA8
:10432000D7E7521BC26192B2190000F03CFB002398
:10433000002200212000FFF7C0FCCAE70022200075
:1043400000F031FBFC235B000022E250002300213F
:104350002000FFF7B2FCBCE720009847DDE7802390
:104360009B000022E254B9E785239B00C3585B6998
:10437000002BB3D0FE225200825C032AAED19847B4
:10438000ACE770B50400402300220021FFF707FCD2
:10439000402588235B00E550D03B0022802120008F
:1043A000FFF7FDFB2562FE235B000122E2541C3374
:1043B000E358002B06D085239B00E3585B682179E6
:1043C00020009847002070BD017400207047FE2334
:1043D0005B00C15CFE22FF328154FA3AFF3AC254BC
:1043E00000207047FE23FF33C25C013BC254002013
:1043F000704710B5FE235B00C35C032B01D0002087
:1044000010BD85239B00C358DB69002BF7D098476C
:10441000F5E7030000201A78002A03D00130C0B26B
:104420000133F8E7704710B504004B88012B00D02A
:1044300010BD81239B000122C2501033C3589B68DA
:104440009847200000F0BFFAF2E70B7803704B7832
:1044500043708B78CA7812029B1843800B794A7993
:1044600012029B1883808B79CA7912029B18C38031
:10447000704710B504008021FFF7BAFB002120002F
:10448000FFF7B6FB10BD000030B583B004000D008F
:104490004A88130A072B00D98EE09B004F49CB585E
:1044A0009F4684239B00C3581B68007C6A46911D6D
:1044B00098476B4606331B88002B03D0EA88002AF6
:1044C00000D07EE003B030BD037C002B09D18523F2
:1044D0009B00C3589B6A6A46901D9847022343700D
:1044E000E7E785239B00C358DB6A6A46901D98471F
:1044F00002234370DDE7D2B2052A39D89200384B47
:104500009B589F4684239B00C3585B68007C6A4687
:10451000911D9847CDE784239B00C3589B68007C7E
:104520006A46911D9847C4E784239B00C358DB6803
:10453000007C6A46911D9847BBE784239B00C358C3
:104540001B69007C6A46911D9847B2E784239B0053
:10455000C3585B69007C6A46911D9847A9E784238C
:104560009B00C3589B69007C6A46911D9847A0E751
:104570002900FFF77EFFA5E7037C002B07D18523E9
:104580009B00C3585B6B6A46901D984791E72900D2
:10459000FFF76FFF96E7037C002B09D185239B0073
:1045A000C3581B6B6A46901D98470723437080E7EA
:1045B0002900FFF75EFF85E729002000FFF759FF7C
:1045C00080E7191C934200D9111C8AB26B46D9802E
:1045D0000100200000F0D9F974E7C046C07B000854
:1045E000E07B000870B504008B88002B22D1CB88BB
:1045F000002B1FD18B787F251D40FE235B00C35C01
:10460000032B0FD0FF235B00C5542900FFF72FFBBE
:10461000200000F0D8F9002D07D0FE235B00022215
:10462000E2540AE0FFF725FF07E0FE235B000122CA
:10463000E25402E02000FFF71CFF70BD70B50400DB
:104640000D008978284B197001290AD8FE235B00D8
:10465000C35C022B09D0032B1ED02900FFF709FFF2
:1046600002E02900FFF705FF70BD002911D041606D
:10467000FE235B000322C254FFF798FD022803D0FB
:10468000200000F0A0F9EFE729002000FFF7F1FE7D
:10469000EAE700F098F9E7E7002911D0436899426A
:1046A0001ED0D9B2FFF791FD0F4B19786160200041
:1046B000FFF77CFD02280ED0200000F084F9D3E73C
:1046C000FE235B000222C2544160FFF77EFD200002
:1046D00000F079F9C8E729002000FFF7CAFEC3E718
:1046E00000F071F9C0E7C046C001002010B5CB88CA
:1046F000012B09D1FE235B00C35C022B07D0032BE7
:104700000DD0FFF7B6FE01E0FFF7B3FE10BD0023AA
:10471000836001000831012200F037F9F6E7011D3E
:10472000012200F032F9F1E710B5FE235B00C35C13
:10473000023B012B0ED80123C36081239B00C35889
:10474000002B01D00323C36001000C31022200F0D2
:104750001CF910BDFFF78DFEFBE710B50400FE232A
:104760005B00C35C023B012B0ED84B88012B0DD1A3
:1047700081239B000022C2501033C3589B68984786
:10478000200000F020F901E0FFF773FE10BD0000EB
:1047900010B54B78092B19D89B000E4AD3589F4669
:1047A000FFF772FE002010BDFFF71CFFFAE7FFF7CE
:1047B00045FFF7E7FFF79AFFF4E7FFF7B5FFF1E7EB
:1047C000FFF731FEEEE7FFF7C8FFEBE7FFF751FE1B
:1047D000E8E7C046F87B000870B504000D00FE2332
:1047E0005B00C35C032B11D10B79012B0BD8852304
:1047F0009B00C3589B689847EB88002B08D120008A
:1048000000F0E1F804E0FFF734FE01E0FFF731FECD
:10481000002070BD70B505000C008A88D1B22078E8
:1048200060230340202B12D06378012B36D0002B5D
:104830005CD0032B12D1FA33FF33EB5C022B0FD089
:10484000032B15D021002800FFF713FE06E0F533F7
:10485000FF33EB589B68210028009847002070BD6B
:104860000029FBD08029F9D02800FFF7C1F9F5E72E
:104870006388002B03D1002901D080290AD1852328
:104880009B00EB589B68210028009847280000F007
:104890009AF8E3E72800FFF7ABF9F0E7FE235B00A7
:1048A000EB5C022B06D0032B0CD021002800FFF775
:1048B000E0FDD3E70029D1D08029CFD02800FFF731
:1048C00097F9CBE76388002BC8D14B0603D12800AA
:1048D00000F079F8C2E72800FFF79DF985239B00D7
:1048E000EB589B68210028009847F0E7FE235B0007
:1048F000EB5C022B06D0032B0AD021002800FFF727
:10490000B8FDABE74B06A9D02800FFF771F9A5E782
:10491000130612D47F240C40103424012C190434C3
:104920002800FFF78BF900280ED001232360022214
:104930002100280000F029F890E77F240C40013482
:1049400024012C190434EBE700232360EFE770B552
:1049500004000D001600002816D0FFF75AFD431C76
:104960005B009BB233802B7003236B70013B21787B
:10497000002909D001345A1CD2B2E9540233DBB207
:10498000AA1800211170F2E770BD10B51300FA22C9
:104990005200022484508361C3610A000021FFF7A2
:1049A00079F9002010BD10B513000A000021FFF7AF
:1049B00071F9002010BD10B513000A000021FFF7A7
:1049C0007CF9002010BD10B5FA235B000422C25010
:1049D000002300220021FFF75DF9002010BD10B573
:1049E000FA235B000522C250002300220021FFF7BA
:1049F00064F9002010BD0000044B1B78012B01D08E
:104A000000207047014B00221A70F9E7C80100200E
:104A100085230380004870477800002070B50400AB
:104A200087239B00C0580433E358CA00511A8A00F8
:104A30009B182133FF3319880368054D28009847D8
:104A400040232A0001212000FFF737F9002070BD24
:104A5000E409002010B50400054B00221A608121F2
:104A6000FFF7B3F801212000FFF7AFF8002010BDD9
:104A7000CC01002010B504000A4B1860402302222C
:104A80008121FFF78CF84023022201212000FFF74B
:104A900086F84023044A01212000FFF70EF9002088
:104AA00010BDC046CC010020E4090020002904D03C
:104AB00087239B00C150002070470220FCE70000C4
:104AC0000D488546002103E00C4B5B5843500431F0
:104AD0000B480C4B42189A42F6D30B4A02E00023D3
:104AE00013600432094B9A42F9D3FCF7AFF900F096
:104AF00011F8FEF78BFDFEE7FF3F0020407C000829
:104B0000000000206801002068010020280B002020
:104B1000FEE7000070B500260C4D0D4C641BA41080
:104B2000A64209D1002602F0C1FF0A4D0A4C641BBF
:104B3000A410A64205D170BDB300EB5898470136CA
:104B4000EEE7B300EB5898470136F2E7387C0008EF
:104B5000387C0008387C00083C7C000810B5034B0A
:104B60000100186800F058F810BDC0460001002090
:104B700010B5034B0100186800F004F810BDC046E2
:104B80000001002070B50500002910D00C1F23681B
:104B9000002B00DAE418280000F0AEF81D4A136874
:104BA000002B05D163601460280000F0A6F870BDEA
:104BB000A34209D9216860188342F3D118685B6861
:104BC00041182160EEE713005A68002A01D0A24282
:104BD000F9D919685818A0420BD12068091858183B
:104BE00019608242E0D110685268411819605A6019
:104BF000DAE7A04202D90C232B60D5E721686018C0
:104C0000824203D1106852684118216062605C6082
:104C1000CAE7C046D0010020F8B50323CD1C9D4350
:104C2000083506000C2D1FD20C25A9421ED83000D5
:104C300000F062F825490A681400002C1AD1244FAC
:104C40003B68002B04D12100300000F043F83860AD
:104C50002900300000F03EF8431C2AD10C2330001C
:104C6000336000F04AF803E0002DDEDA0C233360F5
:104C70000020F8BD23685B1B18D40B2B03D92360DD
:104C8000E418256003E06368A2420DD10B60300098
:104C900000F033F8200007220B30231D9043C21A86
:104CA000E7D01B1AA350E4E75360F0E722006468E2
:104CB000C3E70323C41C9C43A042E2D0211A300066
:104CC00000F008F8431CDCD1C8E7C046D001002042
:104CD000D4010020002370B5064C050008002360B5
:104CE00001F024F9431C03D12368002B00D02B6072
:104CF00070BDC046240B002070477047F0B5574682
:104D00004E46DE464546E0B58FB01D0006000F005A
:104D1000140000F0B1F9D04B009001919A461B7835
:104D20005BB2994601333ED022002B0020002900BF
:104D300002F030FE8346002835D132003B003000BF
:104D4000390002F027FE00220390002800D0A1E0E5
:104D5000002330003900FBF70BFA00282CD000228A
:104D6000002320002900FBF703FA834600285FD0C8
:104D700004AB9846012342460493B84B5360434624
:104D8000039A1C615D611A629E60DF6042460023E7
:104D900000249361D4614B46002B00D19BE000239B
:104DA000AF4C00930194009801990FB03CBC904621
:104DB0009946A246AB46F0BD0098019900F0A0FFCD
:104DC0008146002800D19AE0009801990022002332
:104DD000FBF7CEF90028E6D03000390000F090FF54
:104DE0000028E0D02000290000F08AFF0028DAD057
:104DF00004AB9846042342460493984B14615561D2
:104E0000536000230024136200239361D46153464E
:104E10001B789660D7605BB2022B04D0404600F04E
:104E200079FF00285CD102F03BFE2223036057E0AB
:104E30002000290000F064FF0028B4D000220023E5
:104E400020002900FBF79AF90028ACD004AB984663
:104E5000012342460493814B536043465A469E6069
:104E6000DF601A621C615D6153461B785BB2002BE8
:104E700000D08EE04246002300249361D461404676
:104E800000F048FF002800D18BE043461B6A002B4E
:104E90002FD029E0002320002900FBF769F9002822
:104EA00000D180E704AB98460123424604936B4B44
:104EB0004146536043465A461A6200229E60DF60B4
:104EC0001C615D61664B8A61CB61009201934B4628
:104ED000022B00D167E7404600F01CFF002865D098
:104EE00043461B6A002B04D002F0DAFD43461B6ADE
:104EF00003604346DC699B690093019453E73000EB
:104F0000390000F0FDFE002800D15DE720002900F7
:104F100000F0F6FE002800D156E7009801995346AC
:104F20001B7802005BB29B460B0002F033FD04AB22
:104F30009846002872D1032342460493474B1461DC
:104F40005561536010629660D760464B200029007F
:104F5000002202F01DF85B4604000D00002B2AD150
:104F6000E0224146404B12068A61CB6130000022AC
:104F700000233900FBF702F900282DD1404600F04C
:104F8000C9FE002800D080E702F08AFD22230360DA
:104F90007BE70020424635499061D161022B00D069
:104FA0006DE702F07DFD212303606EE702F078FDDE
:104FB0002123036094E7002241462D4B30008A6193
:104FC000CB61002200233900FBF7D8F8002818D164
:104FD0005B46022BD8D0D1E72000290000F0A2FECA
:104FE00022002B00FBF7C4F8002805D1E022214B5A
:104FF000120641468A61CB6153461B785BB29B46E1
:10500000E6E72000290000F08DFE22002B00FBF7D0
:10501000AFF80028F0D10022144BEAE70123424602
:1050200004930E4B536043464A469E60DF601A620B
:105030001C615D615B46002B00D11BE70023002251
:105040001900100001F03AFC43469861D9615B46B3
:10505000022BA6D013E7C04664010020207C000884
:105060000000F03F0000E03FFFFFEF470000F0FFCF
:105070000000F07FFFFFEFC7F0B557464546DE461C
:105080004E46E0B55D006D081F0098462B0093B0BA
:1050900083468A461600134336D07C4B4C0002915F
:1050A000814664089C4229DC3BD09D4226DC774B3C
:1050B0009D4221D0002304935346002B3BDB002A62
:1050C00057D1724B9D4200D1A7E0714B9D4200D158
:1050D000B8E08023DB05984501D100F084FC6D4BDE
:1050E000984546D15346002B43DB5846514600F0C5
:1050F00029FD009001910BE0002ADBD0664B9C4615
:105100005B4664441C4310D10023614C009301941E
:105110000098019913B03CBC90469946A246AB4614
:10512000F0BD002801D1A542C1DD5C4800F0F4FDCE
:1051300000900191ECE75A4B9D4200DD94E0594B01
:105140009D4214DD58492B158C466344142B01DC19
:1051500000F05AFC3421CB1A3100D94008009840A5
:10516000904204D10123194001335B1A0493002AB1
:10517000ABD05846514600F0BFFD4B460090019120
:10518000002B2AD1002C05D05346414A9B009B0896
:10519000934222D14346002B07DA009A019B00205C
:1051A0003B4901F08BFB00900191029B002BAFDA91
:1051B000394B9C46049B64441C4301D000F096FC90
:1051C0000098019902000B0002F002F902000B00A6
:1051D00001F074FB009001919AE75346DB0F013B0D
:1051E00099464A46049B13434BD0304B9D4265DDA4
:1051F0002F4B9D4200DC92E32A4B9C4201DC00F0E5
:10520000FCFB4346002B18DD2A4A2B4B10001900EB
:1052100001F0BEFE009001917AE75A461E4BE3185A
:10522000134300D170E71F4B9C4200DC6CE3434604
:1052300000960197002B00DB6AE70023002400930F
:10524000019465E7524659464346584600910192FB
:10525000002B00DB5CE70200534600200C4901F004
:105260002DFB0090019153E70223049327E7584652
:10527000514600F041FD4B4600900191002B00D1BA
:1052800080E75A465346584651469DE70000F07F56
:105290000000F03F0000E03F000010C07C7B0008F1
:1052A000FFFF3F43FFFFEF3F01FCFFFF0000E04136
:1052B0000000F0439C7500883CE4377E5146E34B88
:1052C00000220B420AD1009801990022E04B01F024
:1052D0005FFE35220C00009001915242DD492315FA
:1052E0008C46634498462403DB4DDC4B240B9044EE
:1052F00025439C420ADDDA4B9C4201DC00F005FCB0
:1053000001239C46D74BE0449C466544002300247F
:1053100000220E930F94109311940024CE4B06920A
:10532000079300980199069A079B29000890099114
:1053300002F04EF8069A079B0A900B91089809997B
:1053400000F0E2FF02000B000020C34901F0B6FAB2
:105350000A00010013000C910D9202000A980B99AB
:1053600001F016FE0A0001000291039269108025E7
:10537000AD050D4380211300002209038C460092E5
:10538000019300980199002265442B191D00140017
:1053900001F0FEFD02000B000A980B9902F018F8CC
:1053A000069A079B0A900B912000290002F010F842
:1053B00002000B000898099902F00AF8009A019B74
:1053C00001F0E6FD02000B000A980B9902F000F8CC
:1053D0000C9A0D9B01F0DCFD029C039D0890099145
:1053E00022002B002000290001F0D2FD04000D0056
:1053F0009D4A9E4B01F0CCFD9D4A9E4B00F084FFE0
:1054000022002B0001F0C4FD9B4A9C4B00F07CFF66
:1054100022002B0001F0BCFD994A9A4B00F074FF6A
:1054200022002B0001F0B4FD974A984B00F06CFF6E
:1054300022002B0001F0ACFD954A964B00F064FF72
:105440002200069007912B002000290001F0A0FD0A
:1054500002000B000698079901F09AFD009A019B43
:1054600004000D000298039900F04EFF089A099B72
:1054700001F08EFD22002B0000F046FF009C019DF4
:105480000A900B9122002B002000290001F080FDE2
:105490000022814B04000D0000F036FF0A9A0B9B9E
:1054A00000F032FF00220B0011001A000691079253
:1054B0000A000098019901F06BFD00220C900D91FB
:1054C00006980799744B01F083FF22002B0001F02E
:1054D0007FFF02000B000A980B9901F079FF029AF6
:1054E000039B01F055FD069A079B04000D000898E8
:1054F000099901F04DFD02000B002000290000F089
:1055000003FF04000D0002000B000C980D9900F041
:10551000FBFE00221000E022604B12060090019179
:1055200001F036FD0C9A0D9B0290039100980199B1
:1055300001F04EFF02000B002000290001F048FF9F
:10554000574A564B01F024FD564A04000D000098BE
:105550000199554B01F01CFD02000B0020002900B1
:1055600000F0D2FE109A119B00F0CEFE069007913B
:10557000404602F05DFA069A079B04000D0002986F
:10558000039900F0C1FE0E9A0F9B00F0BDFE2200B1
:105590002B0000F0B9FE002022002B0000900191AA
:1055A00001F016FF0E9A0F9B01F012FF029A039B67
:1055B00001F00EFF02000B000698079901F008FFAA
:1055C000029003914A46049B013B134300D096E1AD
:1055D0000023364C0693079400223B00300039002C
:1055E000140001F0F5FE009A019B01F0D1FC32009D
:1055F0003B00049005910298039901F0C9FC020058
:105600000B000498059900F07FFE3D0006000F0096
:105610000098019922002B000296039701F0B8FC34
:1056200002000B00300039000092019300F06CFE84
:105630001F4B04000D008A460200994200DC39E14C
:105640001C4BCB18034300D0FCE135E00000F07F99
:105650000000404301FCFFFF0000F03F8E98030074
:1056600079B60B000000F0FFEF4E454A287ECA3F96
:1056700065DBC9934A86CD3F01411DA96074D13FC6
:105680004D268F515555D53FFFAB6FDBB66DDB3FD8
:10569000033333333333E33F0000084009C7EE3FA1
:1056A000FD033ADCF5015B14E02F3EBE0000F0BFC5
:1056B000FFFF8F40000070BF02980399E84AE94B52
:1056C00000F022FE009A019B06000F002000290036
:1056D00001F07EFE02000B0030003900FAF762FD97
:1056E000002800D0AEE153465B005B0DDE4ADF4D83
:1056F0009446802252031100634419410B00DC4997
:1057000053445C001E001B038C461B0B13431422E6
:10571000640D64442541141B234199465346AE430E
:1057200000203100002B02DA4B465B429946020012
:105730000B000098019901F04BFE4B461B050090B1
:105740000191020098460B000298039900F0DCFDDD
:105750000D0000240022C74B2000290001F018FC96
:10576000009A019B049005912000290001F030FE71
:1057700002000B000298039901F02AFEBE4ABF4BBB
:1057800001F006FCBE4A06000F00BE4B20002900B7
:1057900001F0FEFB02000B003000390000F0B4FD08
:1057A00004000D0002000B000498059900F0ACFD08
:1057B000049A059B06000F0001F00AFE02000B0090
:1057C0002000290001F004FE3200009001913B000E
:1057D0003000390001F0DCFB04000D00AA4AAB4B9D
:1057E00001F0D6FBAA4AAB4B01F0F2FD22002B00E0
:1057F00001F0CEFBA84AA94B00F086FD22002B0049
:1058000001F0C6FBA64AA74B01F0E2FD22002B00E7
:1058100001F0BEFBA44AA54B00F076FD22002B0050
:1058200001F0B6FB02000B003000390001F0D0FDA2
:1058300004000D0002000B003000390001F0A8FB4D
:105840008023029003910022DB052000290001F053
:10585000BFFD02000B000298039901F02FF8009A97
:10586000019B04000D003000390001F091FB009A0B
:10587000019B00F049FD02000B002000290001F00F
:10588000A7FD32003B0001F0A3FD02000B00002049
:10589000874901F09DFD43465B181A15002A00DC7C
:1058A00044E11900069A079B01F072FB00900191F8
:1058B000FFF72EFC4B007F495B088B4200DCB8E011
:1058C0007D4B53441A430CD1009A019B20002900C0
:1058D00001F07EFD029A039BFAF76EFC002800D1CE
:1058E00001E706980799754A754B01F051FB734A19
:1058F000734B01F04DFB00900191FFF709FC002371
:105900006B4C0693079467E64346002B00DB94E458
:1059100080231B06FB1800960193FFF7F9FB694BE8
:105920009C426ADD624B9C4200DD6AE4009801996A
:1059300000225F4B01F04CFDC022634BD2050400F6
:105940000D0001F025FB614A02900391604B20009D
:10595000290001F01DFB0022009001915D4B200009
:10596000290001F015FB02000B005B485B4901F0C8
:105970002FFD22002B0001F00BFB02000B0000208A
:10598000574901F025FD2200069007912B002000C9
:10599000290001F0FDFA02000B000698079901F0BA
:1059A000F7FA2F4A484B01F0F3FA02000B00009877
:1059B000019901F00DFD02000B0004000D0002989A
:1059C000039900F0A1FC029A039B00200090019132
:1059D00001F0FEFC02000B002000290001F0F8FCA1
:1059E00002900391EEE55A4653465846514601F05F
:1059F000CFFA00900191FFF78BFB4346002B01DBB0
:105A0000FFF71BFCFFF700FC002A01D0FFF72FFC7B
:105A10001432D31A2A001A4111009940A94201D028
:105A2000FFF753FB01231A40DB189B1A0493FFF77F
:105A30004CFB00212A4A88468946934200DC88E6CE
:105A40001B1553E6274A284B0698079901F0A0FA40
:105A5000244A254B01F09CFA00900191FFF758FB76
:105A6000FE822B654715973C02FCFFFFFFFF0F00EE
:105A700001FCFFFF432EE63FEF39FAFE422EE63FE0
:105A8000396CA80C615C20BED0A4BE726937663E3A
:105A9000F16BD2C541BDBB3E2CDE25AF6A56113F2E
:105AA00093BDBE166CC1663F3E5555555555C53F15
:105AB0000000F03FFFCB904000346F3F59F3F8C235
:105AC0001F6EA501FEFFEF3F4715F73F44DF5DF86E
:105AD0000BAE543E0000D03F555555555555D53F5A
